{
  "contractName": "ZeCash_PoS",
  "abi": [
    {
      "constant": true,
      "inputs": [],
      "name": "name",
      "outputs": [
        {
          "name": "",
          "type": "string"
        }
      ],
      "payable": false,
      "stateMutability": "view",
      "type": "function"
    },
    {
      "constant": true,
      "inputs": [],
      "name": "totalSupply",
      "outputs": [
        {
          "name": "",
          "type": "uint256"
        }
      ],
      "payable": false,
      "stateMutability": "view",
      "type": "function"
    },
    {
      "constant": true,
      "inputs": [],
      "name": "maxTotalSupply",
      "outputs": [
        {
          "name": "",
          "type": "uint256"
        }
      ],
      "payable": false,
      "stateMutability": "view",
      "type": "function"
    },
    {
      "constant": true,
      "inputs": [],
      "name": "decimals",
      "outputs": [
        {
          "name": "",
          "type": "uint256"
        }
      ],
      "payable": false,
      "stateMutability": "view",
      "type": "function"
    },
    {
      "constant": true,
      "inputs": [
        {
          "name": "",
          "type": "uint256"
        }
      ],
      "name": "blockIndexes",
      "outputs": [
        {
          "name": "",
          "type": "uint256"
        }
      ],
      "payable": false,
      "stateMutability": "view",
      "type": "function"
    },
    {
      "constant": true,
      "inputs": [
        {
          "name": "",
          "type": "uint256"
        }
      ],
      "name": "validatorAccts",
      "outputs": [
        {
          "name": "",
          "type": "address"
        }
      ],
      "payable": false,
      "stateMutability": "view",
      "type": "function"
    },
    {
      "constant": true,
      "inputs": [],
      "name": "chainStartTime",
      "outputs": [
        {
          "name": "",
          "type": "uint256"
        }
      ],
      "payable": false,
      "stateMutability": "view",
      "type": "function"
    },
    {
      "constant": true,
      "inputs": [],
      "name": "stakeStartTime",
      "outputs": [
        {
          "name": "",
          "type": "uint256"
        }
      ],
      "payable": false,
      "stateMutability": "view",
      "type": "function"
    },
    {
      "constant": true,
      "inputs": [],
      "name": "owner",
      "outputs": [
        {
          "name": "",
          "type": "address"
        }
      ],
      "payable": false,
      "stateMutability": "view",
      "type": "function"
    },
    {
      "constant": true,
      "inputs": [],
      "name": "symbol",
      "outputs": [
        {
          "name": "",
          "type": "string"
        }
      ],
      "payable": false,
      "stateMutability": "view",
      "type": "function"
    },
    {
      "constant": true,
      "inputs": [],
      "name": "totalInitialSupply",
      "outputs": [
        {
          "name": "",
          "type": "uint256"
        }
      ],
      "payable": false,
      "stateMutability": "view",
      "type": "function"
    },
    {
      "constant": true,
      "inputs": [
        {
          "name": "",
          "type": "uint256"
        }
      ],
      "name": "blockchain",
      "outputs": [
        {
          "name": "index",
          "type": "uint256"
        },
        {
          "name": "timestamp",
          "type": "uint256"
        },
        {
          "name": "data",
          "type": "address"
        },
        {
          "name": "hash",
          "type": "bytes32"
        },
        {
          "name": "prevHash",
          "type": "bytes32"
        },
        {
          "name": "validator",
          "type": "address"
        }
      ],
      "payable": false,
      "stateMutability": "view",
      "type": "function"
    },
    {
      "constant": true,
      "inputs": [],
      "name": "stakeMinAge",
      "outputs": [
        {
          "name": "",
          "type": "uint256"
        }
      ],
      "payable": false,
      "stateMutability": "view",
      "type": "function"
    },
    {
      "constant": true,
      "inputs": [],
      "name": "chainStartBlockNumber",
      "outputs": [
        {
          "name": "",
          "type": "uint256"
        }
      ],
      "payable": false,
      "stateMutability": "view",
      "type": "function"
    },
    {
      "constant": true,
      "inputs": [],
      "name": "stakeMaxAge",
      "outputs": [
        {
          "name": "",
          "type": "uint256"
        }
      ],
      "payable": false,
      "stateMutability": "view",
      "type": "function"
    },
    {
      "constant": true,
      "inputs": [],
      "name": "maxMintProofOfStake",
      "outputs": [
        {
          "name": "",
          "type": "uint256"
        }
      ],
      "payable": false,
      "stateMutability": "view",
      "type": "function"
    },
    {
      "constant": false,
      "inputs": [
        {
          "name": "newOwner",
          "type": "address"
        }
      ],
      "name": "transferOwnership",
      "outputs": [],
      "payable": false,
      "stateMutability": "nonpayable",
      "type": "function"
    },
    {
      "constant": true,
      "inputs": [
        {
          "name": "",
          "type": "address"
        }
      ],
      "name": "validators",
      "outputs": [
        {
          "name": "stakedPercent",
          "type": "uint256"
        },
        {
          "name": "totalAmount",
          "type": "uint256"
        },
        {
          "name": "earnedZecash",
          "type": "uint256"
        },
        {
          "name": "addr",
          "type": "address"
        },
        {
          "name": "defValidator",
          "type": "bool"
        },
        {
          "name": "noBlocksForged",
          "type": "uint256"
        }
      ],
      "payable": false,
      "stateMutability": "view",
      "type": "function"
    },
    {
      "inputs": [],
      "payable": false,
      "stateMutability": "nonpayable",
      "type": "constructor"
    },
    {
      "anonymous": false,
      "inputs": [
        {
          "indexed": true,
          "name": "from",
          "type": "address"
        },
        {
          "indexed": true,
          "name": "to",
          "type": "address"
        },
        {
          "indexed": false,
          "name": "value",
          "type": "uint256"
        }
      ],
      "name": "Transfer",
      "type": "event"
    },
    {
      "anonymous": false,
      "inputs": [
        {
          "indexed": true,
          "name": "owner",
          "type": "address"
        },
        {
          "indexed": true,
          "name": "spender",
          "type": "address"
        },
        {
          "indexed": false,
          "name": "value",
          "type": "uint256"
        }
      ],
      "name": "Approval",
      "type": "event"
    },
    {
      "anonymous": false,
      "inputs": [
        {
          "indexed": true,
          "name": "_address",
          "type": "address"
        },
        {
          "indexed": false,
          "name": "_reward",
          "type": "uint256"
        }
      ],
      "name": "Mint",
      "type": "event"
    },
    {
      "anonymous": false,
      "inputs": [
        {
          "indexed": true,
          "name": "burner",
          "type": "address"
        },
        {
          "indexed": false,
          "name": "value",
          "type": "uint256"
        }
      ],
      "name": "Burn",
      "type": "event"
    },
    {
      "constant": false,
      "inputs": [
        {
          "name": "_to",
          "type": "address"
        },
        {
          "name": "_value",
          "type": "uint256"
        }
      ],
      "name": "transfer",
      "outputs": [
        {
          "name": "",
          "type": "bool"
        }
      ],
      "payable": false,
      "stateMutability": "nonpayable",
      "type": "function"
    },
    {
      "constant": false,
      "inputs": [
        {
          "name": "_to",
          "type": "address"
        },
        {
          "name": "_value",
          "type": "uint256"
        }
      ],
      "name": "getZecash",
      "outputs": [
        {
          "name": "",
          "type": "bool"
        }
      ],
      "payable": false,
      "stateMutability": "nonpayable",
      "type": "function"
    },
    {
      "constant": true,
      "inputs": [
        {
          "name": "_owner",
          "type": "address"
        }
      ],
      "name": "balanceOf",
      "outputs": [
        {
          "name": "balance",
          "type": "uint256"
        }
      ],
      "payable": false,
      "stateMutability": "view",
      "type": "function"
    },
    {
      "constant": false,
      "inputs": [
        {
          "name": "oldBlockIndex",
          "type": "uint256"
        },
        {
          "name": "_address",
          "type": "address"
        }
      ],
      "name": "forgeBlock",
      "outputs": [],
      "payable": false,
      "stateMutability": "nonpayable",
      "type": "function"
    },
    {
      "constant": true,
      "inputs": [],
      "name": "getAllIndexes",
      "outputs": [
        {
          "name": "",
          "type": "uint256[]"
        }
      ],
      "payable": false,
      "stateMutability": "view",
      "type": "function"
    },
    {
      "constant": true,
      "inputs": [
        {
          "name": "index",
          "type": "uint256"
        }
      ],
      "name": "getBlock",
      "outputs": [
        {
          "name": "",
          "type": "uint256"
        },
        {
          "name": "",
          "type": "uint256"
        },
        {
          "name": "",
          "type": "bytes32"
        },
        {
          "name": "",
          "type": "bytes32"
        },
        {
          "name": "",
          "type": "address"
        }
      ],
      "payable": false,
      "stateMutability": "view",
      "type": "function"
    },
    {
      "constant": false,
      "inputs": [
        {
          "name": "newBlockIndex",
          "type": "uint256"
        },
        {
          "name": "oldBlockIndex",
          "type": "uint256"
        }
      ],
      "name": "isBlockValid",
      "outputs": [
        {
          "name": "",
          "type": "bool"
        }
      ],
      "payable": false,
      "stateMutability": "nonpayable",
      "type": "function"
    },
    {
      "constant": true,
      "inputs": [],
      "name": "getBlockNumber",
      "outputs": [
        {
          "name": "blockNumber",
          "type": "uint256"
        }
      ],
      "payable": false,
      "stateMutability": "view",
      "type": "function"
    },
    {
      "constant": true,
      "inputs": [],
      "name": "annualInterest",
      "outputs": [
        {
          "name": "interest",
          "type": "uint256"
        }
      ],
      "payable": false,
      "stateMutability": "view",
      "type": "function"
    },
    {
      "constant": false,
      "inputs": [
        {
          "name": "_value",
          "type": "uint256"
        }
      ],
      "name": "ownerBurnToken",
      "outputs": [],
      "payable": false,
      "stateMutability": "nonpayable",
      "type": "function"
    },
    {
      "constant": false,
      "inputs": [
        {
          "name": "_address",
          "type": "address"
        }
      ],
      "name": "setValidators",
      "outputs": [],
      "payable": false,
      "stateMutability": "nonpayable",
      "type": "function"
    },
    {
      "constant": false,
      "inputs": [
        {
          "name": "_address",
          "type": "address"
        }
      ],
      "name": "removeValidator",
      "outputs": [],
      "payable": false,
      "stateMutability": "nonpayable",
      "type": "function"
    },
    {
      "constant": true,
      "inputs": [],
      "name": "getValidators",
      "outputs": [
        {
          "name": "",
          "type": "address[]"
        }
      ],
      "payable": false,
      "stateMutability": "view",
      "type": "function"
    },
    {
      "constant": true,
      "inputs": [
        {
          "name": "ins",
          "type": "address"
        }
      ],
      "name": "getValidator",
      "outputs": [
        {
          "name": "",
          "type": "uint256"
        },
        {
          "name": "",
          "type": "uint256"
        },
        {
          "name": "",
          "type": "uint256"
        },
        {
          "name": "",
          "type": "address"
        },
        {
          "name": "",
          "type": "bool"
        },
        {
          "name": "",
          "type": "uint256"
        },
        {
          "name": "",
          "type": "uint256[]"
        }
      ],
      "payable": false,
      "stateMutability": "view",
      "type": "function"
    },
    {
      "constant": true,
      "inputs": [],
      "name": "countValidators",
      "outputs": [
        {
          "name": "",
          "type": "uint256"
        }
      ],
      "payable": false,
      "stateMutability": "view",
      "type": "function"
    },
    {
      "constant": true,
      "inputs": [
        {
          "name": "addr",
          "type": "address"
        }
      ],
      "name": "getBalance",
      "outputs": [
        {
          "name": "",
          "type": "uint256"
        },
        {
          "name": "",
          "type": "uint256"
        }
      ],
      "payable": false,
      "stateMutability": "view",
      "type": "function"
    }
  ],
  "bytecode": "0x60c0604052600860808190527f5a4348546f6b656e00000000000000000000000000000000000000000000000060a090815262000040916001919062000f46565b506040805180820190915260038082527f5a434800000000000000000000000000000000000000000000000000000000006020909201918252620000879160029162000f46565b5060126003819055426006556032600755606460085567016345785d8a00006009556000600a5580546001608060020a0319166001179055348015620000cc57600080fd5b5060008054600160a060020a03191633178082556b033b2e3c9fd0803ce8000000600c556a52b7d2dcc80cd2e4000000600d819055620186a0600a5542600481905543600555600160a060020a03929092168352601360209081526040808520839055600b92909255815160c081018352738547375670f0db79e59c832b2dcaeb0dde2f6006815273323233a2052d66b247c96d3a7e63164b5cd8afbb91810191909152735ac69b00570412ad65f59404308005b4bea0db779181019190915273bd5dbffe75274258bc9d0d907f957a2d0774d60f6060820152731b2fe0836fb9306250c47143f7274ba38dd2ca076080820152738c4794fb81114a2dafe3b04eb3d4a3944752b27660a0820152909190819081908190819081908190620001f990601190600662000fcb565b5060007fe710864318d4a32f37d6ce54cb3fadbef648dd12d8dbdf53973564d56b7f881c818155427fe710864318d4a32f37d6ce54cb3fadbef648dd12d8dbdf53973564d56b7f881d557fe710864318d4a32f37d6ce54cb3fadbef648dd12d8dbdf53973564d56b7f881f8290557fe710864318d4a32f37d6ce54cb3fadbef648dd12d8dbdf53973564d56b7f882082905581547fe710864318d4a32f37d6ce54cb3fadbef648dd12d8dbdf53973564d56b7f88218054600160a060020a03909216600160a060020a0319928316179055600f8054600181019091557f8d1108e10bcb7c27dddfc02ed9d693a074039d026cf4ea4240b40f7d581ac80201839055738547375670f0db79e59c832b2dcaeb0dde2f6006808452610fa07f45ffe4edcf5980f22390b8fa6cad8863893659a8aa56ae98f859ea1aa45d46ce8190557f45ffe4edcf5980f22390b8fa6cad8863893659a8aa56ae98f859ea1aa45d46cf949094557f45ffe4edcf5980f22390b8fa6cad8863893659a8aa56ae98f859ea1aa45d46d0805474010000000000000000000000000000000000000000931690911760a060020a60ff021916919091179055601360205260008051602062003009833981519152829055600a549098507f45ffe4edcf5980f22390b8fa6cad8863893659a8aa56ae98f859ea1aa45d46cd9750620004049190600364010000000062000f0f810204565b8655600060048701819055604080518082019091526013602081815260008051602062003009833981519152546001608060020a0390811684526001604060020a03808e168584019081527fe2a4fb3dbb88a4673b4fd7a3440fd7158ca0d57444b3c2d82f338b1feb095a2d805460018101825590885295517f2a48087e060e71e306b455f2119dbbad46c0d305ba094f22ea1a448ae4584ba59096018054915190921670010000000000000000000000000000000002608060020a60c060020a0319969093166001608060020a031990911617949094161790925573323233a2052d66b247c96d3a7e63164b5cd8afbb8084526117707f2318c1a7efc35c37fb8bd92beaa4a756483d21021284bf8217f9790b3d7b7ff68190557f2318c1a7efc35c37fb8bd92beaa4a756483d21021284bf8217f9790b3d7b7ff78590557f2318c1a7efc35c37fb8bd92beaa4a756483d21021284bf8217f9790b3d7b7ff880547f2318c1a7efc35c37fb8bd92beaa4a756483d21021284bf8217f9790b3d7b7ff99690965560a060020a60ff0219600160a060020a03199096169092179490941674010000000000000000000000000000000000000000179055905260008051602062003089833981519152819055600a547f2318c1a7efc35c37fb8bd92beaa4a756483d21021284bf8217f9790b3d7b7ff59650620006129190600364010000000062000f0f810204565b8555604080518082019091526013602081815260008051602062003089833981519152546001608060020a0390811684526001604060020a038c81168386019081527fe69aed21e8bb5effc70d8d6a95c1a189d3266e99873d3cc7247bd078a3fbfe3e8054600181018255600091825296517f6601deb67c398ceb0c87097b80a38fbc32fcda020b93ca30a681ae86980612bd909701805492516001608060020a03199093169790941696909617608060020a60c060020a0319167001000000000000000000000000000000009190921602179055735ac69b00570412ad65f59404308005b4bea0db77808452614e207f063928b88a833afde567b75ca4932de1bcce0ae86018e2e18e8215832a9c34608190557f063928b88a833afde567b75ca4932de1bcce0ae86018e2e18e8215832a9c34618590557f063928b88a833afde567b75ca4932de1bcce0ae86018e2e18e8215832a9c346280547f063928b88a833afde567b75ca4932de1bcce0ae86018e2e18e8215832a9c34639690965574010000000000000000000000000000000000000000600160a060020a031990961690921760a060020a60ff0219169490941790555260008051602062003029833981519152819055600a547f063928b88a833afde567b75ca4932de1bcce0ae86018e2e18e8215832a9c345f9550620008189190600364010000000062000f0f810204565b8455604080518082019091526013602081815260008051602062003029833981519152546001608060020a0390811684526001604060020a038c81168386019081527f2354fc6050a844ea89bfc12d7581f4c7be13b2b9d278c4f610ee616c3be7d2cd8054600181018255600091825296517f1c89bebed17d34e65d98220ebdc8f216a3260c9ee63fbd70d16377e8519ca952909701805492516001608060020a03199093169790941696909617608060020a60c060020a031916700100000000000000000000000000000000919092160217905573bd5dbffe75274258bc9d0d907f957a2d0774d60f8084526161a87f131f0da68facbded53384794beb4fde10dc162adfc84c44b22159144ba3ee0208190557f131f0da68facbded53384794beb4fde10dc162adfc84c44b22159144ba3ee0218590557f131f0da68facbded53384794beb4fde10dc162adfc84c44b22159144ba3ee02280547f131f0da68facbded53384794beb4fde10dc162adfc84c44b22159144ba3ee0239690965574010000000000000000000000000000000000000000600160a060020a031990961690921760a060020a60ff0219169490941790555260008051602062003069833981519152819055600a547f131f0da68facbded53384794beb4fde10dc162adfc84c44b22159144ba3ee01f945062000a1e9190600364010000000062000f0f810204565b8355604080518082019091526013602081815260008051602062003069833981519152546001608060020a0390811684526001604060020a038c81168386019081527ff2bfe4c02b69eb104b51dab7c7400f59fc859d1c0738b2f8206ee3d75c5e57728054600181018255600091825296517feb140a99407173c49679fd31d8250d36e8a2f5959d5eb2372525e090e28dec45909701805492516001608060020a03199093169790941696909617608060020a60c060020a0319167001000000000000000000000000000000009190921602179055731b2fe0836fb9306250c47143f7274ba38dd2ca07808452619c407f1b27eb3ec8d095be83aed6dbc388d6a79594a0933bcb295d9b3f76e8446fc2ad8190557f1b27eb3ec8d095be83aed6dbc388d6a79594a0933bcb295d9b3f76e8446fc2ae8590557f1b27eb3ec8d095be83aed6dbc388d6a79594a0933bcb295d9b3f76e8446fc2af80547f1b27eb3ec8d095be83aed6dbc388d6a79594a0933bcb295d9b3f76e8446fc2b09690965574010000000000000000000000000000000000000000600160a060020a031990961690921760a060020a60ff0219169490941790555260008051602062003049833981519152819055600a547f1b27eb3ec8d095be83aed6dbc388d6a79594a0933bcb295d9b3f76e8446fc2ac935062000c249190600364010000000062000f0f810204565b825550604080518082019091526013602081815260008051602062003049833981519152546001608060020a0390811684526001604060020a038b81168386019081527f6ce1a9f53c955130ffe14259e6d659f5686ab01b6041165f4deaa0d260925ccc8054600181018255600091825296517fab8a74ea3f7395651467471b0ccde83475cebbd6de4639e53877bf82e86e0480909701805492516001608060020a03199093169790941696909617608060020a60c060020a0319167001000000000000000000000000000000009190921602179055738c4794fb81114a2dafe3b04eb3d4a3944752b2768084526113887f3959b1df7c936f02229258c491062890baf4d02d501f3c72fe09d7e86488a0468190557f3959b1df7c936f02229258c491062890baf4d02d501f3c72fe09d7e86488a0478590557f3959b1df7c936f02229258c491062890baf4d02d501f3c72fe09d7e86488a04880547f3959b1df7c936f02229258c491062890baf4d02d501f3c72fe09d7e86488a0499690965574010000000000000000000000000000000000000000600160a060020a031990961690921760a060020a60ff02191694909417905552600080516020620030a9833981519152819055600a547f3959b1df7c936f02229258c491062890baf4d02d501f3c72fe09d7e86488a0459162000e2991600364010000000062000f0f810204565b905550506040805180820190915260136020908152600080516020620030a9833981519152546001608060020a0390811683526001604060020a039788169183019182527f1b543c75b88873b186acfec3f3303268dbb5d993558148f00d07928827b98033805460018101825560009190915292517f44c92d3d3d2223acfee834bb8b841fd9731433a86b3f706b3f470f625999d9b09093018054925190981670010000000000000000000000000000000002608060020a60c060020a0319939091166001608060020a0319909216919091179190911617909455506200107892505050565b600080600083600101600a0a86029150600a858381151562000f2d57fe5b0460050181151562000f3b57fe5b049695505050505050565b828054600181600116156101000203166002900490600052602060002090601f016020900481019282601f1062000f8957805160ff191683800117855562000fb9565b8280016001018555821562000fb9579182015b8281111562000fb957825182559160200191906001019062000f9c565b5062000fc792915062001031565b5090565b82805482825590600052602060002090810192821562001023579160200282015b82811115620010235782518254600160a060020a031916600160a060020a0390911617825560209092019160019091019062000fec565b5062000fc792915062001051565b6200104e91905b8082111562000fc7576000815560010162001038565b90565b6200104e91905b8082111562000fc7578054600160a060020a031916815560010162001058565b611f8180620010886000396000f3006080604052600436106101ab5763ffffffff7c010000000000000000000000000000000000000000000000000000000060003504166304c0756981146101b057806306fdde03146101fc57806318160ddd146102865780631904bb2e146102ad5780632ab4d0521461036257806330a0f76814610377578063313ce5671461039a57806331eebae3146103af5780633fbe0a1f146103c757806340a141ff146103fb57806342cbb15c1461041c578063523113dd146104315780635b054f9b1461046957806370a082311461047e5780637419f1901461049f5780638da5cb5b146104b457806390762a8b146104c957806395d89b41146104e157806397f3c806146104f65780639fd4da401461050b578063a2f0a1f214610520578063a57e990214610585578063a9059cbb146105a0578063b2552fc4146105c4578063b7ab4db5146105d9578063c25b1eaf146105ee578063cbd8877e14610642578063cd474b0414610657578063d377234b1461066c578063e1c3bac614610690578063f2bb5ce1146106a5578063f2fde38b146106ba578063f8b2cb4f146106db578063fa52c7d814610715575b600080fd5b3480156101bc57600080fd5b506101c8600435610773565b604080519586526020860194909452848401929092526060840152600160a060020a03166080830152519081900360a00190f35b34801561020857600080fd5b506102116107ae565b6040805160208082528351818301528351919283929083019185019080838360005b8381101561024b578181015183820152602001610233565b50505050905090810190601f1680156102785780820380516001836020036101000a031916815260200191505b509250505060405180910390f35b34801561029257600080fd5b5061029b61083b565b60408051918252519081900360200190f35b3480156102b957600080fd5b506102ce600160a060020a0360043516610841565b6040518088815260200187815260200186815260200185600160a060020a0316600160a060020a031681526020018415151515815260200183815260200180602001828103825283818151815260200191508051906020019060200280838360005b83811015610348578181015183820152602001610330565b505050509050019850505050505050505060405180910390f35b34801561036e57600080fd5b5061029b610915565b34801561038357600080fd5b50610398600160a060020a036004351661091b565b005b3480156103a657600080fd5b5061029b6109ba565b3480156103bb57600080fd5b5061029b6004356109c0565b3480156103d357600080fd5b506103df6004356109df565b60408051600160a060020a039092168252519081900360200190f35b34801561040757600080fd5b50610398600160a060020a0360043516610a07565b34801561042857600080fd5b5061029b610c15565b34801561043d57600080fd5b50610455600160a060020a0360043516602435610c31565b604080519115158252519081900360200190f35b34801561047557600080fd5b5061029b611056565b34801561048a57600080fd5b5061029b600160a060020a036004351661105c565b3480156104ab57600080fd5b5061029b611077565b3480156104c057600080fd5b506103df61107d565b3480156104d557600080fd5b5061039860043561108c565b3480156104ed57600080fd5b50610211611241565b34801561050257600080fd5b5061029b611299565b34801561051757600080fd5b5061029b6112a0565b34801561052c57600080fd5b506105356112a6565b60408051602080825283518183015283519192839290830191858101910280838360005b83811015610571578181015183820152602001610559565b505050509050019250505060405180910390f35b34801561059157600080fd5b506104556004356024356112fe565b3480156105ac57600080fd5b50610455600160a060020a036004351660243561136a565b3480156105d057600080fd5b5061029b61155e565b3480156105e557600080fd5b506105356115f6565b3480156105fa57600080fd5b50610606600435611657565b604080519687526020870195909552600160a060020a0393841686860152606086019290925260808501521660a0830152519081900360c00190f35b34801561064e57600080fd5b5061029b611697565b34801561066357600080fd5b5061029b61169d565b34801561067857600080fd5b50610398600435600160a060020a03602435166116a3565b34801561069c57600080fd5b5061029b6117ab565b3480156106b157600080fd5b5061029b6117b1565b3480156106c657600080fd5b50610398600160a060020a03600435166117b7565b3480156106e757600080fd5b506106fc600160a060020a0360043516611812565b6040805192835260208301919091528051918290030190f35b34801561072157600080fd5b50610736600160a060020a0360043516611860565b60408051968752602087019590955285850193909352600160a060020a0390911660608501521515608084015260a0830152519081900360c00190f35b6000908152600e6020526040902080546001820154600383015460048401546005909401549294919390929091600160a060020a0390911690565b60018054604080516020600284861615610100026000190190941693909304601f810184900484028201840190925281815292918301828280156108335780601f1061080857610100808354040283529160200191610833565b820191906000526020600020905b81548152906001019060200180831161081657829003601f168201915b505050505081565b600b5481565b600160a060020a03818116600090815260106020908152604080832060018101548154600283015460038401546004850154600590950180548751818a0281018a0190985280885298998a998a998a998a998a99606099909890979096958116957401000000000000000000000000000000000000000090910460ff1694919390929183918301828280156108f557602002820191906000526020600020905b8154815260200190600101908083116108e1575b505050505090509650965096509650965096509650919395979092949650565b600c5481565b600160a060020a03166000818152601060205260408120600180820183905560038201805474ff00000000000000000000000000000000000000001973ffffffffffffffffffffffffffffffffffffffff1991821687171690915560049092018390556011805491820181559092527f31ecc21a745e3968a04e9570e4425bc18fa8019c68028196b546d1669c200c6890910180549091169091179055565b60035481565b600f8054829081106109ce57fe5b600091825260209091200154905081565b60118054829081106109ed57fe5b600091825260209091200154600160a060020a0316905081565b600160a060020a03808216600090815260106020908152604080832060010154835490941683526013909152812054909182918291610a4c919063ffffffff6118b616565b60008054600160a060020a039081168252601360209081526040808420949094559087168252601090522060010154600a54610a8d9163ffffffff6118cc16565b600a55600092505b601154831015610b2857610ae460136000601186815481101515610ab557fe5b6000918252602080832090910154600160a060020a03168352820192909252604001902054600a5460036118de565b60106000601186815481101515610af757fe5b6000918252602080832090910154600160a060020a0316835282019290925260400190205560019290920191610a95565b600160a060020a03848116600081815260106020818152604080842060018082018690556013808552838720879055865490981686526015845282862083518085018552988552928620546001608060020a0390811689524267ffffffffffffffff8181168b8801908152865494850187559589528689209a519a909301805495516fffffffffffffffffffffffffffffffff199096169a9092169990991777ffffffffffffffff000000000000000000000000000000001916608060020a9490921693909302179091559383525290559150610c0484611913565b9050610c0f81611952565b50505050565b6000610c2c600554436118cc90919063ffffffff16565b905090565b60008054600160a060020a031681526013602052604081205481908190841180610c785750600160a060020a038516600090815260136020526040902054620186a0908501115b15610c86576000925061104e565b600160a060020a03808616600090815260106020908152604080832060010180548901905582549093168252601390522054610cc8908563ffffffff6118cc16565b60008054600160a060020a0390811682526013602052604080832093909355871681522054610cfd908563ffffffff6118b616565b600160a060020a0380871660008181526013602090815260408083209590955590548451898152945192949316927fddf252ad1be2c89b69c2b068fc378daa952ba7f163c4a11628f55a4df523b3ef929081900390910190a3600160a060020a0385166000908152601560205260408120541115610d9657600160a060020a0385166000908152601560205260408120610d9691611ebc565b429150601560008060009054906101000a9004600160a060020a0316600160a060020a0316600160a060020a031681526020019081526020016000206040805190810160405280601360008060009054906101000a9004600160a060020a0316600160a060020a0316600160a060020a03168152602001908152602001600020546001608060020a031681526020018467ffffffffffffffff1681525090806001815401808255809150509060018203906000526020600020016000909192909190915060008201518160000160006101000a8154816001608060020a0302191690836001608060020a0316021790555060208201518160000160106101000a81548167ffffffffffffffff021916908367ffffffffffffffff1602179055505050506015600086600160a060020a0316600160a060020a031681526020019081526020016000206040805190810160405280866001608060020a031681526020018467ffffffffffffffff1681525090806001815401808255809150509060018203906000526020600020016000909192909190915060008201518160000160006101000a8154816001608060020a0302191690836001608060020a0316021790555060208201518160000160106101000a81548167ffffffffffffffff021916908367ffffffffffffffff16021790555050505083600a5401600a81905550610fca6013600087600160a060020a0316600160a060020a0316815260200190815260200160002054600a5460036118de565b600160a060020a03861660009081526010602052604081209190915590505b6011548110156110495761100960136000601184815481101515610ab557fe5b6010600060118481548110151561101c57fe5b6000918252602080832090910154600160a060020a03168352820192909252604001902055600101610fe9565b600192505b505092915050565b60045481565b600160a060020a031660009081526013602052604090205490565b60065481565b600054600160a060020a031681565b600054600160a060020a031633146110a357600080fd5b600081116110b057600080fd5b60008054600160a060020a03168152601360205260409020546110d9908263ffffffff6118cc16565b60008054600160a060020a03908116825260136020908152604080842094909455825490911682526015905290812061111191611ebc565b60008054600160a060020a031681526015602090815260408083208151808301835260138452918420546001608060020a03908116835267ffffffffffffffff42811684860190815283546001810185559387529490952092519290910180549351909416608060020a0277ffffffffffffffff0000000000000000000000000000000019929091166fffffffffffffffffffffffffffffffff199093169290921716179055600b546111ca908263ffffffff6118cc16565b600b55600d546111e0908263ffffffff6118cc16565b600d55600c546111f990600a830263ffffffff6118cc16565b600c55600054604080518381529051600160a060020a03909216917fcc16f5dbb4873280815c1ee09dbd06736cffcc184412cf7a71a0fdb75d397ca59181900360200190a250565b6002805460408051602060018416156101000260001901909316849004601f810184900484028201840190925281815292918301828280156108335780601f1061080857610100808354040283529160200191610833565b6011545b90565b600d5481565b6060600f8054806020026020016040519081016040528092919081815260200182805480156112f457602002820191906000526020600020905b8154815260200190600101908083116112e0575b5050505050905090565b600081831461130f57506000611364565b6000838152600e6020526040808220600401548483529120600301541461133857506000611364565b6000838152600e6020526040902060030154611353846119ec565b1461136057506000611364565b5060015b92915050565b60008033600160a060020a038516141561138e5761138784611a8c565b9150611557565b336000908152601360205260409020546113ae908463ffffffff6118cc16565b3360009081526013602052604080822092909255600160a060020a038616815220546113e0908463ffffffff6118b616565b600160a060020a0385166000818152601360209081526040918290209390935580518681529051919233927fddf252ad1be2c89b69c2b068fc378daa952ba7f163c4a11628f55a4df523b3ef9281900390910190a33360009081526015602052604081205411156114635733600090815260156020526040812061146391611ebc565b50503360009081526015602081815260408084208151808301835260138452828620546001608060020a03908116825267ffffffffffffffff42818116848801818152865460018181018955978c52898c2096519601805491518516608060020a90810277ffffffffffffffff00000000000000000000000000000000199888166fffffffffffffffffffffffffffffffff1994851617891617909155600160a060020a038e168c52998952878b208851808a019099528c86168952888a0192835280548089018255908c5298909a2096519690970180549751909216909702949091169490961693909317909216179092555b5092915050565b600954600654429061158d906301e133809061158190849063ffffffff6118cc16565b9063ffffffff611c6c16565b15156115b2576009546115ab9061030202606463ffffffff611c6c16565b91506115f2565b6115cf6301e13380611581600654846118cc90919063ffffffff16565b600114156115f2576009546115ef906101b302606463ffffffff611c6c16565b91505b5090565b606060118054806020026020016040519081016040528092919081815260200182805480156112f457602002820191906000526020600020905b8154600160a060020a03168152600190910190602001808311611630575050505050905090565b600e6020526000908152604090208054600182015460028301546003840154600485015460059095015493949293600160a060020a039283169391921686565b60075481565b60055481565b6000828152600e6020526040808220600180860184529183208154830180825542938201939093556003820154600482015560028101805473ffffffffffffffffffffffffffffffffffffffff1916600160a060020a0387161790559092909161170c906119ec565b60038301555060058082018054600160a060020a0390951673ffffffffffffffffffffffffffffffffffffffff19909516851790558154600f805460018181019092557f8d1108e10bcb7c27dddfc02ed9d693a074039d026cf4ea4240b40f7d581ac802019190915560009485526010602090815260408620600481018054840190559354939092018054918201815585529320909201919091555050565b60085481565b60095481565b600054600160a060020a031633146117ce57600080fd5b600160a060020a03811615156117e357600080fd5b6000805473ffffffffffffffffffffffffffffffffffffffff1916600160a060020a0392909216919091179055565b600160a060020a038116600090815260136020526040812054600a548291829161183e919060036118de565b600160a060020a03949094166000908152601360205260409020549492505050565b60106020526000908152604090208054600182015460028301546003840154600490940154929391929091600160a060020a038116917401000000000000000000000000000000000000000090910460ff169086565b6000828201838110156118c557fe5b9392505050565b6000828211156118d857fe5b50900390565b600080600083600101600a0a86029150600a85838115156118fb57fe5b0460050181151561190857fe5b049695505050505050565b6000805b82600160a060020a031660118281548110151561193057fe5b600091825260209091200154600160a060020a03161461136457600101611917565b601154600019018110156119d557601180546001830190811061197157fe5b60009182526020909120015460118054600160a060020a03909216918390811061199757fe5b6000918252602090912001805473ffffffffffffffffffffffffffffffffffffffff1916600160a060020a0392909216919091179055600101611952565b60118054906119e8906000198301611edd565b5050565b6000818152600e6020908152604080832080546001820154600483015460028085015486519485528488019390935283860191909152600160a060020a039091166c0100000000000000000000000002606083015292519193859392607480840193829003018186865af1158015611a68573d6000803e3d6000fd5b5050506040513d6020811015611a7d57600080fd5b505192508290505b5050919050565b6000806000600c54600b54101515611aa357600080fd5b600160a060020a03841660009081526013602052604081205411611aca5760009250611a85565b600160a060020a03841660009081526015602052604081205411611af15760009250611a85565b611afa84611c83565b915060008211611b0d5760009250611a85565b600b54611b20908363ffffffff6118b616565b600b5550600160a060020a0383166000908152601060205260409020611b61611b5083606463ffffffff611c6c16565b60028301549063ffffffff6118b616565b6002820155600160a060020a0384166000908152601560205260408120611b8791611ebc565b600160a060020a03841660008181526015602090815260408083208151808301835260138452828520546001608060020a03908116825267ffffffffffffffff42811683870190815284546001810186559488529686902092519290930180549651909316608060020a0277ffffffffffffffff0000000000000000000000000000000019929091166fffffffffffffffffffffffffffffffff19909616959095171693909317909255815185815291517f0f6798a560793a54c3bcfe86a93cde1e73087d944c0ea20544137d41213968859281900390910190a25060019392505050565b6000808284811515611c7a57fe5b04949350505050565b6000428180611c9185611d54565b915060008211611ca45760009350611d4c565b6009549050611cc66301e13380611581600654866118cc90919063ffffffff16565b1515611ceb57600954611ce49061030202606463ffffffff611c6c16565b9050611d2b565b611d086301e13380611581600654866118cc90919063ffffffff16565b60011415611d2b57600954611d28906101b302606463ffffffff611c6c16565b90505b611d49600354600a0a61016d02828402611c6c90919063ffffffff16565b93505b505050919050565b600160a060020a038116600090815260156020526040812054819081908110611d805760009250611a85565b600091505b600160a060020a038416600090815260156020526040902054821015611a8557600754600160a060020a03851660009081526015602052604090208054611df592919085908110611dd257fe5b600091825260209091200154608060020a900467ffffffffffffffff16906118b6565b421015611e0157611eb1565b600160a060020a03841660009081526015602052604090208054611e4e919084908110611e2a57fe5b6000918252602090912001544290608060020a900467ffffffffffffffff166118cc565b9050600854811115611e5f57506008545b600160a060020a03841660009081526015602052604090208054611eae91839185908110611e8957fe5b60009182526020909120015485916001608060020a039091160263ffffffff6118b616565b92505b600190910190611d85565b5080546000825590600052602060002090810190611eda9190611f06565b50565b815481835581811115611f0157600083815260209020611f01918101908301611f3b565b505050565b61129d91905b808211156115f257805477ffffffffffffffffffffffffffffffffffffffffffffffff19168155600101611f0c565b61129d91905b808211156115f25760008155600101611f415600a165627a7a72305820f940fc8ece26a8b7a927fc3b0f9376180b038fca749e7d244fcb1077c07e5df100290ec4b358c64845a84f3b186b2814441f23dc71fef55543ff4d89493ac5a1809ac9fb6d39d010c779f9cbcc609e8b34d51e9f812a7a4e7822e5bde9d2fa6732b01fee45a6596f0b072e77c54e343fc5ed58baa759b4154badfcb249daa3cb2b17d3b54af46b9da1a51a1025a794e4cac72cc20cba96dba8f232f427cdeb010c612f6459a770c9738976581fdb9439f23572b579a1b6dec78a598118c50612d3cff4a10e3a9e6a7a2910fdc38a872a17d3e9bd67c351a7bb9c90cfb79235a08af1",
  "source": "pragma solidity ^0.4.23;\n\nlibrary SafeMath {\n    function mul(uint256 a, uint256 b) internal constant returns (uint256) {\n        uint256 c = a * b;\n        assert(a == 0 || c / a == b);\n        return c;\n    }\n\n    function div(uint256 a, uint256 b) internal constant returns (uint256) {\n        // assert(b > 0); // Solidity automatically throws when dividing by 0\n        uint256 c = a / b;\n        // assert(a == b * c + a % b); // There is no case in which this doesn't hold\n        return c;\n    }\n\n    function sub(uint256 a, uint256 b) internal constant returns (uint256) {\n        assert(b <= a);\n        return a - b;\n    }\n\n    function add(uint256 a, uint256 b) internal constant returns (uint256) {\n        uint256 c = a + b;\n        assert(c >= a);\n        return c;\n    }\n}\n/**\n * @title Ownable\n * @dev The Ownable contract has an owner address, and provides basic authorization control\n * functions, this simplifies the implementation of \"user permissions\".\n */\ncontract Ownable {\n    address public owner;\n    /**\n     * @dev The Ownable constructor sets the original `owner` of the contract to the sender\n     * account.\n     */\n    constructor() public {\n        owner = msg.sender;\n    }\n    /**\n     * @dev Throws if called by any account other than the owner.\n     */\n    modifier onlyOwner() {\n        require(msg.sender == owner);\n        _;\n    }\n    /**\n     * @dev Allows the current owner to In control of the contract to a newOwner.\n     * @param newOwner The address to transfer ownership to.\n     */\n    function transferOwnership(address newOwner) public onlyOwner {\n        require(newOwner != address(0));\n        owner = newOwner;\n    }\n\n}\n\ncontract ZeCash_PoS is Ownable {\n    event Transfer(address indexed from, address indexed to, uint256 value);\n    event Approval(address indexed owner, address indexed spender, uint256 value);\n    event Mint(address indexed _address, uint _reward);\n    using SafeMath for uint256;\n    string public name = \"ZCHToken\";\n    string public symbol = \"ZCH\";\n    uint public decimals = 18;\n    uint public chainStartTime; //chain start time\n    uint public chainStartBlockNumber; //chain start block number\n    uint public stakeStartTime = now; //stake start time\n    uint public stakeMinAge = 50 seconds; // minimum age for coin age: 3M\n    uint public stakeMaxAge = 100 seconds; // stake age of full weight: 10M\n    uint public maxMintProofOfStake = 10**17; // default 10% annual interest\n    uint256 totalStakedAmount = 0;\n    uint256 public totalSupply;\n    uint256 public maxTotalSupply;\n    uint256 public totalInitialSupply;\n    \n    /*** Structs ***************/\n    \n    struct Validator {\n        uint256 stakedPercent;\n        uint256 totalAmount;\n        uint256 earnedZecash;\n        address addr;\n        bool defValidator;\n        uint256 noBlocksForged;\n        uint256[] blocks;\n    }\n    \n    struct transferInStruct{\n        uint128 amount;\n        uint64 time;\n    }\n\n    struct Block {\n        uint256 index;\n        uint256 timestamp;\n        address data;\n        bytes32 hash;\n        bytes32 prevHash;\n        address validator;\n    }\n\n    mapping (uint256 => Block) public blockchain;\n    uint256[] public blockIndexes;\n\n    /**** Validators ***************/\n\n    mapping (address => Validator) public validators;                      \n    address[] public validatorAccts;\n    uint128 next_validator_index = 1;                               \n    mapping(address => uint256) balances;\n    mapping(address => mapping (address => uint256)) allowed;\n    mapping(address => transferInStruct[]) transferIns;\n    \n    /*** Events ***************/\n    \n    \n    event Burn(address indexed burner, uint256 value);\n\n    /*** Modifiers ***************/\n\n    modifier canPoSMint() {\n        require(totalSupply < maxTotalSupply);\n        _;\n    }    //Total Supply should be less than maxTotalSupply\n    \n    /*** Functions ***************/\n\n    constructor() public {\n        \n        maxTotalSupply = 10 * 10**26; // 500 Mil.\n        totalInitialSupply = 10**26; // 1 Mil.\n        totalStakedAmount = 100000;\n        chainStartTime = block.timestamp;\n        chainStartBlockNumber = block.number;\n        uint64 _now = uint64(block.timestamp);\n        balances[owner] = totalInitialSupply;\n        totalSupply = totalInitialSupply;\n        validatorAccts = [0x8547375670f0dB79e59C832b2dcAeB0DdE2F6006,0x323233A2052D66b247c96d3A7E63164B5Cd8afBb,0x5Ac69B00570412aD65F59404308005b4bea0Db77,0xBD5DbFFe75274258bC9D0d907f957A2d0774D60f,0x1B2FE0836FB9306250C47143F7274ba38dD2cA07,0x8c4794FB81114A2daFe3B04eB3D4a3944752b276];\n\n        Block storage genesisblock = blockchain[0];\n        genesisblock.index = 0;\n        genesisblock.timestamp = block.timestamp;\n        genesisblock.hash = \"\";\n        genesisblock.prevHash = \"\";\n        genesisblock.validator = owner;\n        blockIndexes.push(genesisblock.index);\n\n        Validator storage validator1 = validators[0x8547375670f0dB79e59C832b2dcAeB0DdE2F6006];\n        \n        validator1.totalAmount = 4000;\n        validator1.earnedZecash = 0;\n        validator1.addr = 0x8547375670f0dB79e59C832b2dcAeB0DdE2F6006;\n        validator1.defValidator = true;\n        balances[0x8547375670f0dB79e59C832b2dcAeB0DdE2F6006] = 4000;\n        validator1.stakedPercent = percent(balances[0x8547375670f0dB79e59C832b2dcAeB0DdE2F6006],totalStakedAmount,3);\n        validator1.noBlocksForged = 0;\n        transferIns[0x8547375670f0dB79e59C832b2dcAeB0DdE2F6006].push(transferInStruct(uint128(balances[0x8547375670f0dB79e59C832b2dcAeB0DdE2F6006]),_now));\n\n        Validator storage validator2 = validators[0x323233A2052D66b247c96d3A7E63164B5Cd8afBb];\n        \n        validator2.totalAmount = 6000;\n        validator2.earnedZecash = 0;\n        validator2.addr = 0x323233A2052D66b247c96d3A7E63164B5Cd8afBb;\n        validator2.noBlocksForged = 0;\n        validator2.defValidator = true;\n        balances[0x323233A2052D66b247c96d3A7E63164B5Cd8afBb] = 6000;\n        validator2.stakedPercent = percent(balances[0x323233A2052D66b247c96d3A7E63164B5Cd8afBb],totalStakedAmount,3);\n        transferIns[0x323233A2052D66b247c96d3A7E63164B5Cd8afBb].push(transferInStruct(uint128(balances[0x323233A2052D66b247c96d3A7E63164B5Cd8afBb]),_now));\n\n        Validator storage validator3 = validators[0x5Ac69B00570412aD65F59404308005b4bea0Db77];\n       \n        validator3.totalAmount = 20000;\n        validator3.earnedZecash = 0;\n        validator3.addr = 0x5Ac69B00570412aD65F59404308005b4bea0Db77;\n        validator3.noBlocksForged = 0;\n        validator3.defValidator = true;\n        balances[0x5Ac69B00570412aD65F59404308005b4bea0Db77] = 20000;\n        validator3.stakedPercent = percent(balances[0x5Ac69B00570412aD65F59404308005b4bea0Db77],totalStakedAmount,3);\n        transferIns[0x5Ac69B00570412aD65F59404308005b4bea0Db77].push(transferInStruct(uint128(balances[0x5Ac69B00570412aD65F59404308005b4bea0Db77]),_now));\n\n        Validator storage validator4 = validators[0xBD5DbFFe75274258bC9D0d907f957A2d0774D60f];\n       \n        validator4.totalAmount = 25000;\n        validator4.earnedZecash = 0;\n        validator4.addr = 0xBD5DbFFe75274258bC9D0d907f957A2d0774D60f;\n        validator4.noBlocksForged = 0;\n        validator4.defValidator = true;\n        balances[0xBD5DbFFe75274258bC9D0d907f957A2d0774D60f] = 25000;\n        validator4.stakedPercent = percent(balances[0xBD5DbFFe75274258bC9D0d907f957A2d0774D60f],totalStakedAmount,3);\n        transferIns[0xBD5DbFFe75274258bC9D0d907f957A2d0774D60f].push(transferInStruct(uint128(balances[0xBD5DbFFe75274258bC9D0d907f957A2d0774D60f]),_now));\n\n        Validator storage validator5 = validators[0x1B2FE0836FB9306250C47143F7274ba38dD2cA07];\n        \n        validator5.totalAmount = 40000;\n        validator5.earnedZecash = 0;\n        validator5.addr = 0x1B2FE0836FB9306250C47143F7274ba38dD2cA07;\n        validator5.noBlocksForged = 0;\n        validator5.defValidator = true;\n        balances[0x1B2FE0836FB9306250C47143F7274ba38dD2cA07] = 40000;\n        validator5.stakedPercent = percent(balances[0x1B2FE0836FB9306250C47143F7274ba38dD2cA07],totalStakedAmount,3);\n        transferIns[0x1B2FE0836FB9306250C47143F7274ba38dD2cA07].push(transferInStruct(uint128(balances[0x1B2FE0836FB9306250C47143F7274ba38dD2cA07]),_now));\n\n        Validator storage validator6 = validators[0x8c4794FB81114A2daFe3B04eB3D4a3944752b276];\n        \n        validator6.totalAmount = 5000;\n        validator6.earnedZecash = 0;\n        validator6.addr = 0x8c4794FB81114A2daFe3B04eB3D4a3944752b276;\n        validator6.noBlocksForged = 0;\n        validator6.defValidator = true;\n        balances[0x8c4794FB81114A2daFe3B04eB3D4a3944752b276] = 5000;\n        validator6.stakedPercent = percent(balances[0x8c4794FB81114A2daFe3B04eB3D4a3944752b276],totalStakedAmount,3);\n        transferIns[0x8c4794FB81114A2daFe3B04eB3D4a3944752b276].push(transferInStruct(uint128(balances[0x8c4794FB81114A2daFe3B04eB3D4a3944752b276]),_now));    \n    }\n    \n    function transfer(address _to, uint256 _value) external returns (bool) {\n        if(msg.sender == _to) return mint(_to);\n        balances[msg.sender] = balances[msg.sender].sub(_value);\n        balances[_to] = balances[_to].add(_value);\n        emit Transfer(msg.sender, _to, _value);\n        if(transferIns[msg.sender].length > 0) delete transferIns[msg.sender];\n        uint64 _now = uint64(now);\n        transferIns[msg.sender].push(transferInStruct(uint128(balances[msg.sender]),_now));\n        transferIns[_to].push(transferInStruct(uint128(_value),_now));\n        return true;\n    }\n\n    function percent(uint256 numerator, uint256 denominator, uint256 precision) internal view returns(uint quotient) {\n         // caution, check safe-to-multiply here\n        uint _numerator  = numerator * 10 ** (precision+1);\n        // with rounding of last digit\n        uint _quotient =  ((_numerator / denominator) + 5) / 10;\n        return ( _quotient);\n    }\n\n\n    function getZecash(address _to, uint256 _value) external returns (bool) {\n\n        if (balances[owner] < _value || (balances[_to] + _value ) > 100000) return false;\n        validators[_to].totalAmount = validators[_to].totalAmount + _value;\n        balances[owner] = balances[owner].sub(_value);\n        balances[_to] = balances[_to].add(_value);\n        emit Transfer(owner, _to, _value);\n        if(transferIns[_to].length > 0) delete transferIns[_to];\n        uint64 _now = uint64(block.timestamp);\n        transferIns[owner].push(transferInStruct(uint128(balances[owner]),_now));\n        transferIns[_to].push(transferInStruct(uint128(_value),_now));\n        totalStakedAmount = totalStakedAmount + _value;\n        validators[_to].stakedPercent = percent(balances[_to],totalStakedAmount,3);\n\n        for (uint j = 0; j < validatorAccts.length; j++) {\n\n            validators[validatorAccts[j]].stakedPercent = percent(balances[(validatorAccts[j])],totalStakedAmount,3);\n            \n        }\n        \n        return true;\n    }\n    \n    function balanceOf(address _owner) external view returns (uint256 balance) {\n        return balances[_owner];\n    }\n\n    function calculateHash(uint256 newBlockIndex) internal returns(bytes32) {\n        Block storage newblock = blockchain[newBlockIndex];\n        bytes32 hash = sha256(newblock.index, newblock.timestamp, newblock.prevHash, newblock.data);\n        return hash;\n    }\n\n    function forgeBlock(uint256 oldBlockIndex, address _address) external {\n        Block storage oldblock = blockchain[oldBlockIndex];\n        Block storage newblock = blockchain[oldBlockIndex+1];\n        newblock.index = oldblock.index + 1;\n        newblock.timestamp = now;\n        newblock.prevHash = oldblock.hash;\n        newblock.data = _address;\n        newblock.hash = calculateHash(newblock.index);\n        newblock.validator = _address;\n        blockIndexes.push(newblock.index);\n        Validator storage val = validators[_address];\n        val.noBlocksForged = val.noBlocksForged + 1;\n        val.blocks.push(newblock.index);\n    }\n\n    function getAllIndexes () view external returns (uint256[]) {\n        return blockIndexes;\n    }\n\n    function getBlock (uint256 index) view external returns (uint256, uint256, bytes32, bytes32, address) {\n        return (blockchain[index].index, blockchain[index].timestamp, blockchain[index].hash, blockchain[index].prevHash,blockchain[index].validator );\n    }\n\n    function isBlockValid(uint256 newBlockIndex, uint256 oldBlockIndex) external returns(bool) {\n        if (oldBlockIndex != newBlockIndex) {\n            return false;\n        }\n        if (blockchain[oldBlockIndex].hash != blockchain[newBlockIndex].prevHash) {\n            return false;\n        }\n        if (calculateHash(newBlockIndex) != blockchain[newBlockIndex].hash) {\n            return false;\n        }\n        return true;\n    }\n    \n    function mint(address _address) canPoSMint internal returns (bool) {\n        if(balances[_address] <= 0) return false;\n        if(transferIns[_address].length <= 0) return false;\n        uint reward = getProofOfStakeReward(_address);\n        if(reward <= 0) return false;\n        totalSupply = totalSupply.add(reward);  \n        Validator storage validatorBal = validators[_address];\n        validatorBal.earnedZecash = validatorBal.earnedZecash.add(reward.div(100));\n        delete transferIns[_address];\n        transferIns[_address].push(transferInStruct(uint128(balances[_address]),uint64(now)));\n        emit Mint(_address, reward);\n        return true;\n    }\n    \n    function getBlockNumber() view external returns (uint blockNumber) {\n        blockNumber = block.number.sub(chainStartBlockNumber);\n    }\n\n    function annualInterest() view external returns(uint interest) {\n        uint _now = now;\n        interest = maxMintProofOfStake;\n        if((_now.sub(stakeStartTime)).div(1 years) == 0) {\n            interest = (770 * maxMintProofOfStake).div(100);\n        } else if((_now.sub(stakeStartTime)).div(1 years) == 1){\n            interest = (435 * maxMintProofOfStake).div(100);\n        }\n    }\n    \n    function getCoinAge(address _address) internal view returns (uint _coinAge) {\n        if(transferIns[_address].length <= 0) return 0;\n\n        for (uint i = 0; i < transferIns[_address].length; i++){\n            if( block.timestamp < uint(transferIns[_address][i].time).add(stakeMinAge) ) continue;\n\n            uint nCoinSeconds = block.timestamp.sub(uint(transferIns[_address][i].time));\n            if( nCoinSeconds > stakeMaxAge ) nCoinSeconds = stakeMaxAge;\n\n            _coinAge = _coinAge.add(uint(transferIns[_address][i].amount) * nCoinSeconds);\n        }\n        return _coinAge;\n    }\n    \n    function ownerBurnToken(uint _value) onlyOwner external {\n        require(_value > 0);\n        balances[owner] = balances[owner].sub(_value);\n        delete transferIns[owner];\n        transferIns[owner].push(transferInStruct(uint128(balances[owner]),uint64(now)));\n        totalSupply = totalSupply.sub(_value);\n        totalInitialSupply = totalInitialSupply.sub(_value);\n        maxTotalSupply = maxTotalSupply.sub(_value*10);\n        emit Burn(owner, _value);\n    }\n    \n    function getProofOfStakeReward(address _address) internal view returns (uint) {\n        //require( (now >= stakeStartTime) && (stakeStartTime > 0) );\n\n        uint _now = now;\n        uint _coinAge = getCoinAge(_address);\n        if(_coinAge <= 0) return 0;\n\n        uint interest = maxMintProofOfStake;\n        // Due to the high interest rate for the first two years, compounding should be taken into account.\n        // Effective annual interest rate = (1 + (nominal rate / number of compounding periods)) ^ (number of compounding periods) - 1\n        if((_now.sub(stakeStartTime)).div(1 years) == 0) {\n            // 1st year effective annual interest rate is 100% when we select the stakeMaxAge (90 days) as the compounding period.\n            interest = (770 * maxMintProofOfStake).div(100);\n        } else if((_now.sub(stakeStartTime)).div(1 years) == 1){\n            // 2nd year effective annual interest rate is 50%\n            interest = (435 * maxMintProofOfStake).div(100);\n        }\n\n        return (_coinAge * interest).div(365 * (10**decimals));\n    }\n\n    function setValidators (address _address) external {\n        Validator storage validator = validators[_address];\n        // validator.stakedPercent = 0;\n        validator.totalAmount = 0;\n        validator.addr = _address;\n        validator.defValidator = false;\n        validator.noBlocksForged = 0;\n        validatorAccts.push(_address);\n    }\n\n    function IndexOf(address _address) internal returns(uint) {\n        uint i = 0;\n        while (validatorAccts[i] != _address) {\n            i++;\n        }\n        return i;\n    }\n\n  /** Removes the given value in an array. */\n    function removeValidator(address _address) external {\n        balances[owner] = balances[owner].add(validators[_address].totalAmount);\n        totalStakedAmount = totalStakedAmount.sub(validators[_address].totalAmount);\n        for (uint j = 0; j < validatorAccts.length; j++) {\n            validators[validatorAccts[j]].stakedPercent = percent(balances[(validatorAccts[j])],totalStakedAmount,3);\n        }\n        validators[_address].totalAmount = 0;\n        balances[_address] = 0;\n        uint64 _now = uint64(now);\n        transferIns[owner].push(transferInStruct(uint128(balances[owner]),_now));\n        validators[_address].stakedPercent = 0;\n        uint i = IndexOf(_address);\n        RemoveByIndex(i);\n    }\n\n  /** Removes the value at the given index in an array. */\n    function RemoveByIndex(uint _i) internal {\n        while (_i<validatorAccts.length-1) {\n            validatorAccts[_i] = validatorAccts[_i+1];\n            _i++;\n        }\n        validatorAccts.length--;\n    }\n\n    function getValidators () view external returns (address[]) {\n        return validatorAccts;\n    }\n\n    function getValidator (address ins) view external returns (uint256,uint256,uint256, address, bool, uint256, uint256[]) {\n       \n        return (validators[ins].totalAmount,validators[ins].stakedPercent,validators[ins].earnedZecash, validators[ins].addr, validators[ins].defValidator,validators[ins].noBlocksForged, validators[ins].blocks);\n    }\n\n    function countValidators() view external returns (uint) {\n        return validatorAccts.length;\n    }\n    \n    function getBalance(address addr) external view returns(uint,uint) {\n        uint256 stakedpercent = percent(balances[addr],totalStakedAmount,3);\n        return (balances[addr],stakedpercent);\n    }\n\n}",
  "sourcePath": "/home/parth/eth-projects/zecash/contracts/ZeCash_PoS.sol",
  "compiler": {
    "name": "solc",
    "version": "0.4.24+commit.e67f0147.Emscripten.clang"
  },
  "schemaVersion": "2.0.0",
  "updatedAt": "2018-06-05T14:06:00.846Z"
}