{
  "contractName": "ZeCash_PoS",
  "abi": [
    {
      "constant": true,
      "inputs": [],
      "name": "name",
      "outputs": [
        {
          "name": "",
          "type": "string"
        }
      ],
      "payable": false,
      "stateMutability": "view",
      "type": "function"
    },
    {
      "constant": true,
      "inputs": [],
      "name": "totalSupply",
      "outputs": [
        {
          "name": "",
          "type": "uint256"
        }
      ],
      "payable": false,
      "stateMutability": "view",
      "type": "function"
    },
    {
      "constant": true,
      "inputs": [],
      "name": "validatorindex",
      "outputs": [
        {
          "name": "",
          "type": "uint256"
        }
      ],
      "payable": false,
      "stateMutability": "view",
      "type": "function"
    },
    {
      "constant": true,
      "inputs": [],
      "name": "maxTotalSupply",
      "outputs": [
        {
          "name": "",
          "type": "uint256"
        }
      ],
      "payable": false,
      "stateMutability": "view",
      "type": "function"
    },
    {
      "constant": true,
      "inputs": [],
      "name": "decimals",
      "outputs": [
        {
          "name": "",
          "type": "uint256"
        }
      ],
      "payable": false,
      "stateMutability": "view",
      "type": "function"
    },
    {
      "constant": true,
      "inputs": [
        {
          "name": "",
          "type": "uint256"
        }
      ],
      "name": "blockIndexes",
      "outputs": [
        {
          "name": "",
          "type": "uint256"
        }
      ],
      "payable": false,
      "stateMutability": "view",
      "type": "function"
    },
    {
      "constant": true,
      "inputs": [
        {
          "name": "",
          "type": "uint256"
        }
      ],
      "name": "validatorAccts",
      "outputs": [
        {
          "name": "",
          "type": "address"
        }
      ],
      "payable": false,
      "stateMutability": "view",
      "type": "function"
    },
    {
      "constant": true,
      "inputs": [],
      "name": "etherOwner",
      "outputs": [
        {
          "name": "",
          "type": "address"
        }
      ],
      "payable": false,
      "stateMutability": "view",
      "type": "function"
    },
    {
      "constant": true,
      "inputs": [],
      "name": "totalStakedAmount",
      "outputs": [
        {
          "name": "",
          "type": "uint256"
        }
      ],
      "payable": false,
      "stateMutability": "view",
      "type": "function"
    },
    {
      "constant": true,
      "inputs": [],
      "name": "chainStartTime",
      "outputs": [
        {
          "name": "",
          "type": "uint256"
        }
      ],
      "payable": false,
      "stateMutability": "view",
      "type": "function"
    },
    {
      "constant": true,
      "inputs": [],
      "name": "stakeStartTime",
      "outputs": [
        {
          "name": "",
          "type": "uint256"
        }
      ],
      "payable": false,
      "stateMutability": "view",
      "type": "function"
    },
    {
      "constant": true,
      "inputs": [],
      "name": "owner",
      "outputs": [
        {
          "name": "",
          "type": "address"
        }
      ],
      "payable": false,
      "stateMutability": "view",
      "type": "function"
    },
    {
      "constant": true,
      "inputs": [],
      "name": "symbol",
      "outputs": [
        {
          "name": "",
          "type": "string"
        }
      ],
      "payable": false,
      "stateMutability": "view",
      "type": "function"
    },
    {
      "constant": true,
      "inputs": [],
      "name": "totalInitialSupply",
      "outputs": [
        {
          "name": "",
          "type": "uint256"
        }
      ],
      "payable": false,
      "stateMutability": "view",
      "type": "function"
    },
    {
      "constant": true,
      "inputs": [
        {
          "name": "",
          "type": "uint256"
        }
      ],
      "name": "blockchain",
      "outputs": [
        {
          "name": "index",
          "type": "uint256"
        },
        {
          "name": "timestamp",
          "type": "uint256"
        },
        {
          "name": "data",
          "type": "address"
        },
        {
          "name": "hash",
          "type": "bytes32"
        },
        {
          "name": "prevHash",
          "type": "bytes32"
        },
        {
          "name": "validator",
          "type": "address"
        }
      ],
      "payable": false,
      "stateMutability": "view",
      "type": "function"
    },
    {
      "constant": true,
      "inputs": [],
      "name": "stakeMinAge",
      "outputs": [
        {
          "name": "",
          "type": "uint256"
        }
      ],
      "payable": false,
      "stateMutability": "view",
      "type": "function"
    },
    {
      "constant": true,
      "inputs": [],
      "name": "chainStartBlockNumber",
      "outputs": [
        {
          "name": "",
          "type": "uint256"
        }
      ],
      "payable": false,
      "stateMutability": "view",
      "type": "function"
    },
    {
      "constant": true,
      "inputs": [],
      "name": "stakeMaxAge",
      "outputs": [
        {
          "name": "",
          "type": "uint256"
        }
      ],
      "payable": false,
      "stateMutability": "view",
      "type": "function"
    },
    {
      "constant": true,
      "inputs": [],
      "name": "maxMintProofOfStake",
      "outputs": [
        {
          "name": "",
          "type": "uint256"
        }
      ],
      "payable": false,
      "stateMutability": "view",
      "type": "function"
    },
    {
      "constant": false,
      "inputs": [
        {
          "name": "newOwner",
          "type": "address"
        }
      ],
      "name": "transferOwnership",
      "outputs": [],
      "payable": false,
      "stateMutability": "nonpayable",
      "type": "function"
    },
    {
      "constant": true,
      "inputs": [
        {
          "name": "",
          "type": "address"
        }
      ],
      "name": "validators",
      "outputs": [
        {
          "name": "stakedPercent",
          "type": "uint256"
        },
        {
          "name": "totalAmount",
          "type": "uint256"
        },
        {
          "name": "earnedZecash",
          "type": "uint256"
        },
        {
          "name": "addr",
          "type": "address"
        },
        {
          "name": "defValidator",
          "type": "bool"
        },
        {
          "name": "noBlocksForged",
          "type": "uint256"
        },
        {
          "name": "index",
          "type": "uint256"
        },
        {
          "name": "createdTime",
          "type": "uint256"
        }
      ],
      "payable": false,
      "stateMutability": "view",
      "type": "function"
    },
    {
      "inputs": [],
      "payable": false,
      "stateMutability": "nonpayable",
      "type": "constructor"
    },
    {
      "anonymous": false,
      "inputs": [
        {
          "indexed": true,
          "name": "from",
          "type": "address"
        },
        {
          "indexed": true,
          "name": "to",
          "type": "address"
        },
        {
          "indexed": false,
          "name": "value",
          "type": "uint256"
        }
      ],
      "name": "Transfer",
      "type": "event"
    },
    {
      "anonymous": false,
      "inputs": [
        {
          "indexed": true,
          "name": "owner",
          "type": "address"
        },
        {
          "indexed": true,
          "name": "spender",
          "type": "address"
        },
        {
          "indexed": false,
          "name": "value",
          "type": "uint256"
        }
      ],
      "name": "Approval",
      "type": "event"
    },
    {
      "anonymous": false,
      "inputs": [
        {
          "indexed": true,
          "name": "_address",
          "type": "address"
        },
        {
          "indexed": false,
          "name": "_reward",
          "type": "uint256"
        }
      ],
      "name": "Mint",
      "type": "event"
    },
    {
      "anonymous": false,
      "inputs": [
        {
          "indexed": true,
          "name": "burner",
          "type": "address"
        },
        {
          "indexed": false,
          "name": "value",
          "type": "uint256"
        }
      ],
      "name": "Burn",
      "type": "event"
    },
    {
      "constant": false,
      "inputs": [
        {
          "name": "_to",
          "type": "address"
        },
        {
          "name": "_value",
          "type": "uint256"
        }
      ],
      "name": "transfer",
      "outputs": [
        {
          "name": "",
          "type": "bool"
        }
      ],
      "payable": false,
      "stateMutability": "nonpayable",
      "type": "function"
    },
    {
      "constant": false,
      "inputs": [
        {
          "name": "_to",
          "type": "address"
        },
        {
          "name": "_value",
          "type": "uint256"
        }
      ],
      "name": "getZecash",
      "outputs": [
        {
          "name": "",
          "type": "bool"
        }
      ],
      "payable": false,
      "stateMutability": "nonpayable",
      "type": "function"
    },
    {
      "constant": false,
      "inputs": [
        {
          "name": "_to",
          "type": "address"
        }
      ],
      "name": "getTestEther",
      "outputs": [
        {
          "name": "",
          "type": "bool"
        }
      ],
      "payable": false,
      "stateMutability": "nonpayable",
      "type": "function"
    },
    {
      "constant": true,
      "inputs": [
        {
          "name": "_owner",
          "type": "address"
        }
      ],
      "name": "balanceOf",
      "outputs": [
        {
          "name": "balance",
          "type": "uint256"
        }
      ],
      "payable": false,
      "stateMutability": "view",
      "type": "function"
    },
    {
      "constant": false,
      "inputs": [
        {
          "name": "oldBlockIndex",
          "type": "uint256"
        },
        {
          "name": "_address",
          "type": "address"
        }
      ],
      "name": "forgeBlock",
      "outputs": [],
      "payable": false,
      "stateMutability": "nonpayable",
      "type": "function"
    },
    {
      "constant": true,
      "inputs": [],
      "name": "getAllIndexes",
      "outputs": [
        {
          "name": "",
          "type": "uint256[]"
        }
      ],
      "payable": false,
      "stateMutability": "view",
      "type": "function"
    },
    {
      "constant": true,
      "inputs": [
        {
          "name": "index",
          "type": "uint256"
        }
      ],
      "name": "getBlock",
      "outputs": [
        {
          "name": "",
          "type": "uint256"
        },
        {
          "name": "",
          "type": "uint256"
        },
        {
          "name": "",
          "type": "bytes32"
        },
        {
          "name": "",
          "type": "bytes32"
        },
        {
          "name": "",
          "type": "address"
        }
      ],
      "payable": false,
      "stateMutability": "view",
      "type": "function"
    },
    {
      "constant": true,
      "inputs": [
        {
          "name": "newBlockIndex",
          "type": "uint256"
        },
        {
          "name": "oldBlockIndex",
          "type": "uint256"
        }
      ],
      "name": "isBlockValid",
      "outputs": [
        {
          "name": "",
          "type": "bool"
        }
      ],
      "payable": false,
      "stateMutability": "view",
      "type": "function"
    },
    {
      "constant": false,
      "inputs": [
        {
          "name": "_address",
          "type": "address"
        }
      ],
      "name": "mint",
      "outputs": [
        {
          "name": "",
          "type": "bool"
        }
      ],
      "payable": false,
      "stateMutability": "nonpayable",
      "type": "function"
    },
    {
      "constant": true,
      "inputs": [],
      "name": "getBlockNumber",
      "outputs": [
        {
          "name": "blockNumber",
          "type": "uint256"
        }
      ],
      "payable": false,
      "stateMutability": "view",
      "type": "function"
    },
    {
      "constant": true,
      "inputs": [],
      "name": "annualInterest",
      "outputs": [
        {
          "name": "interest",
          "type": "uint256"
        }
      ],
      "payable": false,
      "stateMutability": "view",
      "type": "function"
    },
    {
      "constant": true,
      "inputs": [
        {
          "name": "_address",
          "type": "address"
        }
      ],
      "name": "getCoinAge",
      "outputs": [
        {
          "name": "_coinAge",
          "type": "uint256"
        }
      ],
      "payable": false,
      "stateMutability": "view",
      "type": "function"
    },
    {
      "constant": false,
      "inputs": [
        {
          "name": "_value",
          "type": "uint256"
        }
      ],
      "name": "ownerBurnToken",
      "outputs": [],
      "payable": false,
      "stateMutability": "nonpayable",
      "type": "function"
    },
    {
      "constant": false,
      "inputs": [
        {
          "name": "_address",
          "type": "address"
        }
      ],
      "name": "setValidators",
      "outputs": [],
      "payable": false,
      "stateMutability": "nonpayable",
      "type": "function"
    },
    {
      "constant": false,
      "inputs": [
        {
          "name": "_alladdresses",
          "type": "address[]"
        }
      ],
      "name": "removeValidators",
      "outputs": [],
      "payable": false,
      "stateMutability": "nonpayable",
      "type": "function"
    },
    {
      "constant": true,
      "inputs": [],
      "name": "getValidators",
      "outputs": [
        {
          "name": "",
          "type": "address[]"
        }
      ],
      "payable": false,
      "stateMutability": "view",
      "type": "function"
    },
    {
      "constant": true,
      "inputs": [
        {
          "name": "ins",
          "type": "address"
        }
      ],
      "name": "getValidator",
      "outputs": [
        {
          "name": "",
          "type": "uint256"
        },
        {
          "name": "",
          "type": "uint256"
        },
        {
          "name": "",
          "type": "uint256"
        },
        {
          "name": "",
          "type": "address"
        },
        {
          "name": "",
          "type": "bool"
        },
        {
          "name": "",
          "type": "uint256"
        },
        {
          "name": "",
          "type": "uint256"
        }
      ],
      "payable": false,
      "stateMutability": "view",
      "type": "function"
    },
    {
      "constant": true,
      "inputs": [
        {
          "name": "ins",
          "type": "address"
        }
      ],
      "name": "getValidatorForIndex",
      "outputs": [
        {
          "name": "",
          "type": "uint256"
        },
        {
          "name": "",
          "type": "uint256"
        },
        {
          "name": "",
          "type": "uint256"
        },
        {
          "name": "",
          "type": "address"
        },
        {
          "name": "",
          "type": "bool"
        },
        {
          "name": "",
          "type": "uint256"
        },
        {
          "name": "",
          "type": "uint256"
        }
      ],
      "payable": false,
      "stateMutability": "view",
      "type": "function"
    },
    {
      "constant": true,
      "inputs": [],
      "name": "countValidators",
      "outputs": [
        {
          "name": "",
          "type": "uint256"
        }
      ],
      "payable": false,
      "stateMutability": "view",
      "type": "function"
    },
    {
      "constant": true,
      "inputs": [
        {
          "name": "addr",
          "type": "address"
        }
      ],
      "name": "getBalance",
      "outputs": [
        {
          "name": "",
          "type": "uint256"
        },
        {
          "name": "",
          "type": "uint256"
        }
      ],
      "payable": false,
      "stateMutability": "view",
      "type": "function"
    }
  ],
  "bytecode": "0x60806040526040805190810160405280600881526020017f5a4348546f6b656e0000000000000000000000000000000000000000000000008152506001908051906020019062000051929190620018b6565b506040805190810160405280600381526020017f5a43480000000000000000000000000000000000000000000000000000000000815250600290805190602001906200009f929190620018b6565b506012600355426006556032600755606460085567016345785d8a0000600955735993e434528e5b40a7676838f37ce3400f984744600f60006101000a81548173ffffffffffffffffffffffffffffffffffffffff021916908373ffffffffffffffffffffffffffffffffffffffff1602179055506001601460006101000a8154816fffffffffffffffffffffffffffffffff02191690836fffffffffffffffffffffffffffffffff1602179055503480156200015b57600080fd5b50600080600080600080600080336000806101000a81548173ffffffffffffffffffffffffffffffffffffffff021916908373ffffffffffffffffffffffffffffffffffffffff1602179055506b033b2e3c9fd0803ce8000000600d819055506a52b7d2dcc80cd2e4000000600e81905550620186a0600a819055504260048190555043600581905550429750600e54601560008060009054906101000a900473ffffffffffffffffffffffffffffffffffffffff1673ffffffffffffffffffffffffffffffffffffffff1673ffffffffffffffffffffffffffffffffffffffff16815260200190815260200160002081905550600e54600c8190555060c060405190810160405280738547375670f0db79e59c832b2dcaeb0dde2f600673ffffffffffffffffffffffffffffffffffffffff1673ffffffffffffffffffffffffffffffffffffffff16815260200173323233a2052d66b247c96d3a7e63164b5cd8afbb73ffffffffffffffffffffffffffffffffffffffff1673ffffffffffffffffffffffffffffffffffffffff168152602001735ac69b00570412ad65f59404308005b4bea0db7773ffffffffffffffffffffffffffffffffffffffff1673ffffffffffffffffffffffffffffffffffffffff16815260200173bd5dbffe75274258bc9d0d907f957a2d0774d60f73ffffffffffffffffffffffffffffffffffffffff1673ffffffffffffffffffffffffffffffffffffffff168152602001731b2fe0836fb9306250c47143f7274ba38dd2ca0773ffffffffffffffffffffffffffffffffffffffff1673ffffffffffffffffffffffffffffffffffffffff168152602001738c4794fb81114a2dafe3b04eb3d4a3944752b27673ffffffffffffffffffffffffffffffffffffffff1673ffffffffffffffffffffffffffffffffffffffff168152506013906006620004189291906200193d565b506006600b8190555060106000808152602001908152602001600020965060008760000181905550428760010181905550600087600301816000191690555060008760040181600019169055506000809054906101000a900473ffffffffffffffffffffffffffffffffffffffff168760050160006101000a81548173ffffffffffffffffffffffffffffffffffffffff021916908373ffffffffffffffffffffffffffffffffffffffff16021790555060118760000154908060018154018082558091505090600182039060005260206000200160009091929091909150555060126000738547375670f0db79e59c832b2dcaeb0dde2f600673ffffffffffffffffffffffffffffffffffffffff1673ffffffffffffffffffffffffffffffffffffffff1681526020019081526020016000209550610fa0866001018190555060008660020181905550738547375670f0db79e59c832b2dcaeb0dde2f60068660030160006101000a81548173ffffffffffffffffffffffffffffffffffffffff021916908373ffffffffffffffffffffffffffffffffffffffff16021790555060018660030160146101000a81548160ff021916908315150217905550610fa060156000738547375670f0db79e59c832b2dcaeb0dde2f600673ffffffffffffffffffffffffffffffffffffffff1673ffffffffffffffffffffffffffffffffffffffff16815260200190815260200160002081905550620006a360156000738547375670f0db79e59c832b2dcaeb0dde2f600673ffffffffffffffffffffffffffffffffffffffff1673ffffffffffffffffffffffffffffffffffffffff16815260200190815260200160002054600a5460036200187b640100000000026401000000009004565b8660000181905550600086600401819055506001866006018190555042866007018190555060186000738547375670f0db79e59c832b2dcaeb0dde2f600673ffffffffffffffffffffffffffffffffffffffff1673ffffffffffffffffffffffffffffffffffffffff168152602001908152602001600020604080519081016040528060156000738547375670f0db79e59c832b2dcaeb0dde2f600673ffffffffffffffffffffffffffffffffffffffff1673ffffffffffffffffffffffffffffffffffffffff168152602001908152602001600020546fffffffffffffffffffffffffffffffff1681526020018a67ffffffffffffffff1681525090806001815401808255809150509060018203906000526020600020016000909192909190915060008201518160000160006101000a8154816fffffffffffffffffffffffffffffffff02191690836fffffffffffffffffffffffffffffffff16021790555060208201518160000160106101000a81548167ffffffffffffffff021916908367ffffffffffffffff1602179055505050506012600073323233a2052d66b247c96d3a7e63164b5cd8afbb73ffffffffffffffffffffffffffffffffffffffff1673ffffffffffffffffffffffffffffffffffffffff168152602001908152602001600020945061177085600101819055506000856002018190555073323233a2052d66b247c96d3a7e63164b5cd8afbb8560030160006101000a81548173ffffffffffffffffffffffffffffffffffffffff021916908373ffffffffffffffffffffffffffffffffffffffff160217905550600085600401819055506002856006018190555060018560030160146101000a81548160ff0219169083151502179055504285600701819055506117706015600073323233a2052d66b247c96d3a7e63164b5cd8afbb73ffffffffffffffffffffffffffffffffffffffff1673ffffffffffffffffffffffffffffffffffffffff16815260200190815260200160002081905550620009fe6015600073323233a2052d66b247c96d3a7e63164b5cd8afbb73ffffffffffffffffffffffffffffffffffffffff1673ffffffffffffffffffffffffffffffffffffffff16815260200190815260200160002054600a5460036200187b640100000000026401000000009004565b85600001819055506018600073323233a2052d66b247c96d3a7e63164b5cd8afbb73ffffffffffffffffffffffffffffffffffffffff1673ffffffffffffffffffffffffffffffffffffffff16815260200190815260200160002060408051908101604052806015600073323233a2052d66b247c96d3a7e63164b5cd8afbb73ffffffffffffffffffffffffffffffffffffffff1673ffffffffffffffffffffffffffffffffffffffff168152602001908152602001600020546fffffffffffffffffffffffffffffffff1681526020018a67ffffffffffffffff1681525090806001815401808255809150509060018203906000526020600020016000909192909190915060008201518160000160006101000a8154816fffffffffffffffffffffffffffffffff02191690836fffffffffffffffffffffffffffffffff16021790555060208201518160000160106101000a81548167ffffffffffffffff021916908367ffffffffffffffff16021790555050505060126000735ac69b00570412ad65f59404308005b4bea0db7773ffffffffffffffffffffffffffffffffffffffff1673ffffffffffffffffffffffffffffffffffffffff1681526020019081526020016000209350614e20846001018190555060008460020181905550735ac69b00570412ad65f59404308005b4bea0db778460030160006101000a81548173ffffffffffffffffffffffffffffffffffffffff021916908373ffffffffffffffffffffffffffffffffffffffff160217905550600084600401819055506003846006018190555060018460030160146101000a81548160ff021916908315150217905550428460070181905550614e2060156000735ac69b00570412ad65f59404308005b4bea0db7773ffffffffffffffffffffffffffffffffffffffff1673ffffffffffffffffffffffffffffffffffffffff1681526020019081526020016000208190555062000d3c60156000735ac69b00570412ad65f59404308005b4bea0db7773ffffffffffffffffffffffffffffffffffffffff1673ffffffffffffffffffffffffffffffffffffffff16815260200190815260200160002054600a5460036200187b640100000000026401000000009004565b846000018190555060186000735ac69b00570412ad65f59404308005b4bea0db7773ffffffffffffffffffffffffffffffffffffffff1673ffffffffffffffffffffffffffffffffffffffff168152602001908152602001600020604080519081016040528060156000735ac69b00570412ad65f59404308005b4bea0db7773ffffffffffffffffffffffffffffffffffffffff1673ffffffffffffffffffffffffffffffffffffffff168152602001908152602001600020546fffffffffffffffffffffffffffffffff1681526020018a67ffffffffffffffff1681525090806001815401808255809150509060018203906000526020600020016000909192909190915060008201518160000160006101000a8154816fffffffffffffffffffffffffffffffff02191690836fffffffffffffffffffffffffffffffff16021790555060208201518160000160106101000a81548167ffffffffffffffff021916908367ffffffffffffffff1602179055505050506012600073bd5dbffe75274258bc9d0d907f957a2d0774d60f73ffffffffffffffffffffffffffffffffffffffff1673ffffffffffffffffffffffffffffffffffffffff16815260200190815260200160002092506161a883600101819055506000836002018190555073bd5dbffe75274258bc9d0d907f957a2d0774d60f8360030160006101000a81548173ffffffffffffffffffffffffffffffffffffffff021916908373ffffffffffffffffffffffffffffffffffffffff1602179055506000836004018190555060018360030160146101000a81548160ff021916908315150217905550600483600601819055504283600701819055506161a86015600073bd5dbffe75274258bc9d0d907f957a2d0774d60f73ffffffffffffffffffffffffffffffffffffffff1673ffffffffffffffffffffffffffffffffffffffff168152602001908152602001600020819055506200107a6015600073bd5dbffe75274258bc9d0d907f957a2d0774d60f73ffffffffffffffffffffffffffffffffffffffff1673ffffffffffffffffffffffffffffffffffffffff16815260200190815260200160002054600a5460036200187b640100000000026401000000009004565b83600001819055506018600073bd5dbffe75274258bc9d0d907f957a2d0774d60f73ffffffffffffffffffffffffffffffffffffffff1673ffffffffffffffffffffffffffffffffffffffff16815260200190815260200160002060408051908101604052806015600073bd5dbffe75274258bc9d0d907f957a2d0774d60f73ffffffffffffffffffffffffffffffffffffffff1673ffffffffffffffffffffffffffffffffffffffff168152602001908152602001600020546fffffffffffffffffffffffffffffffff1681526020018a67ffffffffffffffff1681525090806001815401808255809150509060018203906000526020600020016000909192909190915060008201518160000160006101000a8154816fffffffffffffffffffffffffffffffff02191690836fffffffffffffffffffffffffffffffff16021790555060208201518160000160106101000a81548167ffffffffffffffff021916908367ffffffffffffffff16021790555050505060126000731b2fe0836fb9306250c47143f7274ba38dd2ca0773ffffffffffffffffffffffffffffffffffffffff1673ffffffffffffffffffffffffffffffffffffffff1681526020019081526020016000209150619c40826001018190555060008260020181905550731b2fe0836fb9306250c47143f7274ba38dd2ca078260030160006101000a81548173ffffffffffffffffffffffffffffffffffffffff021916908373ffffffffffffffffffffffffffffffffffffffff1602179055506000826004018190555060018260030160146101000a81548160ff02191690831515021790555042826007018190555060058260060181905550619c4060156000731b2fe0836fb9306250c47143f7274ba38dd2ca0773ffffffffffffffffffffffffffffffffffffffff1673ffffffffffffffffffffffffffffffffffffffff16815260200190815260200160002081905550620013b860156000731b2fe0836fb9306250c47143f7274ba38dd2ca0773ffffffffffffffffffffffffffffffffffffffff1673ffffffffffffffffffffffffffffffffffffffff16815260200190815260200160002054600a5460036200187b640100000000026401000000009004565b826000018190555060186000731b2fe0836fb9306250c47143f7274ba38dd2ca0773ffffffffffffffffffffffffffffffffffffffff1673ffffffffffffffffffffffffffffffffffffffff168152602001908152602001600020604080519081016040528060156000731b2fe0836fb9306250c47143f7274ba38dd2ca0773ffffffffffffffffffffffffffffffffffffffff1673ffffffffffffffffffffffffffffffffffffffff168152602001908152602001600020546fffffffffffffffffffffffffffffffff1681526020018a67ffffffffffffffff1681525090806001815401808255809150509060018203906000526020600020016000909192909190915060008201518160000160006101000a8154816fffffffffffffffffffffffffffffffff02191690836fffffffffffffffffffffffffffffffff16021790555060208201518160000160106101000a81548167ffffffffffffffff021916908367ffffffffffffffff16021790555050505060126000738c4794fb81114a2dafe3b04eb3d4a3944752b27673ffffffffffffffffffffffffffffffffffffffff1673ffffffffffffffffffffffffffffffffffffffff1681526020019081526020016000209050611388816001018190555060008160020181905550738c4794fb81114a2dafe3b04eb3d4a3944752b2768160030160006101000a81548173ffffffffffffffffffffffffffffffffffffffff021916908373ffffffffffffffffffffffffffffffffffffffff1602179055506000816004018190555060018160030160146101000a81548160ff0219169083151502179055506006816006018190555042816007018190555061138860156000738c4794fb81114a2dafe3b04eb3d4a3944752b27673ffffffffffffffffffffffffffffffffffffffff1673ffffffffffffffffffffffffffffffffffffffff16815260200190815260200160002081905550620016f660156000738c4794fb81114a2dafe3b04eb3d4a3944752b27673ffffffffffffffffffffffffffffffffffffffff1673ffffffffffffffffffffffffffffffffffffffff16815260200190815260200160002054600a5460036200187b640100000000026401000000009004565b816000018190555060186000738c4794fb81114a2dafe3b04eb3d4a3944752b27673ffffffffffffffffffffffffffffffffffffffff1673ffffffffffffffffffffffffffffffffffffffff168152602001908152602001600020604080519081016040528060156000738c4794fb81114a2dafe3b04eb3d4a3944752b27673ffffffffffffffffffffffffffffffffffffffff1673ffffffffffffffffffffffffffffffffffffffff168152602001908152602001600020546fffffffffffffffffffffffffffffffff1681526020018a67ffffffffffffffff1681525090806001815401808255809150509060018203906000526020600020016000909192909190915060008201518160000160006101000a8154816fffffffffffffffffffffffffffffffff02191690836fffffffffffffffffffffffffffffffff16021790555060208201518160000160106101000a81548167ffffffffffffffff021916908367ffffffffffffffff160217905550505050505050505050505062001a3a565b600080600060018401600a0a86029150600a600586848115156200189b57fe5b0401811515620018a757fe5b04905080925050509392505050565b828054600181600116156101000203166002900490600052602060002090601f016020900481019282601f10620018f957805160ff19168380011785556200192a565b828001600101855582156200192a579182015b82811115620019295782518255916020019190600101906200190c565b5b509050620019399190620019cc565b5090565b828054828255906000526020600020908101928215620019b9579160200282015b82811115620019b85782518260006101000a81548173ffffffffffffffffffffffffffffffffffffffff021916908373ffffffffffffffffffffffffffffffffffffffff160217905550916020019190600101906200195e565b5b509050620019c89190620019f4565b5090565b620019f191905b80821115620019ed576000816000905550600101620019d3565b5090565b90565b62001a3791905b8082111562001a3357600081816101000a81549073ffffffffffffffffffffffffffffffffffffffff021916905550600101620019fb565b5090565b90565b61422b8062001a4a6000396000f3006080604052600436106101f9576000357c0100000000000000000000000000000000000000000000000000000000900463ffffffff16806304c07569146101fe57806306fdde031461029757806318160ddd146103275780631904bb2e146103525780631d40f0d814610403578063278a43001461043e5780632ab4d0521461046957806330a0f76814610494578063313ce567146104d757806331eebae3146105025780633fbe0a1f146105435780634153e85e146105b057806342cbb15c1461060757806344d998fa14610632578063523113dd14610689578063567e98f9146106ee5780635b054f9b146107195780636a6278421461074457806370a082311461079f5780637419f190146107f65780638d779813146108215780638da5cb5b1461087c57806390762a8b146108d357806392f698c21461090057806395d89b41146109b157806397f3c80614610a415780639fd4da4014610a6c578063a2f0a1f214610a97578063a57e990214610b03578063a9059cbb14610b52578063b2552fc414610bb7578063b7ab4db514610be2578063c25b1eaf14610c4e578063cbd8877e14610d1a578063cd474b0414610d45578063d377234b14610d70578063e1c3bac614610dbd578063f2bb5ce114610de8578063f2fde38b14610e13578063f8b2cb4f14610e56578063fa52c7d814610eb4575b600080fd5b34801561020a57600080fd5b5061022960048036038101908080359060200190929190505050610f6c565b60405180868152602001858152602001846000191660001916815260200183600019166000191681526020018273ffffffffffffffffffffffffffffffffffffffff1673ffffffffffffffffffffffffffffffffffffffff1681526020019550505050505060405180910390f35b3480156102a357600080fd5b506102ac61101a565b6040518080602001828103825283818151815260200191508051906020019080838360005b838110156102ec5780820151818401526020810190506102d1565b50505050905090810190601f1680156103195780820380516001836020036101000a031916815260200191505b509250505060405180910390f35b34801561033357600080fd5b5061033c6110b8565b6040518082815260200191505060405180910390f35b34801561035e57600080fd5b50610393600480360381019080803573ffffffffffffffffffffffffffffffffffffffff1690602001909291905050506110be565b604051808881526020018781526020018681526020018573ffffffffffffffffffffffffffffffffffffffff1673ffffffffffffffffffffffffffffffffffffffff1681526020018415151515815260200183815260200182815260200197505050505050505060405180910390f35b34801561040f57600080fd5b5061043c6004803603810190808035906020019082018035906020019190919293919293905050506112e4565b005b34801561044a57600080fd5b5061045361133a565b6040518082815260200191505060405180910390f35b34801561047557600080fd5b5061047e611340565b6040518082815260200191505060405180910390f35b3480156104a057600080fd5b506104d5600480360381019080803573ffffffffffffffffffffffffffffffffffffffff169060200190929190505050611346565b005b3480156104e357600080fd5b506104ec611487565b6040518082815260200191505060405180910390f35b34801561050e57600080fd5b5061052d6004803603810190808035906020019092919050505061148d565b6040518082815260200191505060405180910390f35b34801561054f57600080fd5b5061056e600480360381019080803590602001909291905050506114b0565b604051808273ffffffffffffffffffffffffffffffffffffffff1673ffffffffffffffffffffffffffffffffffffffff16815260200191505060405180910390f35b3480156105bc57600080fd5b506105c56114ee565b604051808273ffffffffffffffffffffffffffffffffffffffff1673ffffffffffffffffffffffffffffffffffffffff16815260200191505060405180910390f35b34801561061357600080fd5b5061061c611514565b6040518082815260200191505060405180910390f35b34801561063e57600080fd5b50610673600480360381019080803573ffffffffffffffffffffffffffffffffffffffff169060200190929190505050611530565b6040518082815260200191505060405180910390f35b34801561069557600080fd5b506106d4600480360381019080803573ffffffffffffffffffffffffffffffffffffffff169060200190929190803590602001909291905050506117c3565b604051808215151515815260200191505060405180910390f35b3480156106fa57600080fd5b50610703611ffe565b6040518082815260200191505060405180910390f35b34801561072557600080fd5b5061072e612004565b6040518082815260200191505060405180910390f35b34801561075057600080fd5b50610785600480360381019080803573ffffffffffffffffffffffffffffffffffffffff16906020019092919050505061200a565b604051808215151515815260200191505060405180910390f35b3480156107ab57600080fd5b506107e0600480360381019080803573ffffffffffffffffffffffffffffffffffffffff169060200190929190505050612360565b6040518082815260200191505060405180910390f35b34801561080257600080fd5b5061080b6123a9565b6040518082815260200191505060405180910390f35b34801561082d57600080fd5b50610862600480360381019080803573ffffffffffffffffffffffffffffffffffffffff1690602001909291905050506123af565b604051808215151515815260200191505060405180910390f35b34801561088857600080fd5b5061089161259e565b604051808273ffffffffffffffffffffffffffffffffffffffff1673ffffffffffffffffffffffffffffffffffffffff16815260200191505060405180910390f35b3480156108df57600080fd5b506108fe600480360381019080803590602001909291905050506125c3565b005b34801561090c57600080fd5b50610941600480360381019080803573ffffffffffffffffffffffffffffffffffffffff1690602001909291905050506129bf565b604051808881526020018781526020018681526020018573ffffffffffffffffffffffffffffffffffffffff1673ffffffffffffffffffffffffffffffffffffffff1681526020018415151515815260200183815260200182815260200197505050505050505060405180910390f35b3480156109bd57600080fd5b506109c6612be5565b6040518080602001828103825283818151815260200191508051906020019080838360005b83811015610a065780820151818401526020810190506109eb565b50505050905090810190601f168015610a335780820380516001836020036101000a031916815260200191505b509250505060405180910390f35b348015610a4d57600080fd5b50610a56612c83565b6040518082815260200191505060405180910390f35b348015610a7857600080fd5b50610a81612c90565b6040518082815260200191505060405180910390f35b348015610aa357600080fd5b50610aac612c96565b6040518080602001828103825283818151815260200191508051906020019060200280838360005b83811015610aef578082015181840152602081019050610ad4565b505050509050019250505060405180910390f35b348015610b0f57600080fd5b50610b386004803603810190808035906020019092919080359060200190929190505050612cee565b604051808215151515815260200191505060405180910390f35b348015610b5e57600080fd5b50610b9d600480360381019080803573ffffffffffffffffffffffffffffffffffffffff16906020019092919080359060200190929190505050612d8b565b604051808215151515815260200191505060405180910390f35b348015610bc357600080fd5b50610bcc613256565b6040518082815260200191505060405180910390f35b348015610bee57600080fd5b50610bf761330a565b6040518080602001828103825283818151815260200191508051906020019060200280838360005b83811015610c3a578082015181840152602081019050610c1f565b505050509050019250505060405180910390f35b348015610c5a57600080fd5b50610c7960048036038101908080359060200190929190505050613398565b604051808781526020018681526020018573ffffffffffffffffffffffffffffffffffffffff1673ffffffffffffffffffffffffffffffffffffffff168152602001846000191660001916815260200183600019166000191681526020018273ffffffffffffffffffffffffffffffffffffffff1673ffffffffffffffffffffffffffffffffffffffff168152602001965050505050505060405180910390f35b348015610d2657600080fd5b50610d2f613414565b6040518082815260200191505060405180910390f35b348015610d5157600080fd5b50610d5a61341a565b6040518082815260200191505060405180910390f35b348015610d7c57600080fd5b50610dbb60048036038101908080359060200190929190803573ffffffffffffffffffffffffffffffffffffffff169060200190929190505050613420565b005b348015610dc957600080fd5b50610dd26135d5565b6040518082815260200191505060405180910390f35b348015610df457600080fd5b50610dfd6135db565b6040518082815260200191505060405180910390f35b348015610e1f57600080fd5b50610e54600480360381019080803573ffffffffffffffffffffffffffffffffffffffff1690602001909291905050506135e1565b005b348015610e6257600080fd5b50610e97600480360381019080803573ffffffffffffffffffffffffffffffffffffffff1690602001909291905050506136bb565b604051808381526020018281526020019250505060405180910390f35b348015610ec057600080fd5b50610ef5600480360381019080803573ffffffffffffffffffffffffffffffffffffffff16906020019092919050505061375a565b604051808981526020018881526020018781526020018673ffffffffffffffffffffffffffffffffffffffff1673ffffffffffffffffffffffffffffffffffffffff168152602001851515151581526020018481526020018381526020018281526020019850505050505050505060405180910390f35b6000806000806000601060008781526020019081526020016000206000015460106000888152602001908152602001600020600101546010600089815260200190815260200160002060030154601060008a815260200190815260200160002060040154601060008b815260200190815260200160002060050160009054906101000a900473ffffffffffffffffffffffffffffffffffffffff169450945094509450945091939590929450565b60018054600181600116156101000203166002900480601f0160208091040260200160405190810160405280929190818152602001828054600181600116156101000203166002900480156110b05780601f10611085576101008083540402835291602001916110b0565b820191906000526020600020905b81548152906001019060200180831161109357829003601f168201915b505050505081565b600c5481565b6000806000806000806000601260008973ffffffffffffffffffffffffffffffffffffffff1673ffffffffffffffffffffffffffffffffffffffff16815260200190815260200160002060010154601260008a73ffffffffffffffffffffffffffffffffffffffff1673ffffffffffffffffffffffffffffffffffffffff16815260200190815260200160002060000154601260008b73ffffffffffffffffffffffffffffffffffffffff1673ffffffffffffffffffffffffffffffffffffffff16815260200190815260200160002060020154601260008c73ffffffffffffffffffffffffffffffffffffffff1673ffffffffffffffffffffffffffffffffffffffff16815260200190815260200160002060030160009054906101000a900473ffffffffffffffffffffffffffffffffffffffff16601260008d73ffffffffffffffffffffffffffffffffffffffff1673ffffffffffffffffffffffffffffffffffffffff16815260200190815260200160002060030160149054906101000a900460ff16601260008e73ffffffffffffffffffffffffffffffffffffffff1673ffffffffffffffffffffffffffffffffffffffff16815260200190815260200160002060040154601260008f73ffffffffffffffffffffffffffffffffffffffff1673ffffffffffffffffffffffffffffffffffffffff168152602001908152602001600020600701549650965096509650965096509650919395979092949650565b60008090505b8282905081101561133557611328838383818110151561130657fe5b9050602002013573ffffffffffffffffffffffffffffffffffffffff166137cf565b80806001019150506112ea565b505050565b600b5481565b600d5481565b60006001600b5401600b81905550601260008373ffffffffffffffffffffffffffffffffffffffff1673ffffffffffffffffffffffffffffffffffffffff168152602001908152602001600020905060008160010181905550818160030160006101000a81548173ffffffffffffffffffffffffffffffffffffffff021916908373ffffffffffffffffffffffffffffffffffffffff16021790555060008160030160146101000a81548160ff02191690831515021790555060008160040181905550600b54816006018190555042816007018190555060138290806001815401808255809150509060018203906000526020600020016000909192909190916101000a81548173ffffffffffffffffffffffffffffffffffffffff021916908373ffffffffffffffffffffffffffffffffffffffff160217905550505050565b60035481565b60118181548110151561149c57fe5b906000526020600020016000915090505481565b6013818154811015156114bf57fe5b906000526020600020016000915054906101000a900473ffffffffffffffffffffffffffffffffffffffff1681565b600f60009054906101000a900473ffffffffffffffffffffffffffffffffffffffff1681565b600061152b60055443613ce990919063ffffffff16565b905090565b600080600080601860008673ffffffffffffffffffffffffffffffffffffffff1673ffffffffffffffffffffffffffffffffffffffff1681526020019081526020016000208054905011151561158957600092506117bc565b600091505b601860008573ffffffffffffffffffffffffffffffffffffffff1673ffffffffffffffffffffffffffffffffffffffff168152602001908152602001600020805490508210156117b857611664600754601860008773ffffffffffffffffffffffffffffffffffffffff1673ffffffffffffffffffffffffffffffffffffffff1681526020019081526020016000208481548110151561162a57fe5b9060005260206000200160000160109054906101000a900467ffffffffffffffff1667ffffffffffffffff16613d0290919063ffffffff16565b421015611670576117ab565b6116fa601860008673ffffffffffffffffffffffffffffffffffffffff1673ffffffffffffffffffffffffffffffffffffffff168152602001908152602001600020838154811015156116bf57fe5b9060005260206000200160000160109054906101000a900467ffffffffffffffff1667ffffffffffffffff1642613ce990919063ffffffff16565b905060085481111561170c5760085490505b6117a881601860008773ffffffffffffffffffffffffffffffffffffffff1673ffffffffffffffffffffffffffffffffffffffff1681526020019081526020016000208481548110151561175c57fe5b9060005260206000200160000160009054906101000a90046fffffffffffffffffffffffffffffffff166fffffffffffffffffffffffffffffffff160284613d0290919063ffffffff16565b92505b818060010192505061158e565b8292505b5050919050565b600080600083601560008060009054906101000a900473ffffffffffffffffffffffffffffffffffffffff1673ffffffffffffffffffffffffffffffffffffffff1673ffffffffffffffffffffffffffffffffffffffff1681526020019081526020016000205410806118795750620186a084601560008873ffffffffffffffffffffffffffffffffffffffff1673ffffffffffffffffffffffffffffffffffffffff1681526020019081526020016000205401115b156118875760009250611ff6565b83601260008773ffffffffffffffffffffffffffffffffffffffff1673ffffffffffffffffffffffffffffffffffffffff1681526020019081526020016000206001015401601260008773ffffffffffffffffffffffffffffffffffffffff1673ffffffffffffffffffffffffffffffffffffffff1681526020019081526020016000206001018190555061198584601560008060009054906101000a900473ffffffffffffffffffffffffffffffffffffffff1673ffffffffffffffffffffffffffffffffffffffff1673ffffffffffffffffffffffffffffffffffffffff16815260200190815260200160002054613ce990919063ffffffff16565b601560008060009054906101000a900473ffffffffffffffffffffffffffffffffffffffff1673ffffffffffffffffffffffffffffffffffffffff1673ffffffffffffffffffffffffffffffffffffffff16815260200190815260200160002081905550611a3b84601560008873ffffffffffffffffffffffffffffffffffffffff1673ffffffffffffffffffffffffffffffffffffffff16815260200190815260200160002054613d0290919063ffffffff16565b601560008773ffffffffffffffffffffffffffffffffffffffff1673ffffffffffffffffffffffffffffffffffffffff168152602001908152602001600020819055508473ffffffffffffffffffffffffffffffffffffffff166000809054906101000a900473ffffffffffffffffffffffffffffffffffffffff1673ffffffffffffffffffffffffffffffffffffffff167fddf252ad1be2c89b69c2b068fc378daa952ba7f163c4a11628f55a4df523b3ef866040518082815260200191505060405180910390a36000601860008773ffffffffffffffffffffffffffffffffffffffff1673ffffffffffffffffffffffffffffffffffffffff168152602001908152602001600020805490501115611b9b57601860008673ffffffffffffffffffffffffffffffffffffffff1673ffffffffffffffffffffffffffffffffffffffff1681526020019081526020016000206000611b9a9190614130565b5b429150601860008060009054906101000a900473ffffffffffffffffffffffffffffffffffffffff1673ffffffffffffffffffffffffffffffffffffffff1673ffffffffffffffffffffffffffffffffffffffff1681526020019081526020016000206040805190810160405280601560008060009054906101000a900473ffffffffffffffffffffffffffffffffffffffff1673ffffffffffffffffffffffffffffffffffffffff1673ffffffffffffffffffffffffffffffffffffffff168152602001908152602001600020546fffffffffffffffffffffffffffffffff1681526020018467ffffffffffffffff1681525090806001815401808255809150509060018203906000526020600020016000909192909190915060008201518160000160006101000a8154816fffffffffffffffffffffffffffffffff02191690836fffffffffffffffffffffffffffffffff16021790555060208201518160000160106101000a81548167ffffffffffffffff021916908367ffffffffffffffff160217905550505050601860008673ffffffffffffffffffffffffffffffffffffffff1673ffffffffffffffffffffffffffffffffffffffff1681526020019081526020016000206040805190810160405280866fffffffffffffffffffffffffffffffff1681526020018467ffffffffffffffff1681525090806001815401808255809150509060018203906000526020600020016000909192909190915060008201518160000160006101000a8154816fffffffffffffffffffffffffffffffff02191690836fffffffffffffffffffffffffffffffff16021790555060208201518160000160106101000a81548167ffffffffffffffff021916908367ffffffffffffffff16021790555050505083600a5401600a81905550611e87601560008773ffffffffffffffffffffffffffffffffffffffff1673ffffffffffffffffffffffffffffffffffffffff16815260200190815260200160002054600a546003613d1e565b601260008773ffffffffffffffffffffffffffffffffffffffff1673ffffffffffffffffffffffffffffffffffffffff16815260200190815260200160002060000181905550600090505b601380549050811015611ff157611f6560156000601384815481101515611ef557fe5b9060005260206000200160009054906101000a900473ffffffffffffffffffffffffffffffffffffffff1673ffffffffffffffffffffffffffffffffffffffff1673ffffffffffffffffffffffffffffffffffffffff16815260200190815260200160002054600a546003613d1e565b60126000601384815481101515611f7857fe5b9060005260206000200160009054906101000a900473ffffffffffffffffffffffffffffffffffffffff1673ffffffffffffffffffffffffffffffffffffffff1673ffffffffffffffffffffffffffffffffffffffff168152602001908152602001600020600001819055508080600101915050611ed2565b600192505b505092915050565b600a5481565b60045481565b6000806000600d54600c5410151561202157600080fd5b6000601560008673ffffffffffffffffffffffffffffffffffffffff1673ffffffffffffffffffffffffffffffffffffffff168152602001908152602001600020541115156120735760009250612359565b6000601860008673ffffffffffffffffffffffffffffffffffffffff1673ffffffffffffffffffffffffffffffffffffffff168152602001908152602001600020805490501115156120c85760009250612359565b6120d184613d57565b91506000821115156120e65760009250612359565b6120fb82600c54613d0290919063ffffffff16565b600c81905550601260008573ffffffffffffffffffffffffffffffffffffffff1673ffffffffffffffffffffffffffffffffffffffff168152602001908152602001600020905061216c612159606484613e5190919063ffffffff16565b8260020154613d0290919063ffffffff16565b8160020181905550601860008573ffffffffffffffffffffffffffffffffffffffff1673ffffffffffffffffffffffffffffffffffffffff16815260200190815260200160002060006121bf9190614130565b601860008573ffffffffffffffffffffffffffffffffffffffff1673ffffffffffffffffffffffffffffffffffffffff1681526020019081526020016000206040805190810160405280601560008873ffffffffffffffffffffffffffffffffffffffff1673ffffffffffffffffffffffffffffffffffffffff168152602001908152602001600020546fffffffffffffffffffffffffffffffff1681526020014267ffffffffffffffff1681525090806001815401808255809150509060018203906000526020600020016000909192909190915060008201518160000160006101000a8154816fffffffffffffffffffffffffffffffff02191690836fffffffffffffffffffffffffffffffff16021790555060208201518160000160106101000a81548167ffffffffffffffff021916908367ffffffffffffffff1602179055505050508373ffffffffffffffffffffffffffffffffffffffff167f0f6798a560793a54c3bcfe86a93cde1e73087d944c0ea20544137d4121396885836040518082815260200191505060405180910390a2600192505b5050919050565b6000601560008373ffffffffffffffffffffffffffffffffffffffff1673ffffffffffffffffffffffffffffffffffffffff168152602001908152602001600020549050919050565b60065481565b6000600160166000600f60009054906101000a900473ffffffffffffffffffffffffffffffffffffffff1673ffffffffffffffffffffffffffffffffffffffff1673ffffffffffffffffffffffffffffffffffffffff1681526020019081526020016000205410156124245760009050612599565b612499600160166000600f60009054906101000a900473ffffffffffffffffffffffffffffffffffffffff1673ffffffffffffffffffffffffffffffffffffffff1673ffffffffffffffffffffffffffffffffffffffff16815260200190815260200160002054613ce990919063ffffffff16565b60166000600f60009054906101000a900473ffffffffffffffffffffffffffffffffffffffff1673ffffffffffffffffffffffffffffffffffffffff1673ffffffffffffffffffffffffffffffffffffffff168152602001908152602001600020819055506125516001601660008573ffffffffffffffffffffffffffffffffffffffff1673ffffffffffffffffffffffffffffffffffffffff16815260200190815260200160002054613d0290919063ffffffff16565b601660008473ffffffffffffffffffffffffffffffffffffffff1673ffffffffffffffffffffffffffffffffffffffff16815260200190815260200160002081905550600190505b919050565b6000809054906101000a900473ffffffffffffffffffffffffffffffffffffffff1681565b6000809054906101000a900473ffffffffffffffffffffffffffffffffffffffff1673ffffffffffffffffffffffffffffffffffffffff163373ffffffffffffffffffffffffffffffffffffffff1614151561261e57600080fd5b60008111151561262d57600080fd5b6126a081601560008060009054906101000a900473ffffffffffffffffffffffffffffffffffffffff1673ffffffffffffffffffffffffffffffffffffffff1673ffffffffffffffffffffffffffffffffffffffff16815260200190815260200160002054613ce990919063ffffffff16565b601560008060009054906101000a900473ffffffffffffffffffffffffffffffffffffffff1673ffffffffffffffffffffffffffffffffffffffff1673ffffffffffffffffffffffffffffffffffffffff16815260200190815260200160002081905550601860008060009054906101000a900473ffffffffffffffffffffffffffffffffffffffff1673ffffffffffffffffffffffffffffffffffffffff1673ffffffffffffffffffffffffffffffffffffffff16815260200190815260200160002060006127709190614130565b601860008060009054906101000a900473ffffffffffffffffffffffffffffffffffffffff1673ffffffffffffffffffffffffffffffffffffffff1673ffffffffffffffffffffffffffffffffffffffff1681526020019081526020016000206040805190810160405280601560008060009054906101000a900473ffffffffffffffffffffffffffffffffffffffff1673ffffffffffffffffffffffffffffffffffffffff1673ffffffffffffffffffffffffffffffffffffffff168152602001908152602001600020546fffffffffffffffffffffffffffffffff1681526020014267ffffffffffffffff1681525090806001815401808255809150509060018203906000526020600020016000909192909190915060008201518160000160006101000a8154816fffffffffffffffffffffffffffffffff02191690836fffffffffffffffffffffffffffffffff16021790555060208201518160000160106101000a81548167ffffffffffffffff021916908367ffffffffffffffff16021790555050505061290e81600c54613ce990919063ffffffff16565b600c8190555061292981600e54613ce990919063ffffffff16565b600e81905550612947600a8202600d54613ce990919063ffffffff16565b600d819055506000809054906101000a900473ffffffffffffffffffffffffffffffffffffffff1673ffffffffffffffffffffffffffffffffffffffff167fcc16f5dbb4873280815c1ee09dbd06736cffcc184412cf7a71a0fdb75d397ca5826040518082815260200191505060405180910390a250565b6000806000806000806000601260008973ffffffffffffffffffffffffffffffffffffffff1673ffffffffffffffffffffffffffffffffffffffff16815260200190815260200160002060010154601260008a73ffffffffffffffffffffffffffffffffffffffff1673ffffffffffffffffffffffffffffffffffffffff16815260200190815260200160002060000154601260008b73ffffffffffffffffffffffffffffffffffffffff1673ffffffffffffffffffffffffffffffffffffffff16815260200190815260200160002060020154601260008c73ffffffffffffffffffffffffffffffffffffffff1673ffffffffffffffffffffffffffffffffffffffff16815260200190815260200160002060030160009054906101000a900473ffffffffffffffffffffffffffffffffffffffff16601260008d73ffffffffffffffffffffffffffffffffffffffff1673ffffffffffffffffffffffffffffffffffffffff16815260200190815260200160002060030160149054906101000a900460ff16601260008e73ffffffffffffffffffffffffffffffffffffffff1673ffffffffffffffffffffffffffffffffffffffff16815260200190815260200160002060040154601260008f73ffffffffffffffffffffffffffffffffffffffff1673ffffffffffffffffffffffffffffffffffffffff168152602001908152602001600020600601549650965096509650965096509650919395979092949650565b60028054600181600116156101000203166002900480601f016020809104026020016040519081016040528092919081815260200182805460018160011615610100020316600290048015612c7b5780601f10612c5057610100808354040283529160200191612c7b565b820191906000526020600020905b815481529060010190602001808311612c5e57829003601f168201915b505050505081565b6000601380549050905090565b600e5481565b60606011805480602002602001604051908101604052809291908181526020018280548015612ce457602002820191906000526020600020905b815481526020019060010190808311612cd0575b5050505050905090565b60008282141515612d025760009050612d85565b601060008481526020019081526020016000206004015460001916601060008481526020019081526020016000206003015460001916141515612d485760009050612d85565b601060008481526020019081526020016000206003015460001916612d6c84613e67565b60001916141515612d805760009050612d85565b600190505b92915050565b6000808373ffffffffffffffffffffffffffffffffffffffff163373ffffffffffffffffffffffffffffffffffffffff161415612dd257612dcb8461200a565b915061324f565b612e2483601560003373ffffffffffffffffffffffffffffffffffffffff1673ffffffffffffffffffffffffffffffffffffffff16815260200190815260200160002054613ce990919063ffffffff16565b601560003373ffffffffffffffffffffffffffffffffffffffff1673ffffffffffffffffffffffffffffffffffffffff16815260200190815260200160002081905550612eb983601560008773ffffffffffffffffffffffffffffffffffffffff1673ffffffffffffffffffffffffffffffffffffffff16815260200190815260200160002054613d0290919063ffffffff16565b601560008673ffffffffffffffffffffffffffffffffffffffff1673ffffffffffffffffffffffffffffffffffffffff168152602001908152602001600020819055508373ffffffffffffffffffffffffffffffffffffffff163373ffffffffffffffffffffffffffffffffffffffff167fddf252ad1be2c89b69c2b068fc378daa952ba7f163c4a11628f55a4df523b3ef856040518082815260200191505060405180910390a36000601860003373ffffffffffffffffffffffffffffffffffffffff1673ffffffffffffffffffffffffffffffffffffffff168152602001908152602001600020805490501115612ff857601860003373ffffffffffffffffffffffffffffffffffffffff1673ffffffffffffffffffffffffffffffffffffffff1681526020019081526020016000206000612ff79190614130565b5b429050601860003373ffffffffffffffffffffffffffffffffffffffff1673ffffffffffffffffffffffffffffffffffffffff1681526020019081526020016000206040805190810160405280601560003373ffffffffffffffffffffffffffffffffffffffff1673ffffffffffffffffffffffffffffffffffffffff168152602001908152602001600020546fffffffffffffffffffffffffffffffff1681526020018367ffffffffffffffff1681525090806001815401808255809150509060018203906000526020600020016000909192909190915060008201518160000160006101000a8154816fffffffffffffffffffffffffffffffff02191690836fffffffffffffffffffffffffffffffff16021790555060208201518160000160106101000a81548167ffffffffffffffff021916908367ffffffffffffffff160217905550505050601860008573ffffffffffffffffffffffffffffffffffffffff1673ffffffffffffffffffffffffffffffffffffffff1681526020019081526020016000206040805190810160405280856fffffffffffffffffffffffffffffffff1681526020018367ffffffffffffffff1681525090806001815401808255809150509060018203906000526020600020016000909192909190915060008201518160000160006101000a8154816fffffffffffffffffffffffffffffffff02191690836fffffffffffffffffffffffffffffffff16021790555060208201518160000160106101000a81548167ffffffffffffffff021916908367ffffffffffffffff160217905550505050600191505b5092915050565b6000804290506009549150600061328e6301e1338061328060065485613ce990919063ffffffff16565b613e5190919063ffffffff16565b14156132b5576132ae606460095461030202613e5190919063ffffffff16565b9150613306565b60016132e26301e133806132d460065485613ce990919063ffffffff16565b613e5190919063ffffffff16565b14156133055761330260646009546101b302613e5190919063ffffffff16565b91505b5b5090565b6060601380548060200260200160405190810160405280929190818152602001828054801561338e57602002820191906000526020600020905b8160009054906101000a900473ffffffffffffffffffffffffffffffffffffffff1673ffffffffffffffffffffffffffffffffffffffff1681526020019060010190808311613344575b5050505050905090565b60106020528060005260406000206000915090508060000154908060010154908060020160009054906101000a900473ffffffffffffffffffffffffffffffffffffffff16908060030154908060040154908060050160009054906101000a900473ffffffffffffffffffffffffffffffffffffffff16905086565b60075481565b60055481565b6000806000601060008681526020019081526020016000209250601060006001870181526020019081526020016000209150600183600001540182600001819055504282600101819055508260030154826004018160001916905550838260020160006101000a81548173ffffffffffffffffffffffffffffffffffffffff021916908373ffffffffffffffffffffffffffffffffffffffff1602179055506134cc8260000154613e67565b826003018160001916905550838260050160006101000a81548173ffffffffffffffffffffffffffffffffffffffff021916908373ffffffffffffffffffffffffffffffffffffffff160217905550601182600001549080600181540180825580915050906001820390600052602060002001600090919290919091505550601260008573ffffffffffffffffffffffffffffffffffffffff1673ffffffffffffffffffffffffffffffffffffffff16815260200190815260200160002090506001816004015401816004018190555080600501826000015490806001815401808255809150509060018203906000526020600020016000909192909190915055505050505050565b60085481565b60095481565b6000809054906101000a900473ffffffffffffffffffffffffffffffffffffffff1673ffffffffffffffffffffffffffffffffffffffff163373ffffffffffffffffffffffffffffffffffffffff1614151561363c57600080fd5b600073ffffffffffffffffffffffffffffffffffffffff168173ffffffffffffffffffffffffffffffffffffffff161415151561367857600080fd5b806000806101000a81548173ffffffffffffffffffffffffffffffffffffffff021916908373ffffffffffffffffffffffffffffffffffffffff16021790555050565b600080600061370d601560008673ffffffffffffffffffffffffffffffffffffffff1673ffffffffffffffffffffffffffffffffffffffff16815260200190815260200160002054600a546003613d1e565b9050601560008573ffffffffffffffffffffffffffffffffffffffff1673ffffffffffffffffffffffffffffffffffffffff16815260200190815260200160002054819250925050915091565b60126020528060005260406000206000915090508060000154908060010154908060020154908060030160009054906101000a900473ffffffffffffffffffffffffffffffffffffffff16908060030160149054906101000a900460ff16908060040154908060060154908060070154905088565b6000806000613889601260008673ffffffffffffffffffffffffffffffffffffffff1673ffffffffffffffffffffffffffffffffffffffff16815260200190815260200160002060010154601560008060009054906101000a900473ffffffffffffffffffffffffffffffffffffffff1673ffffffffffffffffffffffffffffffffffffffff1673ffffffffffffffffffffffffffffffffffffffff16815260200190815260200160002054613d0290919063ffffffff16565b601560008060009054906101000a900473ffffffffffffffffffffffffffffffffffffffff1673ffffffffffffffffffffffffffffffffffffffff1673ffffffffffffffffffffffffffffffffffffffff16815260200190815260200160002081905550613944601260008673ffffffffffffffffffffffffffffffffffffffff1673ffffffffffffffffffffffffffffffffffffffff16815260200190815260200160002060010154600a54613ce990919063ffffffff16565b600a81905550600092505b601380549050831015613a6e576139e26015600060138681548110151561397257fe5b9060005260206000200160009054906101000a900473ffffffffffffffffffffffffffffffffffffffff1673ffffffffffffffffffffffffffffffffffffffff1673ffffffffffffffffffffffffffffffffffffffff16815260200190815260200160002054600a546003613d1e565b601260006013868154811015156139f557fe5b9060005260206000200160009054906101000a900473ffffffffffffffffffffffffffffffffffffffff1673ffffffffffffffffffffffffffffffffffffffff1673ffffffffffffffffffffffffffffffffffffffff16815260200190815260200160002060000181905550828060010193505061394f565b6000601260008673ffffffffffffffffffffffffffffffffffffffff1673ffffffffffffffffffffffffffffffffffffffff168152602001908152602001600020600101819055506000601560008673ffffffffffffffffffffffffffffffffffffffff1673ffffffffffffffffffffffffffffffffffffffff16815260200190815260200160002081905550429150601860008060009054906101000a900473ffffffffffffffffffffffffffffffffffffffff1673ffffffffffffffffffffffffffffffffffffffff1673ffffffffffffffffffffffffffffffffffffffff1681526020019081526020016000206040805190810160405280601560008060009054906101000a900473ffffffffffffffffffffffffffffffffffffffff1673ffffffffffffffffffffffffffffffffffffffff1673ffffffffffffffffffffffffffffffffffffffff168152602001908152602001600020546fffffffffffffffffffffffffffffffff1681526020018467ffffffffffffffff1681525090806001815401808255809150509060018203906000526020600020016000909192909190915060008201518160000160006101000a8154816fffffffffffffffffffffffffffffffff02191690836fffffffffffffffffffffffffffffffff16021790555060208201518160000160106101000a81548167ffffffffffffffff021916908367ffffffffffffffff1602179055505050506000601260008673ffffffffffffffffffffffffffffffffffffffff1673ffffffffffffffffffffffffffffffffffffffff16815260200190815260200160002060000181905550613cd884613fd9565b9050613ce381614065565b50505050565b6000828211151515613cf757fe5b818303905092915050565b60008183019050828110151515613d1557fe5b80905092915050565b600080600060018401600a0a86029150600a60058684811515613d3d57fe5b0401811515613d4857fe5b04905080925050509392505050565b600080600080429250613d6985611530565b9150600082111515613d7e5760009350613e49565b60095490506000613db06301e13380613da260065487613ce990919063ffffffff16565b613e5190919063ffffffff16565b1415613dd757613dd0606460095461030202613e5190919063ffffffff16565b9050613e28565b6001613e046301e13380613df660065487613ce990919063ffffffff16565b613e5190919063ffffffff16565b1415613e2757613e2460646009546101b302613e5190919063ffffffff16565b90505b5b613e46600354600a0a61016d02828402613e5190919063ffffffff16565b93505b505050919050565b60008183811515613e5e57fe5b04905092915050565b600080600060106000858152602001908152602001600020915060028260000154836001015484600401548560020160009054906101000a900473ffffffffffffffffffffffffffffffffffffffff166040516020018085815260200184815260200183600019166000191681526020018273ffffffffffffffffffffffffffffffffffffffff1673ffffffffffffffffffffffffffffffffffffffff166c010000000000000000000000000281526014019450505050506040516020818303038152906040526040518082805190602001908083835b602083101515613f635780518252602082019150602081019050602083039250613f3e565b6001836020036101000a0380198251168184511680821785525050505050509050019150506020604051808303816000865af1158015613fa7573d6000803e3d6000fd5b5050506040513d6020811015613fbc57600080fd5b810190808051906020019092919050505090508092505050919050565b600080600090505b8273ffffffffffffffffffffffffffffffffffffffff1660138281548110151561400757fe5b9060005260206000200160009054906101000a900473ffffffffffffffffffffffffffffffffffffffff1673ffffffffffffffffffffffffffffffffffffffff1614151561405c578080600101915050613fe1565b80915050919050565b5b6001601380549050038110156141175760136001820181548110151561408857fe5b9060005260206000200160009054906101000a900473ffffffffffffffffffffffffffffffffffffffff166013828154811015156140c257fe5b9060005260206000200160006101000a81548173ffffffffffffffffffffffffffffffffffffffff021916908373ffffffffffffffffffffffffffffffffffffffff1602179055508080600101915050614066565b601380548091906001900361412c9190614151565b5050565b508054600082559060005260206000209081019061414e919061417d565b50565b8154818355818111156141785781836000526020600020918201910161417791906141da565b5b505050565b6141d791905b808211156141d357600080820160006101000a8154906fffffffffffffffffffffffffffffffff02191690556000820160106101000a81549067ffffffffffffffff021916905550600101614183565b5090565b90565b6141fc91905b808211156141f85760008160009055506001016141e0565b5090565b905600a165627a7a7230582074df28db9a1b893ec5948a2ecf2923163d0ee33813844e2834995a22b223641c0029",
  "source": "pragma solidity ^0.4.23;\n\nimport \"../node_modules/openzeppelin-solidity/contracts/math/SafeMath.sol\";\n\n/**\n * @title Ownable\n * @dev The Ownable contract has an owner address, and provides basic authorization control\n * functions, this simplifies the implementation of \"user permissions\".\n */\ncontract Ownable {\n    address public owner;\n    /**\n     * @dev The Ownable constructor sets the original `owner` of the contract to the sender\n     * account.\n     */\n    constructor() public {\n        owner = msg.sender;\n    }\n    /**\n     * @dev Throws if called by any account other than the owner.\n     */\n    modifier onlyOwner() {\n        require(msg.sender == owner);\n        _;\n    }\n    /**\n     * @dev Allows the current owner to In control of the contract to a newOwner.\n     * @param newOwner The address to transfer ownership to.\n     */\n    function transferOwnership(address newOwner) public onlyOwner {\n        require(newOwner != address(0));\n        owner = newOwner;\n    }\n\n}\n\ncontract ZeCash_PoS is Ownable {\n\n    using SafeMath for uint256;\n\n    event Transfer(address indexed from, address indexed to, uint256 value);\n    event Approval(address indexed owner, address indexed spender, uint256 value);\n    event Mint(address indexed _address, uint _reward);\n    using SafeMath for uint256;\n    string public name = \"ZCHToken\";\n    string public symbol = \"ZCH\";\n    uint public decimals = 18;\n    uint public chainStartTime; //chain start time\n    uint public chainStartBlockNumber; //chain start block number\n    uint public stakeStartTime = now; //stake start time\n    uint public stakeMinAge = 50 seconds; // minimum age for coin age: 3M\n    uint public stakeMaxAge = 100 seconds; // stake age of full weight: 10M\n    uint public maxMintProofOfStake = 10**17; // default 10% annual interest\n    uint256 public totalStakedAmount;\n    uint256 public validatorindex;\n    uint256 public totalSupply;\n    uint256 public maxTotalSupply;\n    uint256 public totalInitialSupply;\n    address public etherOwner = 0x5993e434528E5b40A7676838f37CE3400F984744;\n    \n    /*** Structs ***************/\n    \n    struct Validator {\n        uint256 stakedPercent;\n        uint256 totalAmount;\n        uint256 earnedZecash;\n        address addr;\n        bool defValidator;\n        uint256 noBlocksForged;\n        uint256[] blocks;\n        uint256 index;\n        uint256 createdTime;\n    }\n    \n    struct transferInStruct{\n        uint128 amount;\n        uint64 time;\n    }\n\n    struct Block {\n        uint256 index;\n        uint256 timestamp;\n        address data;\n        bytes32 hash;\n        bytes32 prevHash;\n        address validator;\n    }\n\n    mapping (uint256 => Block) public blockchain;\n    uint256[] public blockIndexes;\n\n    /**** Validators ***************/\n\n    mapping (address => Validator) public validators;                      \n    address[] public validatorAccts;\n    uint128 next_validator_index = 1;                               \n    mapping(address => uint256) balances;\n    mapping(address => uint256) balancesInEth;\n    mapping(address => mapping (address => uint256)) allowed;\n    mapping(address => transferInStruct[]) transferIns;\n    \n    /*** Events ***************/\n    \n    \n    event Burn(address indexed burner, uint256 value);\n\n    /*** Modifiers ***************/\n\n    modifier canPoSMint() {\n        require(totalSupply < maxTotalSupply);\n        _;\n    }    //Total Supply should be less than maxTotalSupply\n    \n    /*** Functions ***************/\n\n    constructor() public {\n        \n        maxTotalSupply = 10 * 10**26; // 500 Mil.\n        totalInitialSupply = 10**26; // 1 Mil.\n        totalStakedAmount = 100000;\n        chainStartTime = block.timestamp;\n        chainStartBlockNumber = block.number;\n        uint64 _now = uint64(block.timestamp);\n        balances[owner] = totalInitialSupply;\n        totalSupply = totalInitialSupply;\n        validatorAccts = [0x8547375670f0dB79e59C832b2dcAeB0DdE2F6006,0x323233A2052D66b247c96d3A7E63164B5Cd8afBb,0x5Ac69B00570412aD65F59404308005b4bea0Db77,0xBD5DbFFe75274258bC9D0d907f957A2d0774D60f,0x1B2FE0836FB9306250C47143F7274ba38dD2cA07,0x8c4794FB81114A2daFe3B04eB3D4a3944752b276];\n        validatorindex = 6;\n\n        Block storage genesisblock = blockchain[0];\n        genesisblock.index = 0;\n        genesisblock.timestamp = block.timestamp;\n        genesisblock.hash = \"\";\n        genesisblock.prevHash = \"\";\n        genesisblock.validator = owner;\n        blockIndexes.push(genesisblock.index);\n\n        Validator storage validator1 = validators[0x8547375670f0dB79e59C832b2dcAeB0DdE2F6006];\n        \n        validator1.totalAmount = 4000;\n        validator1.earnedZecash = 0;\n        validator1.addr = 0x8547375670f0dB79e59C832b2dcAeB0DdE2F6006;\n        validator1.defValidator = true;\n        balances[0x8547375670f0dB79e59C832b2dcAeB0DdE2F6006] = 4000;\n        validator1.stakedPercent = percent(balances[0x8547375670f0dB79e59C832b2dcAeB0DdE2F6006],totalStakedAmount,3);\n        validator1.noBlocksForged = 0;\n        validator1.index = 1;\n        validator1.createdTime = block.timestamp;\n        transferIns[0x8547375670f0dB79e59C832b2dcAeB0DdE2F6006].push(transferInStruct(uint128(balances[0x8547375670f0dB79e59C832b2dcAeB0DdE2F6006]),_now));\n\n        Validator storage validator2 = validators[0x323233A2052D66b247c96d3A7E63164B5Cd8afBb];\n        \n        validator2.totalAmount = 6000;\n        validator2.earnedZecash = 0;\n        validator2.addr = 0x323233A2052D66b247c96d3A7E63164B5Cd8afBb;\n        validator2.noBlocksForged = 0;\n        validator2.index = 2;\n        validator2.defValidator = true;\n        validator2.createdTime = block.timestamp;\n        balances[0x323233A2052D66b247c96d3A7E63164B5Cd8afBb] = 6000;\n        validator2.stakedPercent = percent(balances[0x323233A2052D66b247c96d3A7E63164B5Cd8afBb],totalStakedAmount,3);\n        transferIns[0x323233A2052D66b247c96d3A7E63164B5Cd8afBb].push(transferInStruct(uint128(balances[0x323233A2052D66b247c96d3A7E63164B5Cd8afBb]),_now));\n\n        Validator storage validator3 = validators[0x5Ac69B00570412aD65F59404308005b4bea0Db77];\n       \n        validator3.totalAmount = 20000;\n        validator3.earnedZecash = 0;\n        validator3.addr = 0x5Ac69B00570412aD65F59404308005b4bea0Db77;\n        validator3.noBlocksForged = 0;\n        validator3.index = 3;\n        validator3.defValidator = true;\n        validator3.createdTime = block.timestamp;\n        balances[0x5Ac69B00570412aD65F59404308005b4bea0Db77] = 20000;\n        validator3.stakedPercent = percent(balances[0x5Ac69B00570412aD65F59404308005b4bea0Db77],totalStakedAmount,3);\n        transferIns[0x5Ac69B00570412aD65F59404308005b4bea0Db77].push(transferInStruct(uint128(balances[0x5Ac69B00570412aD65F59404308005b4bea0Db77]),_now));\n\n        Validator storage validator4 = validators[0xBD5DbFFe75274258bC9D0d907f957A2d0774D60f];\n       \n        validator4.totalAmount = 25000;\n        validator4.earnedZecash = 0;\n        validator4.addr = 0xBD5DbFFe75274258bC9D0d907f957A2d0774D60f;\n        validator4.noBlocksForged = 0;\n        validator4.defValidator = true;\n        validator4.index = 4;\n        validator4.createdTime = block.timestamp;\n        balances[0xBD5DbFFe75274258bC9D0d907f957A2d0774D60f] = 25000;\n        validator4.stakedPercent = percent(balances[0xBD5DbFFe75274258bC9D0d907f957A2d0774D60f],totalStakedAmount,3);\n        transferIns[0xBD5DbFFe75274258bC9D0d907f957A2d0774D60f].push(transferInStruct(uint128(balances[0xBD5DbFFe75274258bC9D0d907f957A2d0774D60f]),_now));\n\n        Validator storage validator5 = validators[0x1B2FE0836FB9306250C47143F7274ba38dD2cA07];\n        \n        validator5.totalAmount = 40000;\n        validator5.earnedZecash = 0;\n        validator5.addr = 0x1B2FE0836FB9306250C47143F7274ba38dD2cA07;\n        validator5.noBlocksForged = 0;\n        validator5.defValidator = true;\n        validator5.createdTime = block.timestamp;\n        validator5.index = 5;\n        balances[0x1B2FE0836FB9306250C47143F7274ba38dD2cA07] = 40000;\n        validator5.stakedPercent = percent(balances[0x1B2FE0836FB9306250C47143F7274ba38dD2cA07],totalStakedAmount,3);\n        transferIns[0x1B2FE0836FB9306250C47143F7274ba38dD2cA07].push(transferInStruct(uint128(balances[0x1B2FE0836FB9306250C47143F7274ba38dD2cA07]),_now));\n\n        Validator storage validator6 = validators[0x8c4794FB81114A2daFe3B04eB3D4a3944752b276];\n        \n        validator6.totalAmount = 5000;\n        validator6.earnedZecash = 0;\n        validator6.addr = 0x8c4794FB81114A2daFe3B04eB3D4a3944752b276;\n        validator6.noBlocksForged = 0;\n        validator6.defValidator = true;\n        validator6.index = 6;\n        validator6.createdTime = block.timestamp;\n        balances[0x8c4794FB81114A2daFe3B04eB3D4a3944752b276] = 5000;\n        validator6.stakedPercent = percent(balances[0x8c4794FB81114A2daFe3B04eB3D4a3944752b276],totalStakedAmount,3);\n        transferIns[0x8c4794FB81114A2daFe3B04eB3D4a3944752b276].push(transferInStruct(uint128(balances[0x8c4794FB81114A2daFe3B04eB3D4a3944752b276]),_now));    \n    }\n    \n    function transfer(address _to, uint256 _value) external returns (bool) {\n        if(msg.sender == _to) return mint(_to);\n        balances[msg.sender] = balances[msg.sender].sub(_value);\n        balances[_to] = balances[_to].add(_value);\n        emit Transfer(msg.sender, _to, _value);\n        if(transferIns[msg.sender].length > 0) delete transferIns[msg.sender];\n        uint64 _now = uint64(now);\n        transferIns[msg.sender].push(transferInStruct(uint128(balances[msg.sender]),_now));\n        transferIns[_to].push(transferInStruct(uint128(_value),_now));\n        return true;\n    }\n\n    function percent(uint256 numerator, uint256 denominator, uint256 precision) internal pure returns(uint) {\n         // caution, check safe-to-multiply here\n        uint _numerator  = numerator * 10 ** (precision+1);\n        // with rounding of last digit\n        uint _quotient =  ((_numerator / denominator) + 5) / 10;\n        return ( _quotient);\n    }\n\n\n    function getZecash(address _to, uint256 _value) external returns (bool) {\n\n        if (balances[owner] < _value || (balances[_to] + _value ) > 100000) return false;\n        validators[_to].totalAmount = validators[_to].totalAmount + _value;\n        balances[owner] = balances[owner].sub(_value);\n        balances[_to] = balances[_to].add(_value);\n        emit Transfer(owner, _to, _value);\n        if(transferIns[_to].length > 0) delete transferIns[_to];\n        uint64 _now = uint64(block.timestamp);\n        transferIns[owner].push(transferInStruct(uint128(balances[owner]),_now));\n        transferIns[_to].push(transferInStruct(uint128(_value),_now));\n        totalStakedAmount = totalStakedAmount + _value;\n        validators[_to].stakedPercent = percent(balances[_to],totalStakedAmount,3);\n\n        for (uint j = 0; j < validatorAccts.length; j++) {\n\n            validators[validatorAccts[j]].stakedPercent = percent(balances[(validatorAccts[j])],totalStakedAmount,3);\n            \n        }\n        \n        return true;\n    }\n\n    function getTestEther(address _to) external returns (bool) {\n        if (balancesInEth[etherOwner] < 1) return false;\n        balancesInEth[etherOwner] = balancesInEth[etherOwner].sub(1);\n        balancesInEth[_to] = balancesInEth[_to].add(1);\n        return true;\n    }\n    \n    function balanceOf(address _owner) external view returns (uint256 balance) {\n        return balances[_owner];\n    }\n\n    function calculateHash(uint256 newBlockIndex) internal view returns(bytes32) {\n        Block storage newblock = blockchain[newBlockIndex];\n        //abi.encodePacked(newblock.index, newblock.timestamp, newblock.prevHash, newblock.data)\n        bytes32 hash = sha256(abi.encodePacked(newblock.index, newblock.timestamp, newblock.prevHash, newblock.data));\n        return hash;\n    }\n\n    function forgeBlock(uint256 oldBlockIndex, address _address) external {\n        Block storage oldblock = blockchain[oldBlockIndex];\n        Block storage newblock = blockchain[oldBlockIndex+1];\n        newblock.index = oldblock.index + 1;\n        newblock.timestamp = now;\n        newblock.prevHash = oldblock.hash;\n        newblock.data = _address;\n        newblock.hash = calculateHash(newblock.index);\n        newblock.validator = _address;\n        blockIndexes.push(newblock.index);\n        Validator storage val = validators[_address];\n        val.noBlocksForged = val.noBlocksForged + 1;\n        val.blocks.push(newblock.index);\n    }\n\n    function getAllIndexes () view external returns (uint256[]) {\n        return blockIndexes;\n    }\n\n    function getBlock (uint256 index) view external returns (uint256, uint256, bytes32, bytes32, address) {\n        return (blockchain[index].index, blockchain[index].timestamp, blockchain[index].hash, blockchain[index].prevHash,blockchain[index].validator );\n    }\n\n    function isBlockValid(uint256 newBlockIndex, uint256 oldBlockIndex) external view returns(bool) {\n        if (oldBlockIndex != newBlockIndex) {\n            return false;\n        }\n        if (blockchain[oldBlockIndex].hash != blockchain[newBlockIndex].prevHash) {\n            return false;\n        }\n        if (calculateHash(newBlockIndex) != blockchain[newBlockIndex].hash) {\n            return false;\n        }\n        return true;\n    }\n    \n    function mint(address _address) canPoSMint public returns (bool) {\n        if(balances[_address] <= 0) return false;\n        if(transferIns[_address].length <= 0) return false;\n        uint reward = getProofOfStakeReward(_address);\n        if(reward <= 0) return false;\n        totalSupply = totalSupply.add(reward);  \n        Validator storage validatorBal = validators[_address];\n        validatorBal.earnedZecash = validatorBal.earnedZecash.add(reward.div(100));\n        delete transferIns[_address];\n        transferIns[_address].push(transferInStruct(uint128(balances[_address]),uint64(now)));\n        emit Mint(_address, reward);\n        return true;\n    }\n    \n    function getBlockNumber() view external returns (uint blockNumber) {\n        blockNumber = block.number.sub(chainStartBlockNumber);\n    }\n\n    function annualInterest() view external returns(uint interest) {\n        uint _now = now;\n        interest = maxMintProofOfStake;\n        if((_now.sub(stakeStartTime)).div(365 days) == 0) {\n            interest = (770 * maxMintProofOfStake).div(100);\n        } else if((_now.sub(stakeStartTime)).div(365 days) == 1){\n            interest = (435 * maxMintProofOfStake).div(100);\n        }\n    }\n    \n    function getCoinAge(address _address) view public returns (uint _coinAge) {\n        if(transferIns[_address].length <= 0) return 0;\n\n        for (uint i = 0; i < transferIns[_address].length; i++){\n            if( block.timestamp < uint(transferIns[_address][i].time).add(stakeMinAge) ) continue;\n\n            uint nCoinSeconds = block.timestamp.sub(uint(transferIns[_address][i].time));\n            if( nCoinSeconds > stakeMaxAge ) nCoinSeconds = stakeMaxAge;\n\n            _coinAge = _coinAge.add(uint(transferIns[_address][i].amount) * nCoinSeconds);\n        }\n        return _coinAge;\n    }\n    \n    function ownerBurnToken(uint _value) onlyOwner external {\n        require(_value > 0);\n        balances[owner] = balances[owner].sub(_value);\n        delete transferIns[owner];\n        transferIns[owner].push(transferInStruct(uint128(balances[owner]),uint64(now)));\n        totalSupply = totalSupply.sub(_value);\n        totalInitialSupply = totalInitialSupply.sub(_value);\n        maxTotalSupply = maxTotalSupply.sub(_value*10);\n        emit Burn(owner, _value);\n    }\n    \n    function getProofOfStakeReward(address _address) internal view returns (uint) {\n        //require( (now >= stakeStartTime) && (stakeStartTime > 0) );\n\n        uint _now = now;\n        uint _coinAge = getCoinAge(_address);\n        if(_coinAge <= 0) return 0;\n\n        uint interest = maxMintProofOfStake;\n        // Due to the high interest rate for the first two years, compounding should be taken into account.\n        // Effective annual interest rate = (1 + (nominal rate / number of compounding periods)) ^ (number of compounding periods) - 1\n        if((_now.sub(stakeStartTime)).div(365 days) == 0) {\n            // 1st year effective annual interest rate is 100% when we select the stakeMaxAge (90 days) as the compounding period.\n            interest = (770 * maxMintProofOfStake).div(100);\n        } else if((_now.sub(stakeStartTime)).div(365 days) == 1){\n            // 2nd year effective annual interest rate is 50%\n            interest = (435 * maxMintProofOfStake).div(100);\n        }\n\n        return (_coinAge * interest).div(365 * (10**decimals));\n    }\n\n    function setValidators (address _address) external {\n        validatorindex = validatorindex + 1;\n        Validator storage validator = validators[_address];\n        // validator.stakedPercent = 0;\n        validator.totalAmount = 0;\n        validator.addr = _address;\n        validator.defValidator = false;\n        validator.noBlocksForged = 0;\n        validator.index = validatorindex;\n        validator.createdTime = block.timestamp;\n        validatorAccts.push(_address);\n    }\n\n    function IndexOf(address _address) internal view returns(uint) {\n        uint i = 0;\n        while (validatorAccts[i] != _address) {\n            i++;\n        }\n        return i;\n    }\n\n    function removeValidators(address[] _alladdresses) external {\n\n        for (uint k = 0; k < _alladdresses.length; k++) {\n            remValidator(_alladdresses[k]);\n        }\n    }\n\n  /** Removes the given value in an array. */\n    function remValidator(address _address) internal {\n        balances[owner] = balances[owner].add(validators[_address].totalAmount);\n        totalStakedAmount = totalStakedAmount.sub(validators[_address].totalAmount);\n        for (uint j = 0; j < validatorAccts.length; j++) {\n            validators[validatorAccts[j]].stakedPercent = percent(balances[(validatorAccts[j])],totalStakedAmount,3);\n        }\n        validators[_address].totalAmount = 0;\n        balances[_address] = 0;\n        uint64 _now = uint64(now);\n        transferIns[owner].push(transferInStruct(uint128(balances[owner]),_now));\n        validators[_address].stakedPercent = 0;\n        uint i = IndexOf(_address);\n        RemoveByIndex(i);\n    }\n\n  /** Removes the value at the given index in an array. */\n    function RemoveByIndex(uint _i) internal {\n        while (_i<validatorAccts.length-1) {\n            validatorAccts[_i] = validatorAccts[_i+1];\n            _i++;\n        }\n        validatorAccts.length--;\n    }\n\n    function getValidators () view external returns (address[]) {\n        return validatorAccts;\n    }\n\n    function getValidator (address ins) view external returns (uint256,uint256,uint256, address, bool, uint256,uint) {\n       \n        return (validators[ins].totalAmount,validators[ins].stakedPercent,validators[ins].earnedZecash, validators[ins].addr, validators[ins].defValidator,validators[ins].noBlocksForged, validators[ins].createdTime);\n    }\n\n    function getValidatorForIndex (address ins) view external returns (uint256,uint256,uint256, address, bool, uint256, uint256) {\n       \n        return (validators[ins].totalAmount,validators[ins].stakedPercent,validators[ins].earnedZecash, validators[ins].addr, validators[ins].defValidator,validators[ins].noBlocksForged, validators[ins].index);\n    }\n\n    function countValidators() view external returns (uint) {\n        return validatorAccts.length;\n    }\n    \n    function getBalance(address addr) external view returns(uint,uint) {\n        uint256 stakedpercent = percent(balances[addr],totalStakedAmount,3);\n        return (balances[addr],stakedpercent);\n    }\n\n}",
  "sourcePath": "/home/akash/BlockChain_Workspace/ZeCash/Coin-Dev/contracts/ZeCash_PoS.sol",
  "compiler": {
    "name": "solc",
    "version": "0.4.24+commit.e67f0147.Emscripten.clang"
  },
  "schemaVersion": "2.0.0",
  "updatedAt": "2018-06-20T15:05:42.748Z"
}