{
  "contractName": "ZeCash_PoS",
  "abi": [
    {
      "constant": true,
      "inputs": [],
      "name": "name",
      "outputs": [
        {
          "name": "",
          "type": "string"
        }
      ],
      "payable": false,
      "stateMutability": "view",
      "type": "function"
    },
    {
      "constant": true,
      "inputs": [],
      "name": "totalSupply",
      "outputs": [
        {
          "name": "",
          "type": "uint256"
        }
      ],
      "payable": false,
      "stateMutability": "view",
      "type": "function"
    },
    {
      "constant": true,
      "inputs": [],
      "name": "maxTotalSupply",
      "outputs": [
        {
          "name": "",
          "type": "uint256"
        }
      ],
      "payable": false,
      "stateMutability": "view",
      "type": "function"
    },
    {
      "constant": true,
      "inputs": [],
      "name": "decimals",
      "outputs": [
        {
          "name": "",
          "type": "uint256"
        }
      ],
      "payable": false,
      "stateMutability": "view",
      "type": "function"
    },
    {
      "constant": true,
      "inputs": [
        {
          "name": "",
          "type": "uint256"
        }
      ],
      "name": "blockIndexes",
      "outputs": [
        {
          "name": "",
          "type": "uint256"
        }
      ],
      "payable": false,
      "stateMutability": "view",
      "type": "function"
    },
    {
      "constant": true,
      "inputs": [
        {
          "name": "",
          "type": "uint256"
        }
      ],
      "name": "validatorAccts",
      "outputs": [
        {
          "name": "",
          "type": "address"
        }
      ],
      "payable": false,
      "stateMutability": "view",
      "type": "function"
    },
    {
      "constant": true,
      "inputs": [],
      "name": "etherOwner",
      "outputs": [
        {
          "name": "",
          "type": "address"
        }
      ],
      "payable": false,
      "stateMutability": "view",
      "type": "function"
    },
    {
      "constant": true,
      "inputs": [],
      "name": "chainStartTime",
      "outputs": [
        {
          "name": "",
          "type": "uint256"
        }
      ],
      "payable": false,
      "stateMutability": "view",
      "type": "function"
    },
    {
      "constant": true,
      "inputs": [],
      "name": "stakeStartTime",
      "outputs": [
        {
          "name": "",
          "type": "uint256"
        }
      ],
      "payable": false,
      "stateMutability": "view",
      "type": "function"
    },
    {
      "constant": true,
      "inputs": [],
      "name": "owner",
      "outputs": [
        {
          "name": "",
          "type": "address"
        }
      ],
      "payable": false,
      "stateMutability": "view",
      "type": "function"
    },
    {
      "constant": true,
      "inputs": [],
      "name": "symbol",
      "outputs": [
        {
          "name": "",
          "type": "string"
        }
      ],
      "payable": false,
      "stateMutability": "view",
      "type": "function"
    },
    {
      "constant": true,
      "inputs": [],
      "name": "totalInitialSupply",
      "outputs": [
        {
          "name": "",
          "type": "uint256"
        }
      ],
      "payable": false,
      "stateMutability": "view",
      "type": "function"
    },
    {
      "constant": true,
      "inputs": [
        {
          "name": "",
          "type": "uint256"
        }
      ],
      "name": "blockchain",
      "outputs": [
        {
          "name": "index",
          "type": "uint256"
        },
        {
          "name": "timestamp",
          "type": "uint256"
        },
        {
          "name": "data",
          "type": "address"
        },
        {
          "name": "hash",
          "type": "bytes32"
        },
        {
          "name": "prevHash",
          "type": "bytes32"
        },
        {
          "name": "validator",
          "type": "address"
        }
      ],
      "payable": false,
      "stateMutability": "view",
      "type": "function"
    },
    {
      "constant": true,
      "inputs": [],
      "name": "stakeMinAge",
      "outputs": [
        {
          "name": "",
          "type": "uint256"
        }
      ],
      "payable": false,
      "stateMutability": "view",
      "type": "function"
    },
    {
      "constant": true,
      "inputs": [],
      "name": "chainStartBlockNumber",
      "outputs": [
        {
          "name": "",
          "type": "uint256"
        }
      ],
      "payable": false,
      "stateMutability": "view",
      "type": "function"
    },
    {
      "constant": true,
      "inputs": [],
      "name": "stakeMaxAge",
      "outputs": [
        {
          "name": "",
          "type": "uint256"
        }
      ],
      "payable": false,
      "stateMutability": "view",
      "type": "function"
    },
    {
      "constant": true,
      "inputs": [],
      "name": "maxMintProofOfStake",
      "outputs": [
        {
          "name": "",
          "type": "uint256"
        }
      ],
      "payable": false,
      "stateMutability": "view",
      "type": "function"
    },
    {
      "constant": false,
      "inputs": [
        {
          "name": "newOwner",
          "type": "address"
        }
      ],
      "name": "transferOwnership",
      "outputs": [],
      "payable": false,
      "stateMutability": "nonpayable",
      "type": "function"
    },
    {
      "constant": true,
      "inputs": [
        {
          "name": "",
          "type": "address"
        }
      ],
      "name": "validators",
      "outputs": [
        {
          "name": "stakedPercent",
          "type": "uint256"
        },
        {
          "name": "totalAmount",
          "type": "uint256"
        },
        {
          "name": "earnedZecash",
          "type": "uint256"
        },
        {
          "name": "addr",
          "type": "address"
        },
        {
          "name": "defValidator",
          "type": "bool"
        },
        {
          "name": "noBlocksForged",
          "type": "uint256"
        }
      ],
      "payable": false,
      "stateMutability": "view",
      "type": "function"
    },
    {
      "inputs": [],
      "payable": false,
      "stateMutability": "nonpayable",
      "type": "constructor"
    },
    {
      "anonymous": false,
      "inputs": [
        {
          "indexed": true,
          "name": "from",
          "type": "address"
        },
        {
          "indexed": true,
          "name": "to",
          "type": "address"
        },
        {
          "indexed": false,
          "name": "value",
          "type": "uint256"
        }
      ],
      "name": "Transfer",
      "type": "event"
    },
    {
      "anonymous": false,
      "inputs": [
        {
          "indexed": true,
          "name": "owner",
          "type": "address"
        },
        {
          "indexed": true,
          "name": "spender",
          "type": "address"
        },
        {
          "indexed": false,
          "name": "value",
          "type": "uint256"
        }
      ],
      "name": "Approval",
      "type": "event"
    },
    {
      "anonymous": false,
      "inputs": [
        {
          "indexed": true,
          "name": "_address",
          "type": "address"
        },
        {
          "indexed": false,
          "name": "_reward",
          "type": "uint256"
        }
      ],
      "name": "Mint",
      "type": "event"
    },
    {
      "anonymous": false,
      "inputs": [
        {
          "indexed": true,
          "name": "burner",
          "type": "address"
        },
        {
          "indexed": false,
          "name": "value",
          "type": "uint256"
        }
      ],
      "name": "Burn",
      "type": "event"
    },
    {
      "constant": false,
      "inputs": [
        {
          "name": "_to",
          "type": "address"
        },
        {
          "name": "_value",
          "type": "uint256"
        }
      ],
      "name": "transfer",
      "outputs": [
        {
          "name": "",
          "type": "bool"
        }
      ],
      "payable": false,
      "stateMutability": "nonpayable",
      "type": "function"
    },
    {
      "constant": false,
      "inputs": [
        {
          "name": "_to",
          "type": "address"
        },
        {
          "name": "_value",
          "type": "uint256"
        }
      ],
      "name": "getZecash",
      "outputs": [
        {
          "name": "",
          "type": "bool"
        }
      ],
      "payable": false,
      "stateMutability": "nonpayable",
      "type": "function"
    },
    {
      "constant": false,
      "inputs": [
        {
          "name": "_to",
          "type": "address"
        }
      ],
      "name": "getTestEther",
      "outputs": [
        {
          "name": "",
          "type": "bool"
        }
      ],
      "payable": false,
      "stateMutability": "nonpayable",
      "type": "function"
    },
    {
      "constant": true,
      "inputs": [
        {
          "name": "_owner",
          "type": "address"
        }
      ],
      "name": "balanceOf",
      "outputs": [
        {
          "name": "balance",
          "type": "uint256"
        }
      ],
      "payable": false,
      "stateMutability": "view",
      "type": "function"
    },
    {
      "constant": false,
      "inputs": [
        {
          "name": "oldBlockIndex",
          "type": "uint256"
        },
        {
          "name": "_address",
          "type": "address"
        }
      ],
      "name": "forgeBlock",
      "outputs": [],
      "payable": false,
      "stateMutability": "nonpayable",
      "type": "function"
    },
    {
      "constant": true,
      "inputs": [],
      "name": "getAllIndexes",
      "outputs": [
        {
          "name": "",
          "type": "uint256[]"
        }
      ],
      "payable": false,
      "stateMutability": "view",
      "type": "function"
    },
    {
      "constant": true,
      "inputs": [
        {
          "name": "index",
          "type": "uint256"
        }
      ],
      "name": "getBlock",
      "outputs": [
        {
          "name": "",
          "type": "uint256"
        },
        {
          "name": "",
          "type": "uint256"
        },
        {
          "name": "",
          "type": "bytes32"
        },
        {
          "name": "",
          "type": "bytes32"
        },
        {
          "name": "",
          "type": "address"
        }
      ],
      "payable": false,
      "stateMutability": "view",
      "type": "function"
    },
    {
      "constant": true,
      "inputs": [
        {
          "name": "newBlockIndex",
          "type": "uint256"
        },
        {
          "name": "oldBlockIndex",
          "type": "uint256"
        }
      ],
      "name": "isBlockValid",
      "outputs": [
        {
          "name": "",
          "type": "bool"
        }
      ],
      "payable": false,
      "stateMutability": "view",
      "type": "function"
    },
    {
      "constant": false,
      "inputs": [
        {
          "name": "_address",
          "type": "address"
        }
      ],
      "name": "mint",
      "outputs": [
        {
          "name": "",
          "type": "bool"
        }
      ],
      "payable": false,
      "stateMutability": "nonpayable",
      "type": "function"
    },
    {
      "constant": true,
      "inputs": [],
      "name": "getBlockNumber",
      "outputs": [
        {
          "name": "blockNumber",
          "type": "uint256"
        }
      ],
      "payable": false,
      "stateMutability": "view",
      "type": "function"
    },
    {
      "constant": true,
      "inputs": [],
      "name": "annualInterest",
      "outputs": [
        {
          "name": "interest",
          "type": "uint256"
        }
      ],
      "payable": false,
      "stateMutability": "view",
      "type": "function"
    },
    {
      "constant": true,
      "inputs": [
        {
          "name": "_address",
          "type": "address"
        }
      ],
      "name": "getCoinAge",
      "outputs": [
        {
          "name": "_coinAge",
          "type": "uint256"
        }
      ],
      "payable": false,
      "stateMutability": "view",
      "type": "function"
    },
    {
      "constant": false,
      "inputs": [
        {
          "name": "_value",
          "type": "uint256"
        }
      ],
      "name": "ownerBurnToken",
      "outputs": [],
      "payable": false,
      "stateMutability": "nonpayable",
      "type": "function"
    },
    {
      "constant": false,
      "inputs": [
        {
          "name": "_address",
          "type": "address"
        }
      ],
      "name": "setValidators",
      "outputs": [],
      "payable": false,
      "stateMutability": "nonpayable",
      "type": "function"
    },
    {
      "constant": false,
      "inputs": [
        {
          "name": "_address",
          "type": "address"
        }
      ],
      "name": "removeValidator",
      "outputs": [],
      "payable": false,
      "stateMutability": "nonpayable",
      "type": "function"
    },
    {
      "constant": true,
      "inputs": [],
      "name": "getValidators",
      "outputs": [
        {
          "name": "",
          "type": "address[]"
        }
      ],
      "payable": false,
      "stateMutability": "view",
      "type": "function"
    },
    {
      "constant": true,
      "inputs": [
        {
          "name": "ins",
          "type": "address"
        }
      ],
      "name": "getValidator",
      "outputs": [
        {
          "name": "",
          "type": "uint256"
        },
        {
          "name": "",
          "type": "uint256"
        },
        {
          "name": "",
          "type": "uint256"
        },
        {
          "name": "",
          "type": "address"
        },
        {
          "name": "",
          "type": "bool"
        },
        {
          "name": "",
          "type": "uint256"
        },
        {
          "name": "",
          "type": "uint256[]"
        }
      ],
      "payable": false,
      "stateMutability": "view",
      "type": "function"
    },
    {
      "constant": true,
      "inputs": [],
      "name": "countValidators",
      "outputs": [
        {
          "name": "",
          "type": "uint256"
        }
      ],
      "payable": false,
      "stateMutability": "view",
      "type": "function"
    },
    {
      "constant": true,
      "inputs": [
        {
          "name": "addr",
          "type": "address"
        }
      ],
      "name": "getBalance",
      "outputs": [
        {
          "name": "",
          "type": "uint256"
        },
        {
          "name": "",
          "type": "uint256"
        }
      ],
      "payable": false,
      "stateMutability": "view",
      "type": "function"
    }
  ],
  "bytecode": "0x60806040526040805190810160405280600881526020017f5a4348546f6b656e000000000000000000000000000000000000000000000000815250600190805190602001906200005192919062001841565b506040805190810160405280600381526020017f5a43480000000000000000000000000000000000000000000000000000000000815250600290805190602001906200009f92919062001841565b506012600355426006556032600755606460085567016345785d8a00006009556000600a55735993e434528e5b40a7676838f37ce3400f984744600e60006101000a81548173ffffffffffffffffffffffffffffffffffffffff021916908373ffffffffffffffffffffffffffffffffffffffff1602179055506001601360006101000a8154816fffffffffffffffffffffffffffffffff02191690836fffffffffffffffffffffffffffffffff1602179055503480156200016057600080fd5b50600080600080600080600080336000806101000a81548173ffffffffffffffffffffffffffffffffffffffff021916908373ffffffffffffffffffffffffffffffffffffffff1602179055506b033b2e3c9fd0803ce8000000600c819055506a52b7d2dcc80cd2e4000000600d81905550620186a0600a819055504260048190555043600581905550429750600d54601460008060009054906101000a900473ffffffffffffffffffffffffffffffffffffffff1673ffffffffffffffffffffffffffffffffffffffff1673ffffffffffffffffffffffffffffffffffffffff16815260200190815260200160002081905550600d54600b8190555060c060405190810160405280738547375670f0db79e59c832b2dcaeb0dde2f600673ffffffffffffffffffffffffffffffffffffffff1673ffffffffffffffffffffffffffffffffffffffff16815260200173323233a2052d66b247c96d3a7e63164b5cd8afbb73ffffffffffffffffffffffffffffffffffffffff1673ffffffffffffffffffffffffffffffffffffffff168152602001735ac69b00570412ad65f59404308005b4bea0db7773ffffffffffffffffffffffffffffffffffffffff1673ffffffffffffffffffffffffffffffffffffffff16815260200173bd5dbffe75274258bc9d0d907f957a2d0774d60f73ffffffffffffffffffffffffffffffffffffffff1673ffffffffffffffffffffffffffffffffffffffff168152602001731b2fe0836fb9306250c47143f7274ba38dd2ca0773ffffffffffffffffffffffffffffffffffffffff1673ffffffffffffffffffffffffffffffffffffffff168152602001738c4794fb81114a2dafe3b04eb3d4a3944752b27673ffffffffffffffffffffffffffffffffffffffff1673ffffffffffffffffffffffffffffffffffffffff1681525060129060066200041d929190620018c8565b50600f6000808152602001908152602001600020965060008760000181905550428760010181905550600087600301816000191690555060008760040181600019169055506000809054906101000a900473ffffffffffffffffffffffffffffffffffffffff168760050160006101000a81548173ffffffffffffffffffffffffffffffffffffffff021916908373ffffffffffffffffffffffffffffffffffffffff16021790555060108760000154908060018154018082558091505090600182039060005260206000200160009091929091909150555060116000738547375670f0db79e59c832b2dcaeb0dde2f600673ffffffffffffffffffffffffffffffffffffffff1673ffffffffffffffffffffffffffffffffffffffff1681526020019081526020016000209550610fa0866001018190555060008660020181905550738547375670f0db79e59c832b2dcaeb0dde2f60068660030160006101000a81548173ffffffffffffffffffffffffffffffffffffffff021916908373ffffffffffffffffffffffffffffffffffffffff16021790555060018660030160146101000a81548160ff021916908315150217905550610fa060146000738547375670f0db79e59c832b2dcaeb0dde2f600673ffffffffffffffffffffffffffffffffffffffff1673ffffffffffffffffffffffffffffffffffffffff16815260200190815260200160002081905550620006a060146000738547375670f0db79e59c832b2dcaeb0dde2f600673ffffffffffffffffffffffffffffffffffffffff1673ffffffffffffffffffffffffffffffffffffffff16815260200190815260200160002054600a54600362001806640100000000026401000000009004565b86600001819055506000866004018190555060176000738547375670f0db79e59c832b2dcaeb0dde2f600673ffffffffffffffffffffffffffffffffffffffff1673ffffffffffffffffffffffffffffffffffffffff168152602001908152602001600020604080519081016040528060146000738547375670f0db79e59c832b2dcaeb0dde2f600673ffffffffffffffffffffffffffffffffffffffff1673ffffffffffffffffffffffffffffffffffffffff168152602001908152602001600020546fffffffffffffffffffffffffffffffff1681526020018a67ffffffffffffffff1681525090806001815401808255809150509060018203906000526020600020016000909192909190915060008201518160000160006101000a8154816fffffffffffffffffffffffffffffffff02191690836fffffffffffffffffffffffffffffffff16021790555060208201518160000160106101000a81548167ffffffffffffffff021916908367ffffffffffffffff1602179055505050506011600073323233a2052d66b247c96d3a7e63164b5cd8afbb73ffffffffffffffffffffffffffffffffffffffff1673ffffffffffffffffffffffffffffffffffffffff168152602001908152602001600020945061177085600101819055506000856002018190555073323233a2052d66b247c96d3a7e63164b5cd8afbb8560030160006101000a81548173ffffffffffffffffffffffffffffffffffffffff021916908373ffffffffffffffffffffffffffffffffffffffff1602179055506000856004018190555060018560030160146101000a81548160ff0219169083151502179055506117706014600073323233a2052d66b247c96d3a7e63164b5cd8afbb73ffffffffffffffffffffffffffffffffffffffff1673ffffffffffffffffffffffffffffffffffffffff16815260200190815260200160002081905550620009d56014600073323233a2052d66b247c96d3a7e63164b5cd8afbb73ffffffffffffffffffffffffffffffffffffffff1673ffffffffffffffffffffffffffffffffffffffff16815260200190815260200160002054600a54600362001806640100000000026401000000009004565b85600001819055506017600073323233a2052d66b247c96d3a7e63164b5cd8afbb73ffffffffffffffffffffffffffffffffffffffff1673ffffffffffffffffffffffffffffffffffffffff16815260200190815260200160002060408051908101604052806014600073323233a2052d66b247c96d3a7e63164b5cd8afbb73ffffffffffffffffffffffffffffffffffffffff1673ffffffffffffffffffffffffffffffffffffffff168152602001908152602001600020546fffffffffffffffffffffffffffffffff1681526020018a67ffffffffffffffff1681525090806001815401808255809150509060018203906000526020600020016000909192909190915060008201518160000160006101000a8154816fffffffffffffffffffffffffffffffff02191690836fffffffffffffffffffffffffffffffff16021790555060208201518160000160106101000a81548167ffffffffffffffff021916908367ffffffffffffffff16021790555050505060116000735ac69b00570412ad65f59404308005b4bea0db7773ffffffffffffffffffffffffffffffffffffffff1673ffffffffffffffffffffffffffffffffffffffff1681526020019081526020016000209350614e20846001018190555060008460020181905550735ac69b00570412ad65f59404308005b4bea0db778460030160006101000a81548173ffffffffffffffffffffffffffffffffffffffff021916908373ffffffffffffffffffffffffffffffffffffffff1602179055506000846004018190555060018460030160146101000a81548160ff021916908315150217905550614e2060146000735ac69b00570412ad65f59404308005b4bea0db7773ffffffffffffffffffffffffffffffffffffffff1673ffffffffffffffffffffffffffffffffffffffff1681526020019081526020016000208190555062000d0060146000735ac69b00570412ad65f59404308005b4bea0db7773ffffffffffffffffffffffffffffffffffffffff1673ffffffffffffffffffffffffffffffffffffffff16815260200190815260200160002054600a54600362001806640100000000026401000000009004565b846000018190555060176000735ac69b00570412ad65f59404308005b4bea0db7773ffffffffffffffffffffffffffffffffffffffff1673ffffffffffffffffffffffffffffffffffffffff168152602001908152602001600020604080519081016040528060146000735ac69b00570412ad65f59404308005b4bea0db7773ffffffffffffffffffffffffffffffffffffffff1673ffffffffffffffffffffffffffffffffffffffff168152602001908152602001600020546fffffffffffffffffffffffffffffffff1681526020018a67ffffffffffffffff1681525090806001815401808255809150509060018203906000526020600020016000909192909190915060008201518160000160006101000a8154816fffffffffffffffffffffffffffffffff02191690836fffffffffffffffffffffffffffffffff16021790555060208201518160000160106101000a81548167ffffffffffffffff021916908367ffffffffffffffff1602179055505050506011600073bd5dbffe75274258bc9d0d907f957a2d0774d60f73ffffffffffffffffffffffffffffffffffffffff1673ffffffffffffffffffffffffffffffffffffffff16815260200190815260200160002092506161a883600101819055506000836002018190555073bd5dbffe75274258bc9d0d907f957a2d0774d60f8360030160006101000a81548173ffffffffffffffffffffffffffffffffffffffff021916908373ffffffffffffffffffffffffffffffffffffffff1602179055506000836004018190555060018360030160146101000a81548160ff0219169083151502179055506161a86014600073bd5dbffe75274258bc9d0d907f957a2d0774d60f73ffffffffffffffffffffffffffffffffffffffff1673ffffffffffffffffffffffffffffffffffffffff168152602001908152602001600020819055506200102b6014600073bd5dbffe75274258bc9d0d907f957a2d0774d60f73ffffffffffffffffffffffffffffffffffffffff1673ffffffffffffffffffffffffffffffffffffffff16815260200190815260200160002054600a54600362001806640100000000026401000000009004565b83600001819055506017600073bd5dbffe75274258bc9d0d907f957a2d0774d60f73ffffffffffffffffffffffffffffffffffffffff1673ffffffffffffffffffffffffffffffffffffffff16815260200190815260200160002060408051908101604052806014600073bd5dbffe75274258bc9d0d907f957a2d0774d60f73ffffffffffffffffffffffffffffffffffffffff1673ffffffffffffffffffffffffffffffffffffffff168152602001908152602001600020546fffffffffffffffffffffffffffffffff1681526020018a67ffffffffffffffff1681525090806001815401808255809150509060018203906000526020600020016000909192909190915060008201518160000160006101000a8154816fffffffffffffffffffffffffffffffff02191690836fffffffffffffffffffffffffffffffff16021790555060208201518160000160106101000a81548167ffffffffffffffff021916908367ffffffffffffffff16021790555050505060116000731b2fe0836fb9306250c47143f7274ba38dd2ca0773ffffffffffffffffffffffffffffffffffffffff1673ffffffffffffffffffffffffffffffffffffffff1681526020019081526020016000209150619c40826001018190555060008260020181905550731b2fe0836fb9306250c47143f7274ba38dd2ca078260030160006101000a81548173ffffffffffffffffffffffffffffffffffffffff021916908373ffffffffffffffffffffffffffffffffffffffff1602179055506000826004018190555060018260030160146101000a81548160ff021916908315150217905550619c4060146000731b2fe0836fb9306250c47143f7274ba38dd2ca0773ffffffffffffffffffffffffffffffffffffffff1673ffffffffffffffffffffffffffffffffffffffff168152602001908152602001600020819055506200135660146000731b2fe0836fb9306250c47143f7274ba38dd2ca0773ffffffffffffffffffffffffffffffffffffffff1673ffffffffffffffffffffffffffffffffffffffff16815260200190815260200160002054600a54600362001806640100000000026401000000009004565b826000018190555060176000731b2fe0836fb9306250c47143f7274ba38dd2ca0773ffffffffffffffffffffffffffffffffffffffff1673ffffffffffffffffffffffffffffffffffffffff168152602001908152602001600020604080519081016040528060146000731b2fe0836fb9306250c47143f7274ba38dd2ca0773ffffffffffffffffffffffffffffffffffffffff1673ffffffffffffffffffffffffffffffffffffffff168152602001908152602001600020546fffffffffffffffffffffffffffffffff1681526020018a67ffffffffffffffff1681525090806001815401808255809150509060018203906000526020600020016000909192909190915060008201518160000160006101000a8154816fffffffffffffffffffffffffffffffff02191690836fffffffffffffffffffffffffffffffff16021790555060208201518160000160106101000a81548167ffffffffffffffff021916908367ffffffffffffffff16021790555050505060116000738c4794fb81114a2dafe3b04eb3d4a3944752b27673ffffffffffffffffffffffffffffffffffffffff1673ffffffffffffffffffffffffffffffffffffffff1681526020019081526020016000209050611388816001018190555060008160020181905550738c4794fb81114a2dafe3b04eb3d4a3944752b2768160030160006101000a81548173ffffffffffffffffffffffffffffffffffffffff021916908373ffffffffffffffffffffffffffffffffffffffff1602179055506000816004018190555060018160030160146101000a81548160ff02191690831515021790555061138860146000738c4794fb81114a2dafe3b04eb3d4a3944752b27673ffffffffffffffffffffffffffffffffffffffff1673ffffffffffffffffffffffffffffffffffffffff168152602001908152602001600020819055506200168160146000738c4794fb81114a2dafe3b04eb3d4a3944752b27673ffffffffffffffffffffffffffffffffffffffff1673ffffffffffffffffffffffffffffffffffffffff16815260200190815260200160002054600a54600362001806640100000000026401000000009004565b816000018190555060176000738c4794fb81114a2dafe3b04eb3d4a3944752b27673ffffffffffffffffffffffffffffffffffffffff1673ffffffffffffffffffffffffffffffffffffffff168152602001908152602001600020604080519081016040528060146000738c4794fb81114a2dafe3b04eb3d4a3944752b27673ffffffffffffffffffffffffffffffffffffffff1673ffffffffffffffffffffffffffffffffffffffff168152602001908152602001600020546fffffffffffffffffffffffffffffffff1681526020018a67ffffffffffffffff1681525090806001815401808255809150509060018203906000526020600020016000909192909190915060008201518160000160006101000a8154816fffffffffffffffffffffffffffffffff02191690836fffffffffffffffffffffffffffffffff16021790555060208201518160000160106101000a81548167ffffffffffffffff021916908367ffffffffffffffff1602179055505050505050505050505050620019c5565b600080600060018401600a0a86029150600a600586848115156200182657fe5b04018115156200183257fe5b04905080925050509392505050565b828054600181600116156101000203166002900490600052602060002090601f016020900481019282601f106200188457805160ff1916838001178555620018b5565b82800160010185558215620018b5579182015b82811115620018b457825182559160200191906001019062001897565b5b509050620018c4919062001957565b5090565b82805482825590600052602060002090810192821562001944579160200282015b82811115620019435782518260006101000a81548173ffffffffffffffffffffffffffffffffffffffff021916908373ffffffffffffffffffffffffffffffffffffffff16021790555091602001919060010190620018e9565b5b5090506200195391906200197f565b5090565b6200197c91905b80821115620019785760008160009055506001016200195e565b5090565b90565b620019c291905b80821115620019be57600081816101000a81549073ffffffffffffffffffffffffffffffffffffffff02191690555060010162001986565b5090565b90565b613edb80620019d56000396000f3006080604052600436106101d8576000357c0100000000000000000000000000000000000000000000000000000000900463ffffffff16806304c07569146101dd57806306fdde031461027657806318160ddd146103065780631904bb2e146103315780632ab4d0521461042357806330a0f7681461044e578063313ce5671461049157806331eebae3146104bc5780633fbe0a1f146104fd57806340a141ff1461056a5780634153e85e146105ad57806342cbb15c1461060457806344d998fa1461062f578063523113dd146106865780635b054f9b146106eb5780636a6278421461071657806370a08231146107715780637419f190146107c85780638d779813146107f35780638da5cb5b1461084e57806390762a8b146108a557806395d89b41146108d257806397f3c806146109625780639fd4da401461098d578063a2f0a1f2146109b8578063a57e990214610a24578063a9059cbb14610a73578063b2552fc414610ad8578063b7ab4db514610b03578063c25b1eaf14610b6f578063cbd8877e14610c3b578063cd474b0414610c66578063d377234b14610c91578063e1c3bac614610cde578063f2bb5ce114610d09578063f2fde38b14610d34578063f8b2cb4f14610d77578063fa52c7d814610dd5575b600080fd5b3480156101e957600080fd5b5061020860048036038101908080359060200190929190505050610e7f565b60405180868152602001858152602001846000191660001916815260200183600019166000191681526020018273ffffffffffffffffffffffffffffffffffffffff1673ffffffffffffffffffffffffffffffffffffffff1681526020019550505050505060405180910390f35b34801561028257600080fd5b5061028b610f2d565b6040518080602001828103825283818151815260200191508051906020019080838360005b838110156102cb5780820151818401526020810190506102b0565b50505050905090810190601f1680156102f85780820380516001836020036101000a031916815260200191505b509250505060405180910390f35b34801561031257600080fd5b5061031b610fcb565b6040518082815260200191505060405180910390f35b34801561033d57600080fd5b50610372600480360381019080803573ffffffffffffffffffffffffffffffffffffffff169060200190929190505050610fd1565b604051808881526020018781526020018681526020018573ffffffffffffffffffffffffffffffffffffffff1673ffffffffffffffffffffffffffffffffffffffff1681526020018415151515815260200183815260200180602001828103825283818151815260200191508051906020019060200280838360005b838110156104095780820151818401526020810190506103ee565b505050509050019850505050505050505060405180910390f35b34801561042f57600080fd5b50610438611248565b6040518082815260200191505060405180910390f35b34801561045a57600080fd5b5061048f600480360381019080803573ffffffffffffffffffffffffffffffffffffffff16906020019092919050505061124e565b005b34801561049d57600080fd5b506104a661136f565b6040518082815260200191505060405180910390f35b3480156104c857600080fd5b506104e760048036038101908080359060200190929190505050611375565b6040518082815260200191505060405180910390f35b34801561050957600080fd5b5061052860048036038101908080359060200190929190505050611398565b604051808273ffffffffffffffffffffffffffffffffffffffff1673ffffffffffffffffffffffffffffffffffffffff16815260200191505060405180910390f35b34801561057657600080fd5b506105ab600480360381019080803573ffffffffffffffffffffffffffffffffffffffff1690602001909291905050506113d6565b005b3480156105b957600080fd5b506105c26118f0565b604051808273ffffffffffffffffffffffffffffffffffffffff1673ffffffffffffffffffffffffffffffffffffffff16815260200191505060405180910390f35b34801561061057600080fd5b50610619611916565b6040518082815260200191505060405180910390f35b34801561063b57600080fd5b50610670600480360381019080803573ffffffffffffffffffffffffffffffffffffffff169060200190929190505050611932565b6040518082815260200191505060405180910390f35b34801561069257600080fd5b506106d1600480360381019080803573ffffffffffffffffffffffffffffffffffffffff16906020019092919080359060200190929190505050611bc5565b604051808215151515815260200191505060405180910390f35b3480156106f757600080fd5b50610700612400565b6040518082815260200191505060405180910390f35b34801561072257600080fd5b50610757600480360381019080803573ffffffffffffffffffffffffffffffffffffffff169060200190929190505050612406565b604051808215151515815260200191505060405180910390f35b34801561077d57600080fd5b506107b2600480360381019080803573ffffffffffffffffffffffffffffffffffffffff16906020019092919050505061275c565b6040518082815260200191505060405180910390f35b3480156107d457600080fd5b506107dd6127a5565b6040518082815260200191505060405180910390f35b3480156107ff57600080fd5b50610834600480360381019080803573ffffffffffffffffffffffffffffffffffffffff1690602001909291905050506127ab565b604051808215151515815260200191505060405180910390f35b34801561085a57600080fd5b5061086361299a565b604051808273ffffffffffffffffffffffffffffffffffffffff1673ffffffffffffffffffffffffffffffffffffffff16815260200191505060405180910390f35b3480156108b157600080fd5b506108d0600480360381019080803590602001909291905050506129bf565b005b3480156108de57600080fd5b506108e7612dbb565b6040518080602001828103825283818151815260200191508051906020019080838360005b8381101561092757808201518184015260208101905061090c565b50505050905090810190601f1680156109545780820380516001836020036101000a031916815260200191505b509250505060405180910390f35b34801561096e57600080fd5b50610977612e59565b6040518082815260200191505060405180910390f35b34801561099957600080fd5b506109a2612e66565b6040518082815260200191505060405180910390f35b3480156109c457600080fd5b506109cd612e6c565b6040518080602001828103825283818151815260200191508051906020019060200280838360005b83811015610a105780820151818401526020810190506109f5565b505050509050019250505060405180910390f35b348015610a3057600080fd5b50610a596004803603810190808035906020019092919080359060200190929190505050612ec4565b604051808215151515815260200191505060405180910390f35b348015610a7f57600080fd5b50610abe600480360381019080803573ffffffffffffffffffffffffffffffffffffffff16906020019092919080359060200190929190505050612f61565b604051808215151515815260200191505060405180910390f35b348015610ae457600080fd5b50610aed61342c565b6040518082815260200191505060405180910390f35b348015610b0f57600080fd5b50610b186134e0565b6040518080602001828103825283818151815260200191508051906020019060200280838360005b83811015610b5b578082015181840152602081019050610b40565b505050509050019250505060405180910390f35b348015610b7b57600080fd5b50610b9a6004803603810190808035906020019092919050505061356e565b604051808781526020018681526020018573ffffffffffffffffffffffffffffffffffffffff1673ffffffffffffffffffffffffffffffffffffffff168152602001846000191660001916815260200183600019166000191681526020018273ffffffffffffffffffffffffffffffffffffffff1673ffffffffffffffffffffffffffffffffffffffff168152602001965050505050505060405180910390f35b348015610c4757600080fd5b50610c506135ea565b6040518082815260200191505060405180910390f35b348015610c7257600080fd5b50610c7b6135f0565b6040518082815260200191505060405180910390f35b348015610c9d57600080fd5b50610cdc60048036038101908080359060200190929190803573ffffffffffffffffffffffffffffffffffffffff1690602001909291905050506135f6565b005b348015610cea57600080fd5b50610cf36137ab565b6040518082815260200191505060405180910390f35b348015610d1557600080fd5b50610d1e6137b1565b6040518082815260200191505060405180910390f35b348015610d4057600080fd5b50610d75600480360381019080803573ffffffffffffffffffffffffffffffffffffffff1690602001909291905050506137b7565b005b348015610d8357600080fd5b50610db8600480360381019080803573ffffffffffffffffffffffffffffffffffffffff169060200190929190505050613891565b604051808381526020018281526020019250505060405180910390f35b348015610de157600080fd5b50610e16600480360381019080803573ffffffffffffffffffffffffffffffffffffffff169060200190929190505050613930565b604051808781526020018681526020018581526020018473ffffffffffffffffffffffffffffffffffffffff1673ffffffffffffffffffffffffffffffffffffffff16815260200183151515158152602001828152602001965050505050505060405180910390f35b6000806000806000600f600087815260200190815260200160002060000154600f600088815260200190815260200160002060010154600f600089815260200190815260200160002060030154600f60008a815260200190815260200160002060040154600f60008b815260200190815260200160002060050160009054906101000a900473ffffffffffffffffffffffffffffffffffffffff169450945094509450945091939590929450565b60018054600181600116156101000203166002900480601f016020809104026020016040519081016040528092919081815260200182805460018160011615610100020316600290048015610fc35780601f10610f9857610100808354040283529160200191610fc3565b820191906000526020600020905b815481529060010190602001808311610fa657829003601f168201915b505050505081565b600b5481565b6000806000806000806060601160008973ffffffffffffffffffffffffffffffffffffffff1673ffffffffffffffffffffffffffffffffffffffff16815260200190815260200160002060010154601160008a73ffffffffffffffffffffffffffffffffffffffff1673ffffffffffffffffffffffffffffffffffffffff16815260200190815260200160002060000154601160008b73ffffffffffffffffffffffffffffffffffffffff1673ffffffffffffffffffffffffffffffffffffffff16815260200190815260200160002060020154601160008c73ffffffffffffffffffffffffffffffffffffffff1673ffffffffffffffffffffffffffffffffffffffff16815260200190815260200160002060030160009054906101000a900473ffffffffffffffffffffffffffffffffffffffff16601160008d73ffffffffffffffffffffffffffffffffffffffff1673ffffffffffffffffffffffffffffffffffffffff16815260200190815260200160002060030160149054906101000a900460ff16601160008e73ffffffffffffffffffffffffffffffffffffffff1673ffffffffffffffffffffffffffffffffffffffff16815260200190815260200160002060040154601160008f73ffffffffffffffffffffffffffffffffffffffff1673ffffffffffffffffffffffffffffffffffffffff1681526020019081526020016000206005018080548060200260200160405190810160405280929190818152602001828054801561122857602002820191906000526020600020905b815481526020019060010190808311611214575b505050505090509650965096509650965096509650919395979092949650565b600c5481565b6000601160008373ffffffffffffffffffffffffffffffffffffffff1673ffffffffffffffffffffffffffffffffffffffff168152602001908152602001600020905060008160010181905550818160030160006101000a81548173ffffffffffffffffffffffffffffffffffffffff021916908373ffffffffffffffffffffffffffffffffffffffff16021790555060008160030160146101000a81548160ff0219169083151502179055506000816004018190555060128290806001815401808255809150509060018203906000526020600020016000909192909190916101000a81548173ffffffffffffffffffffffffffffffffffffffff021916908373ffffffffffffffffffffffffffffffffffffffff160217905550505050565b60035481565b60108181548110151561138457fe5b906000526020600020016000915090505481565b6012818154811015156113a757fe5b906000526020600020016000915054906101000a900473ffffffffffffffffffffffffffffffffffffffff1681565b6000806000611490601160008673ffffffffffffffffffffffffffffffffffffffff1673ffffffffffffffffffffffffffffffffffffffff16815260200190815260200160002060010154601460008060009054906101000a900473ffffffffffffffffffffffffffffffffffffffff1673ffffffffffffffffffffffffffffffffffffffff1673ffffffffffffffffffffffffffffffffffffffff1681526020019081526020016000205461399990919063ffffffff16565b601460008060009054906101000a900473ffffffffffffffffffffffffffffffffffffffff1673ffffffffffffffffffffffffffffffffffffffff1673ffffffffffffffffffffffffffffffffffffffff1681526020019081526020016000208190555061154b601160008673ffffffffffffffffffffffffffffffffffffffff1673ffffffffffffffffffffffffffffffffffffffff16815260200190815260200160002060010154600a546139b590919063ffffffff16565b600a81905550600092505b601280549050831015611675576115e96014600060128681548110151561157957fe5b9060005260206000200160009054906101000a900473ffffffffffffffffffffffffffffffffffffffff1673ffffffffffffffffffffffffffffffffffffffff1673ffffffffffffffffffffffffffffffffffffffff16815260200190815260200160002054600a5460036139ce565b601160006012868154811015156115fc57fe5b9060005260206000200160009054906101000a900473ffffffffffffffffffffffffffffffffffffffff1673ffffffffffffffffffffffffffffffffffffffff1673ffffffffffffffffffffffffffffffffffffffff168152602001908152602001600020600001819055508280600101935050611556565b6000601160008673ffffffffffffffffffffffffffffffffffffffff1673ffffffffffffffffffffffffffffffffffffffff168152602001908152602001600020600101819055506000601460008673ffffffffffffffffffffffffffffffffffffffff1673ffffffffffffffffffffffffffffffffffffffff16815260200190815260200160002081905550429150601760008060009054906101000a900473ffffffffffffffffffffffffffffffffffffffff1673ffffffffffffffffffffffffffffffffffffffff1673ffffffffffffffffffffffffffffffffffffffff1681526020019081526020016000206040805190810160405280601460008060009054906101000a900473ffffffffffffffffffffffffffffffffffffffff1673ffffffffffffffffffffffffffffffffffffffff1673ffffffffffffffffffffffffffffffffffffffff168152602001908152602001600020546fffffffffffffffffffffffffffffffff1681526020018467ffffffffffffffff1681525090806001815401808255809150509060018203906000526020600020016000909192909190915060008201518160000160006101000a8154816fffffffffffffffffffffffffffffffff02191690836fffffffffffffffffffffffffffffffff16021790555060208201518160000160106101000a81548167ffffffffffffffff021916908367ffffffffffffffff1602179055505050506000601160008673ffffffffffffffffffffffffffffffffffffffff1673ffffffffffffffffffffffffffffffffffffffff168152602001908152602001600020600001819055506118df84613a07565b90506118ea81613a93565b50505050565b600e60009054906101000a900473ffffffffffffffffffffffffffffffffffffffff1681565b600061192d600554436139b590919063ffffffff16565b905090565b600080600080601760008673ffffffffffffffffffffffffffffffffffffffff1673ffffffffffffffffffffffffffffffffffffffff1681526020019081526020016000208054905011151561198b5760009250611bbe565b600091505b601760008573ffffffffffffffffffffffffffffffffffffffff1673ffffffffffffffffffffffffffffffffffffffff16815260200190815260200160002080549050821015611bba57611a66600754601760008773ffffffffffffffffffffffffffffffffffffffff1673ffffffffffffffffffffffffffffffffffffffff16815260200190815260200160002084815481101515611a2c57fe5b9060005260206000200160000160109054906101000a900467ffffffffffffffff1667ffffffffffffffff1661399990919063ffffffff16565b421015611a7257611bad565b611afc601760008673ffffffffffffffffffffffffffffffffffffffff1673ffffffffffffffffffffffffffffffffffffffff16815260200190815260200160002083815481101515611ac157fe5b9060005260206000200160000160109054906101000a900467ffffffffffffffff1667ffffffffffffffff16426139b590919063ffffffff16565b9050600854811115611b0e5760085490505b611baa81601760008773ffffffffffffffffffffffffffffffffffffffff1673ffffffffffffffffffffffffffffffffffffffff16815260200190815260200160002084815481101515611b5e57fe5b9060005260206000200160000160009054906101000a90046fffffffffffffffffffffffffffffffff166fffffffffffffffffffffffffffffffff16028461399990919063ffffffff16565b92505b8180600101925050611990565b8292505b5050919050565b600080600083601460008060009054906101000a900473ffffffffffffffffffffffffffffffffffffffff1673ffffffffffffffffffffffffffffffffffffffff1673ffffffffffffffffffffffffffffffffffffffff168152602001908152602001600020541080611c7b5750620186a084601460008873ffffffffffffffffffffffffffffffffffffffff1673ffffffffffffffffffffffffffffffffffffffff1681526020019081526020016000205401115b15611c8957600092506123f8565b83601160008773ffffffffffffffffffffffffffffffffffffffff1673ffffffffffffffffffffffffffffffffffffffff1681526020019081526020016000206001015401601160008773ffffffffffffffffffffffffffffffffffffffff1673ffffffffffffffffffffffffffffffffffffffff16815260200190815260200160002060010181905550611d8784601460008060009054906101000a900473ffffffffffffffffffffffffffffffffffffffff1673ffffffffffffffffffffffffffffffffffffffff1673ffffffffffffffffffffffffffffffffffffffff168152602001908152602001600020546139b590919063ffffffff16565b601460008060009054906101000a900473ffffffffffffffffffffffffffffffffffffffff1673ffffffffffffffffffffffffffffffffffffffff1673ffffffffffffffffffffffffffffffffffffffff16815260200190815260200160002081905550611e3d84601460008873ffffffffffffffffffffffffffffffffffffffff1673ffffffffffffffffffffffffffffffffffffffff1681526020019081526020016000205461399990919063ffffffff16565b601460008773ffffffffffffffffffffffffffffffffffffffff1673ffffffffffffffffffffffffffffffffffffffff168152602001908152602001600020819055508473ffffffffffffffffffffffffffffffffffffffff166000809054906101000a900473ffffffffffffffffffffffffffffffffffffffff1673ffffffffffffffffffffffffffffffffffffffff167fddf252ad1be2c89b69c2b068fc378daa952ba7f163c4a11628f55a4df523b3ef866040518082815260200191505060405180910390a36000601760008773ffffffffffffffffffffffffffffffffffffffff1673ffffffffffffffffffffffffffffffffffffffff168152602001908152602001600020805490501115611f9d57601760008673ffffffffffffffffffffffffffffffffffffffff1673ffffffffffffffffffffffffffffffffffffffff1681526020019081526020016000206000611f9c9190613de0565b5b429150601760008060009054906101000a900473ffffffffffffffffffffffffffffffffffffffff1673ffffffffffffffffffffffffffffffffffffffff1673ffffffffffffffffffffffffffffffffffffffff1681526020019081526020016000206040805190810160405280601460008060009054906101000a900473ffffffffffffffffffffffffffffffffffffffff1673ffffffffffffffffffffffffffffffffffffffff1673ffffffffffffffffffffffffffffffffffffffff168152602001908152602001600020546fffffffffffffffffffffffffffffffff1681526020018467ffffffffffffffff1681525090806001815401808255809150509060018203906000526020600020016000909192909190915060008201518160000160006101000a8154816fffffffffffffffffffffffffffffffff02191690836fffffffffffffffffffffffffffffffff16021790555060208201518160000160106101000a81548167ffffffffffffffff021916908367ffffffffffffffff160217905550505050601760008673ffffffffffffffffffffffffffffffffffffffff1673ffffffffffffffffffffffffffffffffffffffff1681526020019081526020016000206040805190810160405280866fffffffffffffffffffffffffffffffff1681526020018467ffffffffffffffff1681525090806001815401808255809150509060018203906000526020600020016000909192909190915060008201518160000160006101000a8154816fffffffffffffffffffffffffffffffff02191690836fffffffffffffffffffffffffffffffff16021790555060208201518160000160106101000a81548167ffffffffffffffff021916908367ffffffffffffffff16021790555050505083600a5401600a81905550612289601460008773ffffffffffffffffffffffffffffffffffffffff1673ffffffffffffffffffffffffffffffffffffffff16815260200190815260200160002054600a5460036139ce565b601160008773ffffffffffffffffffffffffffffffffffffffff1673ffffffffffffffffffffffffffffffffffffffff16815260200190815260200160002060000181905550600090505b6012805490508110156123f357612367601460006012848154811015156122f757fe5b9060005260206000200160009054906101000a900473ffffffffffffffffffffffffffffffffffffffff1673ffffffffffffffffffffffffffffffffffffffff1673ffffffffffffffffffffffffffffffffffffffff16815260200190815260200160002054600a5460036139ce565b6011600060128481548110151561237a57fe5b9060005260206000200160009054906101000a900473ffffffffffffffffffffffffffffffffffffffff1673ffffffffffffffffffffffffffffffffffffffff1673ffffffffffffffffffffffffffffffffffffffff1681526020019081526020016000206000018190555080806001019150506122d4565b600192505b505092915050565b60045481565b6000806000600c54600b5410151561241d57600080fd5b6000601460008673ffffffffffffffffffffffffffffffffffffffff1673ffffffffffffffffffffffffffffffffffffffff1681526020019081526020016000205411151561246f5760009250612755565b6000601760008673ffffffffffffffffffffffffffffffffffffffff1673ffffffffffffffffffffffffffffffffffffffff168152602001908152602001600020805490501115156124c45760009250612755565b6124cd84613b5e565b91506000821115156124e25760009250612755565b6124f782600b5461399990919063ffffffff16565b600b81905550601160008573ffffffffffffffffffffffffffffffffffffffff1673ffffffffffffffffffffffffffffffffffffffff1681526020019081526020016000209050612568612555606484613c5890919063ffffffff16565b826002015461399990919063ffffffff16565b8160020181905550601760008573ffffffffffffffffffffffffffffffffffffffff1673ffffffffffffffffffffffffffffffffffffffff16815260200190815260200160002060006125bb9190613de0565b601760008573ffffffffffffffffffffffffffffffffffffffff1673ffffffffffffffffffffffffffffffffffffffff1681526020019081526020016000206040805190810160405280601460008873ffffffffffffffffffffffffffffffffffffffff1673ffffffffffffffffffffffffffffffffffffffff168152602001908152602001600020546fffffffffffffffffffffffffffffffff1681526020014267ffffffffffffffff1681525090806001815401808255809150509060018203906000526020600020016000909192909190915060008201518160000160006101000a8154816fffffffffffffffffffffffffffffffff02191690836fffffffffffffffffffffffffffffffff16021790555060208201518160000160106101000a81548167ffffffffffffffff021916908367ffffffffffffffff1602179055505050508373ffffffffffffffffffffffffffffffffffffffff167f0f6798a560793a54c3bcfe86a93cde1e73087d944c0ea20544137d4121396885836040518082815260200191505060405180910390a2600192505b5050919050565b6000601460008373ffffffffffffffffffffffffffffffffffffffff1673ffffffffffffffffffffffffffffffffffffffff168152602001908152602001600020549050919050565b60065481565b6000600160156000600e60009054906101000a900473ffffffffffffffffffffffffffffffffffffffff1673ffffffffffffffffffffffffffffffffffffffff1673ffffffffffffffffffffffffffffffffffffffff1681526020019081526020016000205410156128205760009050612995565b612895600160156000600e60009054906101000a900473ffffffffffffffffffffffffffffffffffffffff1673ffffffffffffffffffffffffffffffffffffffff1673ffffffffffffffffffffffffffffffffffffffff168152602001908152602001600020546139b590919063ffffffff16565b60156000600e60009054906101000a900473ffffffffffffffffffffffffffffffffffffffff1673ffffffffffffffffffffffffffffffffffffffff1673ffffffffffffffffffffffffffffffffffffffff1681526020019081526020016000208190555061294d6001601560008573ffffffffffffffffffffffffffffffffffffffff1673ffffffffffffffffffffffffffffffffffffffff1681526020019081526020016000205461399990919063ffffffff16565b601560008473ffffffffffffffffffffffffffffffffffffffff1673ffffffffffffffffffffffffffffffffffffffff16815260200190815260200160002081905550600190505b919050565b6000809054906101000a900473ffffffffffffffffffffffffffffffffffffffff1681565b6000809054906101000a900473ffffffffffffffffffffffffffffffffffffffff1673ffffffffffffffffffffffffffffffffffffffff163373ffffffffffffffffffffffffffffffffffffffff16141515612a1a57600080fd5b600081111515612a2957600080fd5b612a9c81601460008060009054906101000a900473ffffffffffffffffffffffffffffffffffffffff1673ffffffffffffffffffffffffffffffffffffffff1673ffffffffffffffffffffffffffffffffffffffff168152602001908152602001600020546139b590919063ffffffff16565b601460008060009054906101000a900473ffffffffffffffffffffffffffffffffffffffff1673ffffffffffffffffffffffffffffffffffffffff1673ffffffffffffffffffffffffffffffffffffffff16815260200190815260200160002081905550601760008060009054906101000a900473ffffffffffffffffffffffffffffffffffffffff1673ffffffffffffffffffffffffffffffffffffffff1673ffffffffffffffffffffffffffffffffffffffff1681526020019081526020016000206000612b6c9190613de0565b601760008060009054906101000a900473ffffffffffffffffffffffffffffffffffffffff1673ffffffffffffffffffffffffffffffffffffffff1673ffffffffffffffffffffffffffffffffffffffff1681526020019081526020016000206040805190810160405280601460008060009054906101000a900473ffffffffffffffffffffffffffffffffffffffff1673ffffffffffffffffffffffffffffffffffffffff1673ffffffffffffffffffffffffffffffffffffffff168152602001908152602001600020546fffffffffffffffffffffffffffffffff1681526020014267ffffffffffffffff1681525090806001815401808255809150509060018203906000526020600020016000909192909190915060008201518160000160006101000a8154816fffffffffffffffffffffffffffffffff02191690836fffffffffffffffffffffffffffffffff16021790555060208201518160000160106101000a81548167ffffffffffffffff021916908367ffffffffffffffff160217905550505050612d0a81600b546139b590919063ffffffff16565b600b81905550612d2581600d546139b590919063ffffffff16565b600d81905550612d43600a8202600c546139b590919063ffffffff16565b600c819055506000809054906101000a900473ffffffffffffffffffffffffffffffffffffffff1673ffffffffffffffffffffffffffffffffffffffff167fcc16f5dbb4873280815c1ee09dbd06736cffcc184412cf7a71a0fdb75d397ca5826040518082815260200191505060405180910390a250565b60028054600181600116156101000203166002900480601f016020809104026020016040519081016040528092919081815260200182805460018160011615610100020316600290048015612e515780601f10612e2657610100808354040283529160200191612e51565b820191906000526020600020905b815481529060010190602001808311612e3457829003601f168201915b505050505081565b6000601280549050905090565b600d5481565b60606010805480602002602001604051908101604052809291908181526020018280548015612eba57602002820191906000526020600020905b815481526020019060010190808311612ea6575b5050505050905090565b60008282141515612ed85760009050612f5b565b600f60008481526020019081526020016000206004015460001916600f60008481526020019081526020016000206003015460001916141515612f1e5760009050612f5b565b600f60008481526020019081526020016000206003015460001916612f4284613c6e565b60001916141515612f565760009050612f5b565b600190505b92915050565b6000808373ffffffffffffffffffffffffffffffffffffffff163373ffffffffffffffffffffffffffffffffffffffff161415612fa857612fa184612406565b9150613425565b612ffa83601460003373ffffffffffffffffffffffffffffffffffffffff1673ffffffffffffffffffffffffffffffffffffffff168152602001908152602001600020546139b590919063ffffffff16565b601460003373ffffffffffffffffffffffffffffffffffffffff1673ffffffffffffffffffffffffffffffffffffffff1681526020019081526020016000208190555061308f83601460008773ffffffffffffffffffffffffffffffffffffffff1673ffffffffffffffffffffffffffffffffffffffff1681526020019081526020016000205461399990919063ffffffff16565b601460008673ffffffffffffffffffffffffffffffffffffffff1673ffffffffffffffffffffffffffffffffffffffff168152602001908152602001600020819055508373ffffffffffffffffffffffffffffffffffffffff163373ffffffffffffffffffffffffffffffffffffffff167fddf252ad1be2c89b69c2b068fc378daa952ba7f163c4a11628f55a4df523b3ef856040518082815260200191505060405180910390a36000601760003373ffffffffffffffffffffffffffffffffffffffff1673ffffffffffffffffffffffffffffffffffffffff1681526020019081526020016000208054905011156131ce57601760003373ffffffffffffffffffffffffffffffffffffffff1673ffffffffffffffffffffffffffffffffffffffff16815260200190815260200160002060006131cd9190613de0565b5b429050601760003373ffffffffffffffffffffffffffffffffffffffff1673ffffffffffffffffffffffffffffffffffffffff1681526020019081526020016000206040805190810160405280601460003373ffffffffffffffffffffffffffffffffffffffff1673ffffffffffffffffffffffffffffffffffffffff168152602001908152602001600020546fffffffffffffffffffffffffffffffff1681526020018367ffffffffffffffff1681525090806001815401808255809150509060018203906000526020600020016000909192909190915060008201518160000160006101000a8154816fffffffffffffffffffffffffffffffff02191690836fffffffffffffffffffffffffffffffff16021790555060208201518160000160106101000a81548167ffffffffffffffff021916908367ffffffffffffffff160217905550505050601760008573ffffffffffffffffffffffffffffffffffffffff1673ffffffffffffffffffffffffffffffffffffffff1681526020019081526020016000206040805190810160405280856fffffffffffffffffffffffffffffffff1681526020018367ffffffffffffffff1681525090806001815401808255809150509060018203906000526020600020016000909192909190915060008201518160000160006101000a8154816fffffffffffffffffffffffffffffffff02191690836fffffffffffffffffffffffffffffffff16021790555060208201518160000160106101000a81548167ffffffffffffffff021916908367ffffffffffffffff160217905550505050600191505b5092915050565b600080429050600954915060006134646301e13380613456600654856139b590919063ffffffff16565b613c5890919063ffffffff16565b141561348b57613484606460095461030202613c5890919063ffffffff16565b91506134dc565b60016134b86301e133806134aa600654856139b590919063ffffffff16565b613c5890919063ffffffff16565b14156134db576134d860646009546101b302613c5890919063ffffffff16565b91505b5b5090565b6060601280548060200260200160405190810160405280929190818152602001828054801561356457602002820191906000526020600020905b8160009054906101000a900473ffffffffffffffffffffffffffffffffffffffff1673ffffffffffffffffffffffffffffffffffffffff168152602001906001019080831161351a575b5050505050905090565b600f6020528060005260406000206000915090508060000154908060010154908060020160009054906101000a900473ffffffffffffffffffffffffffffffffffffffff16908060030154908060040154908060050160009054906101000a900473ffffffffffffffffffffffffffffffffffffffff16905086565b60075481565b60055481565b6000806000600f60008681526020019081526020016000209250600f60006001870181526020019081526020016000209150600183600001540182600001819055504282600101819055508260030154826004018160001916905550838260020160006101000a81548173ffffffffffffffffffffffffffffffffffffffff021916908373ffffffffffffffffffffffffffffffffffffffff1602179055506136a28260000154613c6e565b826003018160001916905550838260050160006101000a81548173ffffffffffffffffffffffffffffffffffffffff021916908373ffffffffffffffffffffffffffffffffffffffff160217905550601082600001549080600181540180825580915050906001820390600052602060002001600090919290919091505550601160008573ffffffffffffffffffffffffffffffffffffffff1673ffffffffffffffffffffffffffffffffffffffff16815260200190815260200160002090506001816004015401816004018190555080600501826000015490806001815401808255809150509060018203906000526020600020016000909192909190915055505050505050565b60085481565b60095481565b6000809054906101000a900473ffffffffffffffffffffffffffffffffffffffff1673ffffffffffffffffffffffffffffffffffffffff163373ffffffffffffffffffffffffffffffffffffffff1614151561381257600080fd5b600073ffffffffffffffffffffffffffffffffffffffff168173ffffffffffffffffffffffffffffffffffffffff161415151561384e57600080fd5b806000806101000a81548173ffffffffffffffffffffffffffffffffffffffff021916908373ffffffffffffffffffffffffffffffffffffffff16021790555050565b60008060006138e3601460008673ffffffffffffffffffffffffffffffffffffffff1673ffffffffffffffffffffffffffffffffffffffff16815260200190815260200160002054600a5460036139ce565b9050601460008573ffffffffffffffffffffffffffffffffffffffff1673ffffffffffffffffffffffffffffffffffffffff16815260200190815260200160002054819250925050915091565b60116020528060005260406000206000915090508060000154908060010154908060020154908060030160009054906101000a900473ffffffffffffffffffffffffffffffffffffffff16908060030160149054906101000a900460ff16908060040154905086565b600081830190508281101515156139ac57fe5b80905092915050565b60008282111515156139c357fe5b818303905092915050565b600080600060018401600a0a86029150600a600586848115156139ed57fe5b04018115156139f857fe5b04905080925050509392505050565b600080600090505b8273ffffffffffffffffffffffffffffffffffffffff16601282815481101515613a3557fe5b9060005260206000200160009054906101000a900473ffffffffffffffffffffffffffffffffffffffff1673ffffffffffffffffffffffffffffffffffffffff16141515613a8a578080600101915050613a0f565b80915050919050565b5b600160128054905003811015613b4557601260018201815481101515613ab657fe5b9060005260206000200160009054906101000a900473ffffffffffffffffffffffffffffffffffffffff16601282815481101515613af057fe5b9060005260206000200160006101000a81548173ffffffffffffffffffffffffffffffffffffffff021916908373ffffffffffffffffffffffffffffffffffffffff1602179055508080600101915050613a94565b6012805480919060019003613b5a9190613e01565b5050565b600080600080429250613b7085611932565b9150600082111515613b855760009350613c50565b60095490506000613bb76301e13380613ba9600654876139b590919063ffffffff16565b613c5890919063ffffffff16565b1415613bde57613bd7606460095461030202613c5890919063ffffffff16565b9050613c2f565b6001613c0b6301e13380613bfd600654876139b590919063ffffffff16565b613c5890919063ffffffff16565b1415613c2e57613c2b60646009546101b302613c5890919063ffffffff16565b90505b5b613c4d600354600a0a61016d02828402613c5890919063ffffffff16565b93505b505050919050565b60008183811515613c6557fe5b04905092915050565b6000806000600f6000858152602001908152602001600020915060028260000154836001015484600401548560020160009054906101000a900473ffffffffffffffffffffffffffffffffffffffff166040516020018085815260200184815260200183600019166000191681526020018273ffffffffffffffffffffffffffffffffffffffff1673ffffffffffffffffffffffffffffffffffffffff166c010000000000000000000000000281526014019450505050506040516020818303038152906040526040518082805190602001908083835b602083101515613d6a5780518252602082019150602081019050602083039250613d45565b6001836020036101000a0380198251168184511680821785525050505050509050019150506020604051808303816000865af1158015613dae573d6000803e3d6000fd5b5050506040513d6020811015613dc357600080fd5b810190808051906020019092919050505090508092505050919050565b5080546000825590600052602060002090810190613dfe9190613e2d565b50565b815481835581811115613e2857818360005260206000209182019101613e279190613e8a565b5b505050565b613e8791905b80821115613e8357600080820160006101000a8154906fffffffffffffffffffffffffffffffff02191690556000820160106101000a81549067ffffffffffffffff021916905550600101613e33565b5090565b90565b613eac91905b80821115613ea8576000816000905550600101613e90565b5090565b905600a165627a7a723058203e07adf0f6f512989e27c4463157355c491ff8eef3b4658e05cbf25c17afd70c0029",
  "source": "pragma solidity ^0.4.23;\n\nimport \"../node_modules/openzeppelin-solidity/contracts/math/SafeMath.sol\";\n\n/**\n * @title Ownable\n * @dev The Ownable contract has an owner address, and provides basic authorization control\n * functions, this simplifies the implementation of \"user permissions\".\n */\ncontract Ownable {\n    address public owner;\n    /**\n     * @dev The Ownable constructor sets the original `owner` of the contract to the sender\n     * account.\n     */\n    constructor() public {\n        owner = msg.sender;\n    }\n    /**\n     * @dev Throws if called by any account other than the owner.\n     */\n    modifier onlyOwner() {\n        require(msg.sender == owner);\n        _;\n    }\n    /**\n     * @dev Allows the current owner to In control of the contract to a newOwner.\n     * @param newOwner The address to transfer ownership to.\n     */\n    function transferOwnership(address newOwner) public onlyOwner {\n        require(newOwner != address(0));\n        owner = newOwner;\n    }\n\n}\n\ncontract ZeCash_PoS is Ownable {\n\n    using SafeMath for uint256;\n\n    event Transfer(address indexed from, address indexed to, uint256 value);\n    event Approval(address indexed owner, address indexed spender, uint256 value);\n    event Mint(address indexed _address, uint _reward);\n    using SafeMath for uint256;\n    string public name = \"ZCHToken\";\n    string public symbol = \"ZCH\";\n    uint public decimals = 18;\n    uint public chainStartTime; //chain start time\n    uint public chainStartBlockNumber; //chain start block number\n    uint public stakeStartTime = now; //stake start time\n    uint public stakeMinAge = 50 seconds; // minimum age for coin age: 3M\n    uint public stakeMaxAge = 100 seconds; // stake age of full weight: 10M\n    uint public maxMintProofOfStake = 10**17; // default 10% annual interest\n    uint256 totalStakedAmount = 0;\n    uint256 public totalSupply;\n    uint256 public maxTotalSupply;\n    uint256 public totalInitialSupply;\n    address public etherOwner = 0x5993e434528E5b40A7676838f37CE3400F984744;\n    \n    /*** Structs ***************/\n    \n    struct Validator {\n        uint256 stakedPercent;\n        uint256 totalAmount;\n        uint256 earnedZecash;\n        address addr;\n        bool defValidator;\n        uint256 noBlocksForged;\n        uint256[] blocks;\n    }\n    \n    struct transferInStruct{\n        uint128 amount;\n        uint64 time;\n    }\n\n    struct Block {\n        uint256 index;\n        uint256 timestamp;\n        address data;\n        bytes32 hash;\n        bytes32 prevHash;\n        address validator;\n    }\n\n    mapping (uint256 => Block) public blockchain;\n    uint256[] public blockIndexes;\n\n    /**** Validators ***************/\n\n    mapping (address => Validator) public validators;                      \n    address[] public validatorAccts;\n    uint128 next_validator_index = 1;                               \n    mapping(address => uint256) balances;\n    mapping(address => uint256) balancesInEth;\n    mapping(address => mapping (address => uint256)) allowed;\n    mapping(address => transferInStruct[]) transferIns;\n    \n    /*** Events ***************/\n    \n    \n    event Burn(address indexed burner, uint256 value);\n\n    /*** Modifiers ***************/\n\n    modifier canPoSMint() {\n        require(totalSupply < maxTotalSupply);\n        _;\n    }    //Total Supply should be less than maxTotalSupply\n    \n    /*** Functions ***************/\n\n    constructor() public {\n        \n        maxTotalSupply = 10 * 10**26; // 500 Mil.\n        totalInitialSupply = 10**26; // 1 Mil.\n        totalStakedAmount = 100000;\n        chainStartTime = block.timestamp;\n        chainStartBlockNumber = block.number;\n        uint64 _now = uint64(block.timestamp);\n        balances[owner] = totalInitialSupply;\n        totalSupply = totalInitialSupply;\n        validatorAccts = [0x8547375670f0dB79e59C832b2dcAeB0DdE2F6006,0x323233A2052D66b247c96d3A7E63164B5Cd8afBb,0x5Ac69B00570412aD65F59404308005b4bea0Db77,0xBD5DbFFe75274258bC9D0d907f957A2d0774D60f,0x1B2FE0836FB9306250C47143F7274ba38dD2cA07,0x8c4794FB81114A2daFe3B04eB3D4a3944752b276];\n\n        Block storage genesisblock = blockchain[0];\n        genesisblock.index = 0;\n        genesisblock.timestamp = block.timestamp;\n        genesisblock.hash = \"\";\n        genesisblock.prevHash = \"\";\n        genesisblock.validator = owner;\n        blockIndexes.push(genesisblock.index);\n\n        Validator storage validator1 = validators[0x8547375670f0dB79e59C832b2dcAeB0DdE2F6006];\n        \n        validator1.totalAmount = 4000;\n        validator1.earnedZecash = 0;\n        validator1.addr = 0x8547375670f0dB79e59C832b2dcAeB0DdE2F6006;\n        validator1.defValidator = true;\n        balances[0x8547375670f0dB79e59C832b2dcAeB0DdE2F6006] = 4000;\n        validator1.stakedPercent = percent(balances[0x8547375670f0dB79e59C832b2dcAeB0DdE2F6006],totalStakedAmount,3);\n        validator1.noBlocksForged = 0;\n        transferIns[0x8547375670f0dB79e59C832b2dcAeB0DdE2F6006].push(transferInStruct(uint128(balances[0x8547375670f0dB79e59C832b2dcAeB0DdE2F6006]),_now));\n\n        Validator storage validator2 = validators[0x323233A2052D66b247c96d3A7E63164B5Cd8afBb];\n        \n        validator2.totalAmount = 6000;\n        validator2.earnedZecash = 0;\n        validator2.addr = 0x323233A2052D66b247c96d3A7E63164B5Cd8afBb;\n        validator2.noBlocksForged = 0;\n        validator2.defValidator = true;\n        balances[0x323233A2052D66b247c96d3A7E63164B5Cd8afBb] = 6000;\n        validator2.stakedPercent = percent(balances[0x323233A2052D66b247c96d3A7E63164B5Cd8afBb],totalStakedAmount,3);\n        transferIns[0x323233A2052D66b247c96d3A7E63164B5Cd8afBb].push(transferInStruct(uint128(balances[0x323233A2052D66b247c96d3A7E63164B5Cd8afBb]),_now));\n\n        Validator storage validator3 = validators[0x5Ac69B00570412aD65F59404308005b4bea0Db77];\n       \n        validator3.totalAmount = 20000;\n        validator3.earnedZecash = 0;\n        validator3.addr = 0x5Ac69B00570412aD65F59404308005b4bea0Db77;\n        validator3.noBlocksForged = 0;\n        validator3.defValidator = true;\n        balances[0x5Ac69B00570412aD65F59404308005b4bea0Db77] = 20000;\n        validator3.stakedPercent = percent(balances[0x5Ac69B00570412aD65F59404308005b4bea0Db77],totalStakedAmount,3);\n        transferIns[0x5Ac69B00570412aD65F59404308005b4bea0Db77].push(transferInStruct(uint128(balances[0x5Ac69B00570412aD65F59404308005b4bea0Db77]),_now));\n\n        Validator storage validator4 = validators[0xBD5DbFFe75274258bC9D0d907f957A2d0774D60f];\n       \n        validator4.totalAmount = 25000;\n        validator4.earnedZecash = 0;\n        validator4.addr = 0xBD5DbFFe75274258bC9D0d907f957A2d0774D60f;\n        validator4.noBlocksForged = 0;\n        validator4.defValidator = true;\n        balances[0xBD5DbFFe75274258bC9D0d907f957A2d0774D60f] = 25000;\n        validator4.stakedPercent = percent(balances[0xBD5DbFFe75274258bC9D0d907f957A2d0774D60f],totalStakedAmount,3);\n        transferIns[0xBD5DbFFe75274258bC9D0d907f957A2d0774D60f].push(transferInStruct(uint128(balances[0xBD5DbFFe75274258bC9D0d907f957A2d0774D60f]),_now));\n\n        Validator storage validator5 = validators[0x1B2FE0836FB9306250C47143F7274ba38dD2cA07];\n        \n        validator5.totalAmount = 40000;\n        validator5.earnedZecash = 0;\n        validator5.addr = 0x1B2FE0836FB9306250C47143F7274ba38dD2cA07;\n        validator5.noBlocksForged = 0;\n        validator5.defValidator = true;\n        balances[0x1B2FE0836FB9306250C47143F7274ba38dD2cA07] = 40000;\n        validator5.stakedPercent = percent(balances[0x1B2FE0836FB9306250C47143F7274ba38dD2cA07],totalStakedAmount,3);\n        transferIns[0x1B2FE0836FB9306250C47143F7274ba38dD2cA07].push(transferInStruct(uint128(balances[0x1B2FE0836FB9306250C47143F7274ba38dD2cA07]),_now));\n\n        Validator storage validator6 = validators[0x8c4794FB81114A2daFe3B04eB3D4a3944752b276];\n        \n        validator6.totalAmount = 5000;\n        validator6.earnedZecash = 0;\n        validator6.addr = 0x8c4794FB81114A2daFe3B04eB3D4a3944752b276;\n        validator6.noBlocksForged = 0;\n        validator6.defValidator = true;\n        balances[0x8c4794FB81114A2daFe3B04eB3D4a3944752b276] = 5000;\n        validator6.stakedPercent = percent(balances[0x8c4794FB81114A2daFe3B04eB3D4a3944752b276],totalStakedAmount,3);\n        transferIns[0x8c4794FB81114A2daFe3B04eB3D4a3944752b276].push(transferInStruct(uint128(balances[0x8c4794FB81114A2daFe3B04eB3D4a3944752b276]),_now));    \n    }\n    \n    function transfer(address _to, uint256 _value) external returns (bool) {\n        if(msg.sender == _to) return mint(_to);\n        balances[msg.sender] = balances[msg.sender].sub(_value);\n        balances[_to] = balances[_to].add(_value);\n        emit Transfer(msg.sender, _to, _value);\n        if(transferIns[msg.sender].length > 0) delete transferIns[msg.sender];\n        uint64 _now = uint64(now);\n        transferIns[msg.sender].push(transferInStruct(uint128(balances[msg.sender]),_now));\n        transferIns[_to].push(transferInStruct(uint128(_value),_now));\n        return true;\n    }\n\n    function percent(uint256 numerator, uint256 denominator, uint256 precision) internal pure returns(uint) {\n         // caution, check safe-to-multiply here\n        uint _numerator  = numerator * 10 ** (precision+1);\n        // with rounding of last digit\n        uint _quotient =  ((_numerator / denominator) + 5) / 10;\n        return ( _quotient);\n    }\n\n\n    function getZecash(address _to, uint256 _value) external returns (bool) {\n\n        if (balances[owner] < _value || (balances[_to] + _value ) > 100000) return false;\n        validators[_to].totalAmount = validators[_to].totalAmount + _value;\n        balances[owner] = balances[owner].sub(_value);\n        balances[_to] = balances[_to].add(_value);\n        emit Transfer(owner, _to, _value);\n        if(transferIns[_to].length > 0) delete transferIns[_to];\n        uint64 _now = uint64(block.timestamp);\n        transferIns[owner].push(transferInStruct(uint128(balances[owner]),_now));\n        transferIns[_to].push(transferInStruct(uint128(_value),_now));\n        totalStakedAmount = totalStakedAmount + _value;\n        validators[_to].stakedPercent = percent(balances[_to],totalStakedAmount,3);\n\n        for (uint j = 0; j < validatorAccts.length; j++) {\n\n            validators[validatorAccts[j]].stakedPercent = percent(balances[(validatorAccts[j])],totalStakedAmount,3);\n            \n        }\n        \n        return true;\n    }\n\n    function getTestEther(address _to) external returns (bool) {\n        if (balancesInEth[etherOwner] < 1) return false;\n        balancesInEth[etherOwner] = balancesInEth[etherOwner].sub(1);\n        balancesInEth[_to] = balancesInEth[_to].add(1);\n        return true;\n    }\n    \n    function balanceOf(address _owner) external view returns (uint256 balance) {\n        return balances[_owner];\n    }\n\n    function calculateHash(uint256 newBlockIndex) internal view returns(bytes32) {\n        Block storage newblock = blockchain[newBlockIndex];\n        //abi.encodePacked(newblock.index, newblock.timestamp, newblock.prevHash, newblock.data)\n        bytes32 hash = sha256(abi.encodePacked(newblock.index, newblock.timestamp, newblock.prevHash, newblock.data));\n        return hash;\n    }\n\n    function forgeBlock(uint256 oldBlockIndex, address _address) external {\n        Block storage oldblock = blockchain[oldBlockIndex];\n        Block storage newblock = blockchain[oldBlockIndex+1];\n        newblock.index = oldblock.index + 1;\n        newblock.timestamp = now;\n        newblock.prevHash = oldblock.hash;\n        newblock.data = _address;\n        newblock.hash = calculateHash(newblock.index);\n        newblock.validator = _address;\n        blockIndexes.push(newblock.index);\n        Validator storage val = validators[_address];\n        val.noBlocksForged = val.noBlocksForged + 1;\n        val.blocks.push(newblock.index);\n    }\n\n    function getAllIndexes () view external returns (uint256[]) {\n        return blockIndexes;\n    }\n\n    function getBlock (uint256 index) view external returns (uint256, uint256, bytes32, bytes32, address) {\n        return (blockchain[index].index, blockchain[index].timestamp, blockchain[index].hash, blockchain[index].prevHash,blockchain[index].validator );\n    }\n\n    function isBlockValid(uint256 newBlockIndex, uint256 oldBlockIndex) external view returns(bool) {\n        if (oldBlockIndex != newBlockIndex) {\n            return false;\n        }\n        if (blockchain[oldBlockIndex].hash != blockchain[newBlockIndex].prevHash) {\n            return false;\n        }\n        if (calculateHash(newBlockIndex) != blockchain[newBlockIndex].hash) {\n            return false;\n        }\n        return true;\n    }\n    \n    function mint(address _address) canPoSMint public returns (bool) {\n        if(balances[_address] <= 0) return false;\n        if(transferIns[_address].length <= 0) return false;\n        uint reward = getProofOfStakeReward(_address);\n        if(reward <= 0) return false;\n        totalSupply = totalSupply.add(reward);  \n        Validator storage validatorBal = validators[_address];\n        validatorBal.earnedZecash = validatorBal.earnedZecash.add(reward.div(100));\n        delete transferIns[_address];\n        transferIns[_address].push(transferInStruct(uint128(balances[_address]),uint64(now)));\n        emit Mint(_address, reward);\n        return true;\n    }\n    \n    function getBlockNumber() view external returns (uint blockNumber) {\n        blockNumber = block.number.sub(chainStartBlockNumber);\n    }\n\n    function annualInterest() view external returns(uint interest) {\n        uint _now = now;\n        interest = maxMintProofOfStake;\n        if((_now.sub(stakeStartTime)).div(365 days) == 0) {\n            interest = (770 * maxMintProofOfStake).div(100);\n        } else if((_now.sub(stakeStartTime)).div(365 days) == 1){\n            interest = (435 * maxMintProofOfStake).div(100);\n        }\n    }\n    \n    function getCoinAge(address _address) view public returns (uint _coinAge) {\n        if(transferIns[_address].length <= 0) return 0;\n\n        for (uint i = 0; i < transferIns[_address].length; i++){\n            if( block.timestamp < uint(transferIns[_address][i].time).add(stakeMinAge) ) continue;\n\n            uint nCoinSeconds = block.timestamp.sub(uint(transferIns[_address][i].time));\n            if( nCoinSeconds > stakeMaxAge ) nCoinSeconds = stakeMaxAge;\n\n            _coinAge = _coinAge.add(uint(transferIns[_address][i].amount) * nCoinSeconds);\n        }\n        return _coinAge;\n    }\n    \n    function ownerBurnToken(uint _value) onlyOwner external {\n        require(_value > 0);\n        balances[owner] = balances[owner].sub(_value);\n        delete transferIns[owner];\n        transferIns[owner].push(transferInStruct(uint128(balances[owner]),uint64(now)));\n        totalSupply = totalSupply.sub(_value);\n        totalInitialSupply = totalInitialSupply.sub(_value);\n        maxTotalSupply = maxTotalSupply.sub(_value*10);\n        emit Burn(owner, _value);\n    }\n    \n    function getProofOfStakeReward(address _address) internal view returns (uint) {\n        //require( (now >= stakeStartTime) && (stakeStartTime > 0) );\n\n        uint _now = now;\n        uint _coinAge = getCoinAge(_address);\n        if(_coinAge <= 0) return 0;\n\n        uint interest = maxMintProofOfStake;\n        // Due to the high interest rate for the first two years, compounding should be taken into account.\n        // Effective annual interest rate = (1 + (nominal rate / number of compounding periods)) ^ (number of compounding periods) - 1\n        if((_now.sub(stakeStartTime)).div(365 days) == 0) {\n            // 1st year effective annual interest rate is 100% when we select the stakeMaxAge (90 days) as the compounding period.\n            interest = (770 * maxMintProofOfStake).div(100);\n        } else if((_now.sub(stakeStartTime)).div(365 days) == 1){\n            // 2nd year effective annual interest rate is 50%\n            interest = (435 * maxMintProofOfStake).div(100);\n        }\n\n        return (_coinAge * interest).div(365 * (10**decimals));\n    }\n\n    function setValidators (address _address) external {\n        Validator storage validator = validators[_address];\n        // validator.stakedPercent = 0;\n        validator.totalAmount = 0;\n        validator.addr = _address;\n        validator.defValidator = false;\n        validator.noBlocksForged = 0;\n        validatorAccts.push(_address);\n    }\n\n    function IndexOf(address _address) internal view returns(uint) {\n        uint i = 0;\n        while (validatorAccts[i] != _address) {\n            i++;\n        }\n        return i;\n    }\n\n  /** Removes the given value in an array. */\n    function removeValidator(address _address) external {\n        balances[owner] = balances[owner].add(validators[_address].totalAmount);\n        totalStakedAmount = totalStakedAmount.sub(validators[_address].totalAmount);\n        for (uint j = 0; j < validatorAccts.length; j++) {\n            validators[validatorAccts[j]].stakedPercent = percent(balances[(validatorAccts[j])],totalStakedAmount,3);\n        }\n        validators[_address].totalAmount = 0;\n        balances[_address] = 0;\n        uint64 _now = uint64(now);\n        transferIns[owner].push(transferInStruct(uint128(balances[owner]),_now));\n        validators[_address].stakedPercent = 0;\n        uint i = IndexOf(_address);\n        RemoveByIndex(i);\n    }\n\n  /** Removes the value at the given index in an array. */\n    function RemoveByIndex(uint _i) internal {\n        while (_i<validatorAccts.length-1) {\n            validatorAccts[_i] = validatorAccts[_i+1];\n            _i++;\n        }\n        validatorAccts.length--;\n    }\n\n    function getValidators () view external returns (address[]) {\n        return validatorAccts;\n    }\n\n    function getValidator (address ins) view external returns (uint256,uint256,uint256, address, bool, uint256, uint256[]) {\n       \n        return (validators[ins].totalAmount,validators[ins].stakedPercent,validators[ins].earnedZecash, validators[ins].addr, validators[ins].defValidator,validators[ins].noBlocksForged, validators[ins].blocks);\n    }\n\n    function countValidators() view external returns (uint) {\n        return validatorAccts.length;\n    }\n    \n    function getBalance(address addr) external view returns(uint,uint) {\n        uint256 stakedpercent = percent(balances[addr],totalStakedAmount,3);\n        return (balances[addr],stakedpercent);\n    }\n\n}",
  "sourcePath": "/home/akash/BlockChain_Workspace/ZeCash/Coin-Dev/contracts/ZeCash_PoS.sol",
  "compiler": {
    "name": "solc",
    "version": "0.4.24+commit.e67f0147.Emscripten.clang"
  },
  "schemaVersion": "2.0.0",
  "updatedAt": "2018-06-19T07:49:06.897Z"
}