{
  "contractName": "ZeCash_PoS",
  "abi": [
    {
      "constant": true,
      "inputs": [],
      "name": "name",
      "outputs": [
        {
          "name": "",
          "type": "string"
        }
      ],
      "payable": false,
      "stateMutability": "view",
      "type": "function"
    },
    {
      "constant": true,
      "inputs": [],
      "name": "totalSupply",
      "outputs": [
        {
          "name": "",
          "type": "uint256"
        }
      ],
      "payable": false,
      "stateMutability": "view",
      "type": "function"
    },
    {
      "constant": true,
      "inputs": [],
      "name": "maxTotalSupply",
      "outputs": [
        {
          "name": "",
          "type": "uint256"
        }
      ],
      "payable": false,
      "stateMutability": "view",
      "type": "function"
    },
    {
      "constant": true,
      "inputs": [],
      "name": "decimals",
      "outputs": [
        {
          "name": "",
          "type": "uint256"
        }
      ],
      "payable": false,
      "stateMutability": "view",
      "type": "function"
    },
    {
      "constant": true,
      "inputs": [
        {
          "name": "",
          "type": "uint256"
        }
      ],
      "name": "blockIndexes",
      "outputs": [
        {
          "name": "",
          "type": "uint256"
        }
      ],
      "payable": false,
      "stateMutability": "view",
      "type": "function"
    },
    {
      "constant": true,
      "inputs": [
        {
          "name": "",
          "type": "uint256"
        }
      ],
      "name": "validatorAccts",
      "outputs": [
        {
          "name": "",
          "type": "address"
        }
      ],
      "payable": false,
      "stateMutability": "view",
      "type": "function"
    },
    {
      "constant": true,
      "inputs": [],
      "name": "chainStartTime",
      "outputs": [
        {
          "name": "",
          "type": "uint256"
        }
      ],
      "payable": false,
      "stateMutability": "view",
      "type": "function"
    },
    {
      "constant": true,
      "inputs": [],
      "name": "stakeStartTime",
      "outputs": [
        {
          "name": "",
          "type": "uint256"
        }
      ],
      "payable": false,
      "stateMutability": "view",
      "type": "function"
    },
    {
      "constant": true,
      "inputs": [],
      "name": "owner",
      "outputs": [
        {
          "name": "",
          "type": "address"
        }
      ],
      "payable": false,
      "stateMutability": "view",
      "type": "function"
    },
    {
      "constant": true,
      "inputs": [],
      "name": "symbol",
      "outputs": [
        {
          "name": "",
          "type": "string"
        }
      ],
      "payable": false,
      "stateMutability": "view",
      "type": "function"
    },
    {
      "constant": true,
      "inputs": [],
      "name": "totalInitialSupply",
      "outputs": [
        {
          "name": "",
          "type": "uint256"
        }
      ],
      "payable": false,
      "stateMutability": "view",
      "type": "function"
    },
    {
      "constant": true,
      "inputs": [
        {
          "name": "",
          "type": "uint256"
        }
      ],
      "name": "blockchain",
      "outputs": [
        {
          "name": "index",
          "type": "uint256"
        },
        {
          "name": "timestamp",
          "type": "uint256"
        },
        {
          "name": "data",
          "type": "address"
        },
        {
          "name": "hash",
          "type": "bytes32"
        },
        {
          "name": "prevHash",
          "type": "bytes32"
        },
        {
          "name": "validator",
          "type": "address"
        }
      ],
      "payable": false,
      "stateMutability": "view",
      "type": "function"
    },
    {
      "constant": true,
      "inputs": [],
      "name": "stakeMinAge",
      "outputs": [
        {
          "name": "",
          "type": "uint256"
        }
      ],
      "payable": false,
      "stateMutability": "view",
      "type": "function"
    },
    {
      "constant": true,
      "inputs": [],
      "name": "chainStartBlockNumber",
      "outputs": [
        {
          "name": "",
          "type": "uint256"
        }
      ],
      "payable": false,
      "stateMutability": "view",
      "type": "function"
    },
    {
      "constant": true,
      "inputs": [],
      "name": "stakeMaxAge",
      "outputs": [
        {
          "name": "",
          "type": "uint256"
        }
      ],
      "payable": false,
      "stateMutability": "view",
      "type": "function"
    },
    {
      "constant": true,
      "inputs": [],
      "name": "maxMintProofOfStake",
      "outputs": [
        {
          "name": "",
          "type": "uint256"
        }
      ],
      "payable": false,
      "stateMutability": "view",
      "type": "function"
    },
    {
      "constant": false,
      "inputs": [
        {
          "name": "newOwner",
          "type": "address"
        }
      ],
      "name": "transferOwnership",
      "outputs": [],
      "payable": false,
      "stateMutability": "nonpayable",
      "type": "function"
    },
    {
      "constant": true,
      "inputs": [
        {
          "name": "",
          "type": "address"
        }
      ],
      "name": "validators",
      "outputs": [
        {
          "name": "stakedPercent",
          "type": "uint256"
        },
        {
          "name": "totalAmount",
          "type": "uint256"
        },
        {
          "name": "earnedZecash",
          "type": "uint256"
        },
        {
          "name": "addr",
          "type": "address"
        },
        {
          "name": "defValidator",
          "type": "bool"
        },
        {
          "name": "noBlocksForged",
          "type": "uint256"
        }
      ],
      "payable": false,
      "stateMutability": "view",
      "type": "function"
    },
    {
      "inputs": [],
      "payable": false,
      "stateMutability": "nonpayable",
      "type": "constructor"
    },
    {
      "anonymous": false,
      "inputs": [
        {
          "indexed": true,
          "name": "from",
          "type": "address"
        },
        {
          "indexed": true,
          "name": "to",
          "type": "address"
        },
        {
          "indexed": false,
          "name": "value",
          "type": "uint256"
        }
      ],
      "name": "Transfer",
      "type": "event"
    },
    {
      "anonymous": false,
      "inputs": [
        {
          "indexed": true,
          "name": "owner",
          "type": "address"
        },
        {
          "indexed": true,
          "name": "spender",
          "type": "address"
        },
        {
          "indexed": false,
          "name": "value",
          "type": "uint256"
        }
      ],
      "name": "Approval",
      "type": "event"
    },
    {
      "anonymous": false,
      "inputs": [
        {
          "indexed": true,
          "name": "_address",
          "type": "address"
        },
        {
          "indexed": false,
          "name": "_reward",
          "type": "uint256"
        }
      ],
      "name": "Mint",
      "type": "event"
    },
    {
      "anonymous": false,
      "inputs": [
        {
          "indexed": true,
          "name": "burner",
          "type": "address"
        },
        {
          "indexed": false,
          "name": "value",
          "type": "uint256"
        }
      ],
      "name": "Burn",
      "type": "event"
    },
    {
      "constant": false,
      "inputs": [
        {
          "name": "_to",
          "type": "address"
        },
        {
          "name": "_value",
          "type": "uint256"
        }
      ],
      "name": "transfer",
      "outputs": [
        {
          "name": "",
          "type": "bool"
        }
      ],
      "payable": false,
      "stateMutability": "nonpayable",
      "type": "function"
    },
    {
      "constant": false,
      "inputs": [
        {
          "name": "_to",
          "type": "address"
        },
        {
          "name": "_value",
          "type": "uint256"
        }
      ],
      "name": "getZecash",
      "outputs": [
        {
          "name": "",
          "type": "bool"
        }
      ],
      "payable": false,
      "stateMutability": "nonpayable",
      "type": "function"
    },
    {
      "constant": true,
      "inputs": [
        {
          "name": "_owner",
          "type": "address"
        }
      ],
      "name": "balanceOf",
      "outputs": [
        {
          "name": "balance",
          "type": "uint256"
        }
      ],
      "payable": false,
      "stateMutability": "view",
      "type": "function"
    },
    {
      "constant": false,
      "inputs": [
        {
          "name": "oldBlockIndex",
          "type": "uint256"
        },
        {
          "name": "_address",
          "type": "address"
        }
      ],
      "name": "forgeBlock",
      "outputs": [],
      "payable": false,
      "stateMutability": "nonpayable",
      "type": "function"
    },
    {
      "constant": true,
      "inputs": [],
      "name": "getAllIndexes",
      "outputs": [
        {
          "name": "",
          "type": "uint256[]"
        }
      ],
      "payable": false,
      "stateMutability": "view",
      "type": "function"
    },
    {
      "constant": true,
      "inputs": [
        {
          "name": "index",
          "type": "uint256"
        }
      ],
      "name": "getBlock",
      "outputs": [
        {
          "name": "",
          "type": "uint256"
        },
        {
          "name": "",
          "type": "uint256"
        },
        {
          "name": "",
          "type": "bytes32"
        },
        {
          "name": "",
          "type": "bytes32"
        },
        {
          "name": "",
          "type": "address"
        }
      ],
      "payable": false,
      "stateMutability": "view",
      "type": "function"
    },
    {
      "constant": false,
      "inputs": [
        {
          "name": "newBlockIndex",
          "type": "uint256"
        },
        {
          "name": "oldBlockIndex",
          "type": "uint256"
        }
      ],
      "name": "isBlockValid",
      "outputs": [
        {
          "name": "",
          "type": "bool"
        }
      ],
      "payable": false,
      "stateMutability": "nonpayable",
      "type": "function"
    },
    {
      "constant": false,
      "inputs": [
        {
          "name": "_address",
          "type": "address"
        }
      ],
      "name": "mint",
      "outputs": [
        {
          "name": "",
          "type": "bool"
        }
      ],
      "payable": false,
      "stateMutability": "nonpayable",
      "type": "function"
    },
    {
      "constant": true,
      "inputs": [],
      "name": "getBlockNumber",
      "outputs": [
        {
          "name": "blockNumber",
          "type": "uint256"
        }
      ],
      "payable": false,
      "stateMutability": "view",
      "type": "function"
    },
    {
      "constant": true,
      "inputs": [],
      "name": "annualInterest",
      "outputs": [
        {
          "name": "interest",
          "type": "uint256"
        }
      ],
      "payable": false,
      "stateMutability": "view",
      "type": "function"
    },
    {
      "constant": true,
      "inputs": [
        {
          "name": "_address",
          "type": "address"
        }
      ],
      "name": "getCoinAge",
      "outputs": [
        {
          "name": "_coinAge",
          "type": "uint256"
        }
      ],
      "payable": false,
      "stateMutability": "view",
      "type": "function"
    },
    {
      "constant": false,
      "inputs": [
        {
          "name": "_value",
          "type": "uint256"
        }
      ],
      "name": "ownerBurnToken",
      "outputs": [],
      "payable": false,
      "stateMutability": "nonpayable",
      "type": "function"
    },
    {
      "constant": false,
      "inputs": [
        {
          "name": "_address",
          "type": "address"
        }
      ],
      "name": "setValidators",
      "outputs": [],
      "payable": false,
      "stateMutability": "nonpayable",
      "type": "function"
    },
    {
      "constant": false,
      "inputs": [
        {
          "name": "_address",
          "type": "address"
        }
      ],
      "name": "IndexOf",
      "outputs": [
        {
          "name": "",
          "type": "uint256"
        }
      ],
      "payable": false,
      "stateMutability": "nonpayable",
      "type": "function"
    },
    {
      "constant": false,
      "inputs": [
        {
          "name": "_address",
          "type": "address"
        }
      ],
      "name": "removeValidator",
      "outputs": [],
      "payable": false,
      "stateMutability": "nonpayable",
      "type": "function"
    },
    {
      "constant": false,
      "inputs": [
        {
          "name": "i",
          "type": "uint256"
        }
      ],
      "name": "RemoveByIndex",
      "outputs": [],
      "payable": false,
      "stateMutability": "nonpayable",
      "type": "function"
    },
    {
      "constant": true,
      "inputs": [],
      "name": "getValidators",
      "outputs": [
        {
          "name": "",
          "type": "address[]"
        }
      ],
      "payable": false,
      "stateMutability": "view",
      "type": "function"
    },
    {
      "constant": true,
      "inputs": [
        {
          "name": "ins",
          "type": "address"
        }
      ],
      "name": "getValidator",
      "outputs": [
        {
          "name": "",
          "type": "uint256"
        },
        {
          "name": "",
          "type": "uint256"
        },
        {
          "name": "",
          "type": "uint256"
        },
        {
          "name": "",
          "type": "address"
        },
        {
          "name": "",
          "type": "bool"
        },
        {
          "name": "",
          "type": "uint256"
        },
        {
          "name": "",
          "type": "uint256[]"
        }
      ],
      "payable": false,
      "stateMutability": "view",
      "type": "function"
    },
    {
      "constant": true,
      "inputs": [],
      "name": "countValidators",
      "outputs": [
        {
          "name": "",
          "type": "uint256"
        }
      ],
      "payable": false,
      "stateMutability": "view",
      "type": "function"
    },
    {
      "constant": true,
      "inputs": [
        {
          "name": "addr",
          "type": "address"
        }
      ],
      "name": "getBalance",
      "outputs": [
        {
          "name": "",
          "type": "uint256"
        },
        {
          "name": "",
          "type": "uint256"
        }
      ],
      "payable": false,
      "stateMutability": "view",
      "type": "function"
    }
  ],
  "bytecode": "0x60806040526040805190810160405280600881526020017f5a4348546f6b656e0000000000000000000000000000000000000000000000008152506001908051906020019062000051929190620017ec565b506040805190810160405280600381526020017f5a43480000000000000000000000000000000000000000000000000000000000815250600290805190602001906200009f929190620017ec565b506012600355426006556032600755606460085567016345785d8a00006009556000600a556001601260006101000a8154816fffffffffffffffffffffffffffffffff02191690836fffffffffffffffffffffffffffffffff1602179055503480156200010b57600080fd5b50600080600080600080600080336000806101000a81548173ffffffffffffffffffffffffffffffffffffffff021916908373ffffffffffffffffffffffffffffffffffffffff1602179055506b033b2e3c9fd0803ce8000000600c819055506a52b7d2dcc80cd2e4000000600d81905550620186a0600a819055504260048190555043600581905550429750600d54601360008060009054906101000a900473ffffffffffffffffffffffffffffffffffffffff1673ffffffffffffffffffffffffffffffffffffffff1673ffffffffffffffffffffffffffffffffffffffff16815260200190815260200160002081905550600d54600b8190555060c060405190810160405280738547375670f0db79e59c832b2dcaeb0dde2f600673ffffffffffffffffffffffffffffffffffffffff1673ffffffffffffffffffffffffffffffffffffffff16815260200173323233a2052d66b247c96d3a7e63164b5cd8afbb73ffffffffffffffffffffffffffffffffffffffff1673ffffffffffffffffffffffffffffffffffffffff168152602001735ac69b00570412ad65f59404308005b4bea0db7773ffffffffffffffffffffffffffffffffffffffff1673ffffffffffffffffffffffffffffffffffffffff16815260200173bd5dbffe75274258bc9d0d907f957a2d0774d60f73ffffffffffffffffffffffffffffffffffffffff1673ffffffffffffffffffffffffffffffffffffffff168152602001731b2fe0836fb9306250c47143f7274ba38dd2ca0773ffffffffffffffffffffffffffffffffffffffff1673ffffffffffffffffffffffffffffffffffffffff168152602001738c4794fb81114a2dafe3b04eb3d4a3944752b27673ffffffffffffffffffffffffffffffffffffffff1673ffffffffffffffffffffffffffffffffffffffff168152506011906006620003c892919062001873565b50600e6000808152602001908152602001600020965060008760000181905550428760010181905550600087600301816000191690555060008760040181600019169055506000809054906101000a900473ffffffffffffffffffffffffffffffffffffffff168760050160006101000a81548173ffffffffffffffffffffffffffffffffffffffff021916908373ffffffffffffffffffffffffffffffffffffffff160217905550600f8760000154908060018154018082558091505090600182039060005260206000200160009091929091909150555060106000738547375670f0db79e59c832b2dcaeb0dde2f600673ffffffffffffffffffffffffffffffffffffffff1673ffffffffffffffffffffffffffffffffffffffff1681526020019081526020016000209550610fa0866001018190555060008660020181905550738547375670f0db79e59c832b2dcaeb0dde2f60068660030160006101000a81548173ffffffffffffffffffffffffffffffffffffffff021916908373ffffffffffffffffffffffffffffffffffffffff16021790555060018660030160146101000a81548160ff021916908315150217905550610fa060136000738547375670f0db79e59c832b2dcaeb0dde2f600673ffffffffffffffffffffffffffffffffffffffff1673ffffffffffffffffffffffffffffffffffffffff168152602001908152602001600020819055506200064b60136000738547375670f0db79e59c832b2dcaeb0dde2f600673ffffffffffffffffffffffffffffffffffffffff1673ffffffffffffffffffffffffffffffffffffffff16815260200190815260200160002054600a546003620017b1640100000000026401000000009004565b86600001819055506000866004018190555060156000738547375670f0db79e59c832b2dcaeb0dde2f600673ffffffffffffffffffffffffffffffffffffffff1673ffffffffffffffffffffffffffffffffffffffff168152602001908152602001600020604080519081016040528060136000738547375670f0db79e59c832b2dcaeb0dde2f600673ffffffffffffffffffffffffffffffffffffffff1673ffffffffffffffffffffffffffffffffffffffff168152602001908152602001600020546fffffffffffffffffffffffffffffffff1681526020018a67ffffffffffffffff1681525090806001815401808255809150509060018203906000526020600020016000909192909190915060008201518160000160006101000a8154816fffffffffffffffffffffffffffffffff02191690836fffffffffffffffffffffffffffffffff16021790555060208201518160000160106101000a81548167ffffffffffffffff021916908367ffffffffffffffff1602179055505050506010600073323233a2052d66b247c96d3a7e63164b5cd8afbb73ffffffffffffffffffffffffffffffffffffffff1673ffffffffffffffffffffffffffffffffffffffff168152602001908152602001600020945061177085600101819055506000856002018190555073323233a2052d66b247c96d3a7e63164b5cd8afbb8560030160006101000a81548173ffffffffffffffffffffffffffffffffffffffff021916908373ffffffffffffffffffffffffffffffffffffffff1602179055506000856004018190555060018560030160146101000a81548160ff0219169083151502179055506117706013600073323233a2052d66b247c96d3a7e63164b5cd8afbb73ffffffffffffffffffffffffffffffffffffffff1673ffffffffffffffffffffffffffffffffffffffff16815260200190815260200160002081905550620009806013600073323233a2052d66b247c96d3a7e63164b5cd8afbb73ffffffffffffffffffffffffffffffffffffffff1673ffffffffffffffffffffffffffffffffffffffff16815260200190815260200160002054600a546003620017b1640100000000026401000000009004565b85600001819055506015600073323233a2052d66b247c96d3a7e63164b5cd8afbb73ffffffffffffffffffffffffffffffffffffffff1673ffffffffffffffffffffffffffffffffffffffff16815260200190815260200160002060408051908101604052806013600073323233a2052d66b247c96d3a7e63164b5cd8afbb73ffffffffffffffffffffffffffffffffffffffff1673ffffffffffffffffffffffffffffffffffffffff168152602001908152602001600020546fffffffffffffffffffffffffffffffff1681526020018a67ffffffffffffffff1681525090806001815401808255809150509060018203906000526020600020016000909192909190915060008201518160000160006101000a8154816fffffffffffffffffffffffffffffffff02191690836fffffffffffffffffffffffffffffffff16021790555060208201518160000160106101000a81548167ffffffffffffffff021916908367ffffffffffffffff16021790555050505060106000735ac69b00570412ad65f59404308005b4bea0db7773ffffffffffffffffffffffffffffffffffffffff1673ffffffffffffffffffffffffffffffffffffffff1681526020019081526020016000209350614e20846001018190555060008460020181905550735ac69b00570412ad65f59404308005b4bea0db778460030160006101000a81548173ffffffffffffffffffffffffffffffffffffffff021916908373ffffffffffffffffffffffffffffffffffffffff1602179055506000846004018190555060018460030160146101000a81548160ff021916908315150217905550614e2060136000735ac69b00570412ad65f59404308005b4bea0db7773ffffffffffffffffffffffffffffffffffffffff1673ffffffffffffffffffffffffffffffffffffffff1681526020019081526020016000208190555062000cab60136000735ac69b00570412ad65f59404308005b4bea0db7773ffffffffffffffffffffffffffffffffffffffff1673ffffffffffffffffffffffffffffffffffffffff16815260200190815260200160002054600a546003620017b1640100000000026401000000009004565b846000018190555060156000735ac69b00570412ad65f59404308005b4bea0db7773ffffffffffffffffffffffffffffffffffffffff1673ffffffffffffffffffffffffffffffffffffffff168152602001908152602001600020604080519081016040528060136000735ac69b00570412ad65f59404308005b4bea0db7773ffffffffffffffffffffffffffffffffffffffff1673ffffffffffffffffffffffffffffffffffffffff168152602001908152602001600020546fffffffffffffffffffffffffffffffff1681526020018a67ffffffffffffffff1681525090806001815401808255809150509060018203906000526020600020016000909192909190915060008201518160000160006101000a8154816fffffffffffffffffffffffffffffffff02191690836fffffffffffffffffffffffffffffffff16021790555060208201518160000160106101000a81548167ffffffffffffffff021916908367ffffffffffffffff1602179055505050506010600073bd5dbffe75274258bc9d0d907f957a2d0774d60f73ffffffffffffffffffffffffffffffffffffffff1673ffffffffffffffffffffffffffffffffffffffff16815260200190815260200160002092506161a883600101819055506000836002018190555073bd5dbffe75274258bc9d0d907f957a2d0774d60f8360030160006101000a81548173ffffffffffffffffffffffffffffffffffffffff021916908373ffffffffffffffffffffffffffffffffffffffff1602179055506000836004018190555060018360030160146101000a81548160ff0219169083151502179055506161a86013600073bd5dbffe75274258bc9d0d907f957a2d0774d60f73ffffffffffffffffffffffffffffffffffffffff1673ffffffffffffffffffffffffffffffffffffffff1681526020019081526020016000208190555062000fd66013600073bd5dbffe75274258bc9d0d907f957a2d0774d60f73ffffffffffffffffffffffffffffffffffffffff1673ffffffffffffffffffffffffffffffffffffffff16815260200190815260200160002054600a546003620017b1640100000000026401000000009004565b83600001819055506015600073bd5dbffe75274258bc9d0d907f957a2d0774d60f73ffffffffffffffffffffffffffffffffffffffff1673ffffffffffffffffffffffffffffffffffffffff16815260200190815260200160002060408051908101604052806013600073bd5dbffe75274258bc9d0d907f957a2d0774d60f73ffffffffffffffffffffffffffffffffffffffff1673ffffffffffffffffffffffffffffffffffffffff168152602001908152602001600020546fffffffffffffffffffffffffffffffff1681526020018a67ffffffffffffffff1681525090806001815401808255809150509060018203906000526020600020016000909192909190915060008201518160000160006101000a8154816fffffffffffffffffffffffffffffffff02191690836fffffffffffffffffffffffffffffffff16021790555060208201518160000160106101000a81548167ffffffffffffffff021916908367ffffffffffffffff16021790555050505060106000731b2fe0836fb9306250c47143f7274ba38dd2ca0773ffffffffffffffffffffffffffffffffffffffff1673ffffffffffffffffffffffffffffffffffffffff1681526020019081526020016000209150619c40826001018190555060008260020181905550731b2fe0836fb9306250c47143f7274ba38dd2ca078260030160006101000a81548173ffffffffffffffffffffffffffffffffffffffff021916908373ffffffffffffffffffffffffffffffffffffffff1602179055506000826004018190555060018260030160146101000a81548160ff021916908315150217905550619c4060136000731b2fe0836fb9306250c47143f7274ba38dd2ca0773ffffffffffffffffffffffffffffffffffffffff1673ffffffffffffffffffffffffffffffffffffffff168152602001908152602001600020819055506200130160136000731b2fe0836fb9306250c47143f7274ba38dd2ca0773ffffffffffffffffffffffffffffffffffffffff1673ffffffffffffffffffffffffffffffffffffffff16815260200190815260200160002054600a546003620017b1640100000000026401000000009004565b826000018190555060156000731b2fe0836fb9306250c47143f7274ba38dd2ca0773ffffffffffffffffffffffffffffffffffffffff1673ffffffffffffffffffffffffffffffffffffffff168152602001908152602001600020604080519081016040528060136000731b2fe0836fb9306250c47143f7274ba38dd2ca0773ffffffffffffffffffffffffffffffffffffffff1673ffffffffffffffffffffffffffffffffffffffff168152602001908152602001600020546fffffffffffffffffffffffffffffffff1681526020018a67ffffffffffffffff1681525090806001815401808255809150509060018203906000526020600020016000909192909190915060008201518160000160006101000a8154816fffffffffffffffffffffffffffffffff02191690836fffffffffffffffffffffffffffffffff16021790555060208201518160000160106101000a81548167ffffffffffffffff021916908367ffffffffffffffff16021790555050505060106000738c4794fb81114a2dafe3b04eb3d4a3944752b27673ffffffffffffffffffffffffffffffffffffffff1673ffffffffffffffffffffffffffffffffffffffff1681526020019081526020016000209050611388816001018190555060008160020181905550738c4794fb81114a2dafe3b04eb3d4a3944752b2768160030160006101000a81548173ffffffffffffffffffffffffffffffffffffffff021916908373ffffffffffffffffffffffffffffffffffffffff1602179055506000816004018190555060018160030160146101000a81548160ff02191690831515021790555061138860136000738c4794fb81114a2dafe3b04eb3d4a3944752b27673ffffffffffffffffffffffffffffffffffffffff1673ffffffffffffffffffffffffffffffffffffffff168152602001908152602001600020819055506200162c60136000738c4794fb81114a2dafe3b04eb3d4a3944752b27673ffffffffffffffffffffffffffffffffffffffff1673ffffffffffffffffffffffffffffffffffffffff16815260200190815260200160002054600a546003620017b1640100000000026401000000009004565b816000018190555060156000738c4794fb81114a2dafe3b04eb3d4a3944752b27673ffffffffffffffffffffffffffffffffffffffff1673ffffffffffffffffffffffffffffffffffffffff168152602001908152602001600020604080519081016040528060136000738c4794fb81114a2dafe3b04eb3d4a3944752b27673ffffffffffffffffffffffffffffffffffffffff1673ffffffffffffffffffffffffffffffffffffffff168152602001908152602001600020546fffffffffffffffffffffffffffffffff1681526020018a67ffffffffffffffff1681525090806001815401808255809150509060018203906000526020600020016000909192909190915060008201518160000160006101000a8154816fffffffffffffffffffffffffffffffff02191690836fffffffffffffffffffffffffffffffff16021790555060208201518160000160106101000a81548167ffffffffffffffff021916908367ffffffffffffffff160217905550505050505050505050505062001970565b600080600060018401600a0a86029150600a60058684811515620017d157fe5b0401811515620017dd57fe5b04905080925050509392505050565b828054600181600116156101000203166002900490600052602060002090601f016020900481019282601f106200182f57805160ff191683800117855562001860565b8280016001018555821562001860579182015b828111156200185f57825182559160200191906001019062001842565b5b5090506200186f919062001902565b5090565b828054828255906000526020600020908101928215620018ef579160200282015b82811115620018ee5782518260006101000a81548173ffffffffffffffffffffffffffffffffffffffff021916908373ffffffffffffffffffffffffffffffffffffffff1602179055509160200191906001019062001894565b5b509050620018fe91906200192a565b5090565b6200192791905b808211156200192357600081600090555060010162001909565b5090565b90565b6200196d91905b808211156200196957600081816101000a81549073ffffffffffffffffffffffffffffffffffffffff02191690555060010162001931565b5090565b90565b613c4580620019806000396000f3006080604052600436106101d8576000357c0100000000000000000000000000000000000000000000000000000000900463ffffffff16806304c07569146101dd57806306fdde031461027657806318160ddd146103065780631904bb2e14610331578063196d562b146104235780632ab4d0521461045057806330a0f7681461047b578063313ce567146104be57806331eebae3146104e95780633fbe0a1f1461052a57806340a141ff1461059757806342cbb15c146105da57806344d998fa14610605578063523113dd1461065c5780635b054f9b146106c15780636a627842146106ec57806370a08231146107475780637419f1901461079e5780638da5cb5b146107c957806390762a8b1461082057806395d89b411461084d57806397f3c806146108dd5780639fd4da4014610908578063a2f0a1f214610933578063a57e99021461099f578063a9059cbb146109ee578063b2552fc414610a53578063b7ab4db514610a7e578063c25b1eaf14610aea578063c9f403d114610bb6578063cbd8877e14610c0d578063cd474b0414610c38578063d377234b14610c63578063e1c3bac614610cb0578063f2bb5ce114610cdb578063f2fde38b14610d06578063f8b2cb4f14610d49578063fa52c7d814610da7575b600080fd5b3480156101e957600080fd5b5061020860048036038101908080359060200190929190505050610e51565b60405180868152602001858152602001846000191660001916815260200183600019166000191681526020018273ffffffffffffffffffffffffffffffffffffffff1673ffffffffffffffffffffffffffffffffffffffff1681526020019550505050505060405180910390f35b34801561028257600080fd5b5061028b610eff565b6040518080602001828103825283818151815260200191508051906020019080838360005b838110156102cb5780820151818401526020810190506102b0565b50505050905090810190601f1680156102f85780820380516001836020036101000a031916815260200191505b509250505060405180910390f35b34801561031257600080fd5b5061031b610f9d565b6040518082815260200191505060405180910390f35b34801561033d57600080fd5b50610372600480360381019080803573ffffffffffffffffffffffffffffffffffffffff169060200190929190505050610fa3565b604051808881526020018781526020018681526020018573ffffffffffffffffffffffffffffffffffffffff1673ffffffffffffffffffffffffffffffffffffffff1681526020018415151515815260200183815260200180602001828103825283818151815260200191508051906020019060200280838360005b838110156104095780820151818401526020810190506103ee565b505050509050019850505050505050505060405180910390f35b34801561042f57600080fd5b5061044e6004803603810190808035906020019092919050505061121a565b005b34801561045c57600080fd5b506104656112e5565b6040518082815260200191505060405180910390f35b34801561048757600080fd5b506104bc600480360381019080803573ffffffffffffffffffffffffffffffffffffffff1690602001909291905050506112eb565b005b3480156104ca57600080fd5b506104d361140c565b6040518082815260200191505060405180910390f35b3480156104f557600080fd5b5061051460048036038101908080359060200190929190505050611412565b6040518082815260200191505060405180910390f35b34801561053657600080fd5b5061055560048036038101908080359060200190929190505050611435565b604051808273ffffffffffffffffffffffffffffffffffffffff1673ffffffffffffffffffffffffffffffffffffffff16815260200191505060405180910390f35b3480156105a357600080fd5b506105d8600480360381019080803573ffffffffffffffffffffffffffffffffffffffff169060200190929190505050611473565b005b3480156105e657600080fd5b506105ef611996565b6040518082815260200191505060405180910390f35b34801561061157600080fd5b50610646600480360381019080803573ffffffffffffffffffffffffffffffffffffffff1690602001909291905050506119b2565b6040518082815260200191505060405180910390f35b34801561066857600080fd5b506106a7600480360381019080803573ffffffffffffffffffffffffffffffffffffffff16906020019092919080359060200190929190505050611c45565b604051808215151515815260200191505060405180910390f35b3480156106cd57600080fd5b506106d6612489565b6040518082815260200191505060405180910390f35b3480156106f857600080fd5b5061072d600480360381019080803573ffffffffffffffffffffffffffffffffffffffff16906020019092919050505061248f565b604051808215151515815260200191505060405180910390f35b34801561075357600080fd5b50610788600480360381019080803573ffffffffffffffffffffffffffffffffffffffff1690602001909291905050506127e5565b6040518082815260200191505060405180910390f35b3480156107aa57600080fd5b506107b361282e565b6040518082815260200191505060405180910390f35b3480156107d557600080fd5b506107de612834565b604051808273ffffffffffffffffffffffffffffffffffffffff1673ffffffffffffffffffffffffffffffffffffffff16815260200191505060405180910390f35b34801561082c57600080fd5b5061084b60048036038101908080359060200190929190505050612859565b005b34801561085957600080fd5b50610862612c55565b6040518080602001828103825283818151815260200191508051906020019080838360005b838110156108a2578082015181840152602081019050610887565b50505050905090810190601f1680156108cf5780820380516001836020036101000a031916815260200191505b509250505060405180910390f35b3480156108e957600080fd5b506108f2612cf3565b6040518082815260200191505060405180910390f35b34801561091457600080fd5b5061091d612d00565b6040518082815260200191505060405180910390f35b34801561093f57600080fd5b50610948612d06565b6040518080602001828103825283818151815260200191508051906020019060200280838360005b8381101561098b578082015181840152602081019050610970565b505050509050019250505060405180910390f35b3480156109ab57600080fd5b506109d46004803603810190808035906020019092919080359060200190929190505050612d5e565b604051808215151515815260200191505060405180910390f35b3480156109fa57600080fd5b50610a39600480360381019080803573ffffffffffffffffffffffffffffffffffffffff16906020019092919080359060200190929190505050612dfb565b604051808215151515815260200191505060405180910390f35b348015610a5f57600080fd5b50610a686132c6565b6040518082815260200191505060405180910390f35b348015610a8a57600080fd5b50610a9361337a565b6040518080602001828103825283818151815260200191508051906020019060200280838360005b83811015610ad6578082015181840152602081019050610abb565b505050509050019250505060405180910390f35b348015610af657600080fd5b50610b1560048036038101908080359060200190929190505050613408565b604051808781526020018681526020018573ffffffffffffffffffffffffffffffffffffffff1673ffffffffffffffffffffffffffffffffffffffff168152602001846000191660001916815260200183600019166000191681526020018273ffffffffffffffffffffffffffffffffffffffff1673ffffffffffffffffffffffffffffffffffffffff168152602001965050505050505060405180910390f35b348015610bc257600080fd5b50610bf7600480360381019080803573ffffffffffffffffffffffffffffffffffffffff169060200190929190505050613484565b6040518082815260200191505060405180910390f35b348015610c1957600080fd5b50610c22613510565b6040518082815260200191505060405180910390f35b348015610c4457600080fd5b50610c4d613516565b6040518082815260200191505060405180910390f35b348015610c6f57600080fd5b50610cae60048036038101908080359060200190929190803573ffffffffffffffffffffffffffffffffffffffff16906020019092919050505061351c565b005b348015610cbc57600080fd5b50610cc56136d1565b6040518082815260200191505060405180910390f35b348015610ce757600080fd5b50610cf06136d7565b6040518082815260200191505060405180910390f35b348015610d1257600080fd5b50610d47600480360381019080803573ffffffffffffffffffffffffffffffffffffffff1690602001909291905050506136dd565b005b348015610d5557600080fd5b50610d8a600480360381019080803573ffffffffffffffffffffffffffffffffffffffff1690602001909291905050506137b7565b604051808381526020018281526020019250505060405180910390f35b348015610db357600080fd5b50610de8600480360381019080803573ffffffffffffffffffffffffffffffffffffffff169060200190929190505050613856565b604051808781526020018681526020018581526020018473ffffffffffffffffffffffffffffffffffffffff1673ffffffffffffffffffffffffffffffffffffffff16815260200183151515158152602001828152602001965050505050505060405180910390f35b6000806000806000600e600087815260200190815260200160002060000154600e600088815260200190815260200160002060010154600e600089815260200190815260200160002060030154600e60008a815260200190815260200160002060040154600e60008b815260200190815260200160002060050160009054906101000a900473ffffffffffffffffffffffffffffffffffffffff169450945094509450945091939590929450565b60018054600181600116156101000203166002900480601f016020809104026020016040519081016040528092919081815260200182805460018160011615610100020316600290048015610f955780601f10610f6a57610100808354040283529160200191610f95565b820191906000526020600020905b815481529060010190602001808311610f7857829003601f168201915b505050505081565b600b5481565b6000806000806000806060601060008973ffffffffffffffffffffffffffffffffffffffff1673ffffffffffffffffffffffffffffffffffffffff16815260200190815260200160002060010154601060008a73ffffffffffffffffffffffffffffffffffffffff1673ffffffffffffffffffffffffffffffffffffffff16815260200190815260200160002060000154601060008b73ffffffffffffffffffffffffffffffffffffffff1673ffffffffffffffffffffffffffffffffffffffff16815260200190815260200160002060020154601060008c73ffffffffffffffffffffffffffffffffffffffff1673ffffffffffffffffffffffffffffffffffffffff16815260200190815260200160002060030160009054906101000a900473ffffffffffffffffffffffffffffffffffffffff16601060008d73ffffffffffffffffffffffffffffffffffffffff1673ffffffffffffffffffffffffffffffffffffffff16815260200190815260200160002060030160149054906101000a900460ff16601060008e73ffffffffffffffffffffffffffffffffffffffff1673ffffffffffffffffffffffffffffffffffffffff16815260200190815260200160002060040154601060008f73ffffffffffffffffffffffffffffffffffffffff1673ffffffffffffffffffffffffffffffffffffffff168152602001908152602001600020600501808054806020026020016040519081016040528092919081815260200182805480156111fa57602002820191906000526020600020905b8154815260200190600101908083116111e6575b505050505090509650965096509650965096509650919395979092949650565b5b6001601180549050038110156112cc5760116001820181548110151561123d57fe5b9060005260206000200160009054906101000a900473ffffffffffffffffffffffffffffffffffffffff1660118281548110151561127757fe5b9060005260206000200160006101000a81548173ffffffffffffffffffffffffffffffffffffffff021916908373ffffffffffffffffffffffffffffffffffffffff160217905550808060010191505061121b565b60118054809190600190036112e19190613b4a565b5050565b600c5481565b6000601060008373ffffffffffffffffffffffffffffffffffffffff1673ffffffffffffffffffffffffffffffffffffffff168152602001908152602001600020905060008160010181905550818160030160006101000a81548173ffffffffffffffffffffffffffffffffffffffff021916908373ffffffffffffffffffffffffffffffffffffffff16021790555060008160030160146101000a81548160ff0219169083151502179055506000816004018190555060118290806001815401808255809150509060018203906000526020600020016000909192909190916101000a81548173ffffffffffffffffffffffffffffffffffffffff021916908373ffffffffffffffffffffffffffffffffffffffff160217905550505050565b60035481565b600f8181548110151561142157fe5b906000526020600020016000915090505481565b60118181548110151561144457fe5b906000526020600020016000915054906101000a900473ffffffffffffffffffffffffffffffffffffffff1681565b600080600061152d601060008673ffffffffffffffffffffffffffffffffffffffff1673ffffffffffffffffffffffffffffffffffffffff16815260200190815260200160002060010154601360008060009054906101000a900473ffffffffffffffffffffffffffffffffffffffff1673ffffffffffffffffffffffffffffffffffffffff1673ffffffffffffffffffffffffffffffffffffffff168152602001908152602001600020546138bf90919063ffffffff16565b601360008060009054906101000a900473ffffffffffffffffffffffffffffffffffffffff1673ffffffffffffffffffffffffffffffffffffffff1673ffffffffffffffffffffffffffffffffffffffff168152602001908152602001600020819055506115e8601060008673ffffffffffffffffffffffffffffffffffffffff1673ffffffffffffffffffffffffffffffffffffffff16815260200190815260200160002060010154600a546138dd90919063ffffffff16565b600a81905550600092505b6011805490508360ff16101561171b5761168c6013600060118660ff1681548110151561161c57fe5b9060005260206000200160009054906101000a900473ffffffffffffffffffffffffffffffffffffffff1673ffffffffffffffffffffffffffffffffffffffff1673ffffffffffffffffffffffffffffffffffffffff16815260200190815260200160002054600a5460036138f6565b6010600060118660ff168154811015156116a257fe5b9060005260206000200160009054906101000a900473ffffffffffffffffffffffffffffffffffffffff1673ffffffffffffffffffffffffffffffffffffffff1673ffffffffffffffffffffffffffffffffffffffff1681526020019081526020016000206000018190555082806001019350506115f3565b6000601060008673ffffffffffffffffffffffffffffffffffffffff1673ffffffffffffffffffffffffffffffffffffffff168152602001908152602001600020600101819055506000601360008673ffffffffffffffffffffffffffffffffffffffff1673ffffffffffffffffffffffffffffffffffffffff16815260200190815260200160002081905550429150601560008060009054906101000a900473ffffffffffffffffffffffffffffffffffffffff1673ffffffffffffffffffffffffffffffffffffffff1673ffffffffffffffffffffffffffffffffffffffff1681526020019081526020016000206040805190810160405280601360008060009054906101000a900473ffffffffffffffffffffffffffffffffffffffff1673ffffffffffffffffffffffffffffffffffffffff1673ffffffffffffffffffffffffffffffffffffffff168152602001908152602001600020546fffffffffffffffffffffffffffffffff1681526020018467ffffffffffffffff1681525090806001815401808255809150509060018203906000526020600020016000909192909190915060008201518160000160006101000a8154816fffffffffffffffffffffffffffffffff02191690836fffffffffffffffffffffffffffffffff16021790555060208201518160000160106101000a81548167ffffffffffffffff021916908367ffffffffffffffff1602179055505050506000601060008673ffffffffffffffffffffffffffffffffffffffff1673ffffffffffffffffffffffffffffffffffffffff1681526020019081526020016000206000018190555061198584613484565b90506119908161121a565b50505050565b60006119ad600554436138dd90919063ffffffff16565b905090565b600080600080601560008673ffffffffffffffffffffffffffffffffffffffff1673ffffffffffffffffffffffffffffffffffffffff16815260200190815260200160002080549050111515611a0b5760009250611c3e565b600091505b601560008573ffffffffffffffffffffffffffffffffffffffff1673ffffffffffffffffffffffffffffffffffffffff16815260200190815260200160002080549050821015611c3a57611ae6600754601560008773ffffffffffffffffffffffffffffffffffffffff1673ffffffffffffffffffffffffffffffffffffffff16815260200190815260200160002084815481101515611aac57fe5b9060005260206000200160000160109054906101000a900467ffffffffffffffff1667ffffffffffffffff166138bf90919063ffffffff16565b421015611af257611c2d565b611b7c601560008673ffffffffffffffffffffffffffffffffffffffff1673ffffffffffffffffffffffffffffffffffffffff16815260200190815260200160002083815481101515611b4157fe5b9060005260206000200160000160109054906101000a900467ffffffffffffffff1667ffffffffffffffff16426138dd90919063ffffffff16565b9050600854811115611b8e5760085490505b611c2a81601560008773ffffffffffffffffffffffffffffffffffffffff1673ffffffffffffffffffffffffffffffffffffffff16815260200190815260200160002084815481101515611bde57fe5b9060005260206000200160000160009054906101000a90046fffffffffffffffffffffffffffffffff166fffffffffffffffffffffffffffffffff1602846138bf90919063ffffffff16565b92505b8180600101925050611a10565b8292505b5050919050565b600080600083601360008060009054906101000a900473ffffffffffffffffffffffffffffffffffffffff1673ffffffffffffffffffffffffffffffffffffffff1673ffffffffffffffffffffffffffffffffffffffff168152602001908152602001600020541080611cfb5750620186a084601360008873ffffffffffffffffffffffffffffffffffffffff1673ffffffffffffffffffffffffffffffffffffffff1681526020019081526020016000205401115b15611d095760009250612481565b83601060008773ffffffffffffffffffffffffffffffffffffffff1673ffffffffffffffffffffffffffffffffffffffff1681526020019081526020016000206001015401601060008773ffffffffffffffffffffffffffffffffffffffff1673ffffffffffffffffffffffffffffffffffffffff16815260200190815260200160002060010181905550611e0784601360008060009054906101000a900473ffffffffffffffffffffffffffffffffffffffff1673ffffffffffffffffffffffffffffffffffffffff1673ffffffffffffffffffffffffffffffffffffffff168152602001908152602001600020546138dd90919063ffffffff16565b601360008060009054906101000a900473ffffffffffffffffffffffffffffffffffffffff1673ffffffffffffffffffffffffffffffffffffffff1673ffffffffffffffffffffffffffffffffffffffff16815260200190815260200160002081905550611ebd84601360008873ffffffffffffffffffffffffffffffffffffffff1673ffffffffffffffffffffffffffffffffffffffff168152602001908152602001600020546138bf90919063ffffffff16565b601360008773ffffffffffffffffffffffffffffffffffffffff1673ffffffffffffffffffffffffffffffffffffffff168152602001908152602001600020819055508473ffffffffffffffffffffffffffffffffffffffff166000809054906101000a900473ffffffffffffffffffffffffffffffffffffffff1673ffffffffffffffffffffffffffffffffffffffff167fddf252ad1be2c89b69c2b068fc378daa952ba7f163c4a11628f55a4df523b3ef866040518082815260200191505060405180910390a36000601560008773ffffffffffffffffffffffffffffffffffffffff1673ffffffffffffffffffffffffffffffffffffffff16815260200190815260200160002080549050111561201d57601560008673ffffffffffffffffffffffffffffffffffffffff1673ffffffffffffffffffffffffffffffffffffffff168152602001908152602001600020600061201c9190613b76565b5b429150601560008060009054906101000a900473ffffffffffffffffffffffffffffffffffffffff1673ffffffffffffffffffffffffffffffffffffffff1673ffffffffffffffffffffffffffffffffffffffff1681526020019081526020016000206040805190810160405280601360008060009054906101000a900473ffffffffffffffffffffffffffffffffffffffff1673ffffffffffffffffffffffffffffffffffffffff1673ffffffffffffffffffffffffffffffffffffffff168152602001908152602001600020546fffffffffffffffffffffffffffffffff1681526020018467ffffffffffffffff1681525090806001815401808255809150509060018203906000526020600020016000909192909190915060008201518160000160006101000a8154816fffffffffffffffffffffffffffffffff02191690836fffffffffffffffffffffffffffffffff16021790555060208201518160000160106101000a81548167ffffffffffffffff021916908367ffffffffffffffff160217905550505050601560008673ffffffffffffffffffffffffffffffffffffffff1673ffffffffffffffffffffffffffffffffffffffff1681526020019081526020016000206040805190810160405280866fffffffffffffffffffffffffffffffff1681526020018467ffffffffffffffff1681525090806001815401808255809150509060018203906000526020600020016000909192909190915060008201518160000160006101000a8154816fffffffffffffffffffffffffffffffff02191690836fffffffffffffffffffffffffffffffff16021790555060208201518160000160106101000a81548167ffffffffffffffff021916908367ffffffffffffffff16021790555050505083600a5401600a81905550612309601360008773ffffffffffffffffffffffffffffffffffffffff1673ffffffffffffffffffffffffffffffffffffffff16815260200190815260200160002054600a5460036138f6565b601060008773ffffffffffffffffffffffffffffffffffffffff1673ffffffffffffffffffffffffffffffffffffffff16815260200190815260200160002060000181905550600090505b6011805490508160ff16101561247c576123ed6013600060118460ff1681548110151561237d57fe5b9060005260206000200160009054906101000a900473ffffffffffffffffffffffffffffffffffffffff1673ffffffffffffffffffffffffffffffffffffffff1673ffffffffffffffffffffffffffffffffffffffff16815260200190815260200160002054600a5460036138f6565b6010600060118460ff1681548110151561240357fe5b9060005260206000200160009054906101000a900473ffffffffffffffffffffffffffffffffffffffff1673ffffffffffffffffffffffffffffffffffffffff1673ffffffffffffffffffffffffffffffffffffffff168152602001908152602001600020600001819055508080600101915050612354565b600192505b505092915050565b60045481565b6000806000600c54600b541015156124a657600080fd5b6000601360008673ffffffffffffffffffffffffffffffffffffffff1673ffffffffffffffffffffffffffffffffffffffff168152602001908152602001600020541115156124f857600092506127de565b6000601560008673ffffffffffffffffffffffffffffffffffffffff1673ffffffffffffffffffffffffffffffffffffffff1681526020019081526020016000208054905011151561254d57600092506127de565b6125568461392f565b915060008211151561256b57600092506127de565b61258082600b546138bf90919063ffffffff16565b600b81905550601060008573ffffffffffffffffffffffffffffffffffffffff1673ffffffffffffffffffffffffffffffffffffffff16815260200190815260200160002090506125f16125de606484613a2990919063ffffffff16565b82600201546138bf90919063ffffffff16565b8160020181905550601560008573ffffffffffffffffffffffffffffffffffffffff1673ffffffffffffffffffffffffffffffffffffffff16815260200190815260200160002060006126449190613b76565b601560008573ffffffffffffffffffffffffffffffffffffffff1673ffffffffffffffffffffffffffffffffffffffff1681526020019081526020016000206040805190810160405280601360008873ffffffffffffffffffffffffffffffffffffffff1673ffffffffffffffffffffffffffffffffffffffff168152602001908152602001600020546fffffffffffffffffffffffffffffffff1681526020014267ffffffffffffffff1681525090806001815401808255809150509060018203906000526020600020016000909192909190915060008201518160000160006101000a8154816fffffffffffffffffffffffffffffffff02191690836fffffffffffffffffffffffffffffffff16021790555060208201518160000160106101000a81548167ffffffffffffffff021916908367ffffffffffffffff1602179055505050508373ffffffffffffffffffffffffffffffffffffffff167f0f6798a560793a54c3bcfe86a93cde1e73087d944c0ea20544137d4121396885836040518082815260200191505060405180910390a2600192505b5050919050565b6000601360008373ffffffffffffffffffffffffffffffffffffffff1673ffffffffffffffffffffffffffffffffffffffff168152602001908152602001600020549050919050565b60065481565b6000809054906101000a900473ffffffffffffffffffffffffffffffffffffffff1681565b6000809054906101000a900473ffffffffffffffffffffffffffffffffffffffff1673ffffffffffffffffffffffffffffffffffffffff163373ffffffffffffffffffffffffffffffffffffffff161415156128b457600080fd5b6000811115156128c357600080fd5b61293681601360008060009054906101000a900473ffffffffffffffffffffffffffffffffffffffff1673ffffffffffffffffffffffffffffffffffffffff1673ffffffffffffffffffffffffffffffffffffffff168152602001908152602001600020546138dd90919063ffffffff16565b601360008060009054906101000a900473ffffffffffffffffffffffffffffffffffffffff1673ffffffffffffffffffffffffffffffffffffffff1673ffffffffffffffffffffffffffffffffffffffff16815260200190815260200160002081905550601560008060009054906101000a900473ffffffffffffffffffffffffffffffffffffffff1673ffffffffffffffffffffffffffffffffffffffff1673ffffffffffffffffffffffffffffffffffffffff1681526020019081526020016000206000612a069190613b76565b601560008060009054906101000a900473ffffffffffffffffffffffffffffffffffffffff1673ffffffffffffffffffffffffffffffffffffffff1673ffffffffffffffffffffffffffffffffffffffff1681526020019081526020016000206040805190810160405280601360008060009054906101000a900473ffffffffffffffffffffffffffffffffffffffff1673ffffffffffffffffffffffffffffffffffffffff1673ffffffffffffffffffffffffffffffffffffffff168152602001908152602001600020546fffffffffffffffffffffffffffffffff1681526020014267ffffffffffffffff1681525090806001815401808255809150509060018203906000526020600020016000909192909190915060008201518160000160006101000a8154816fffffffffffffffffffffffffffffffff02191690836fffffffffffffffffffffffffffffffff16021790555060208201518160000160106101000a81548167ffffffffffffffff021916908367ffffffffffffffff160217905550505050612ba481600b546138dd90919063ffffffff16565b600b81905550612bbf81600d546138dd90919063ffffffff16565b600d81905550612bdd600a8202600c546138dd90919063ffffffff16565b600c819055506000809054906101000a900473ffffffffffffffffffffffffffffffffffffffff1673ffffffffffffffffffffffffffffffffffffffff167fcc16f5dbb4873280815c1ee09dbd06736cffcc184412cf7a71a0fdb75d397ca5826040518082815260200191505060405180910390a250565b60028054600181600116156101000203166002900480601f016020809104026020016040519081016040528092919081815260200182805460018160011615610100020316600290048015612ceb5780601f10612cc057610100808354040283529160200191612ceb565b820191906000526020600020905b815481529060010190602001808311612cce57829003601f168201915b505050505081565b6000601180549050905090565b600d5481565b6060600f805480602002602001604051908101604052809291908181526020018280548015612d5457602002820191906000526020600020905b815481526020019060010190808311612d40575b5050505050905090565b60008282141515612d725760009050612df5565b600e60008481526020019081526020016000206004015460001916600e60008481526020019081526020016000206003015460001916141515612db85760009050612df5565b600e60008481526020019081526020016000206003015460001916612ddc84613a44565b60001916141515612df05760009050612df5565b600190505b92915050565b6000808373ffffffffffffffffffffffffffffffffffffffff163373ffffffffffffffffffffffffffffffffffffffff161415612e4257612e3b8461248f565b91506132bf565b612e9483601360003373ffffffffffffffffffffffffffffffffffffffff1673ffffffffffffffffffffffffffffffffffffffff168152602001908152602001600020546138dd90919063ffffffff16565b601360003373ffffffffffffffffffffffffffffffffffffffff1673ffffffffffffffffffffffffffffffffffffffff16815260200190815260200160002081905550612f2983601360008773ffffffffffffffffffffffffffffffffffffffff1673ffffffffffffffffffffffffffffffffffffffff168152602001908152602001600020546138bf90919063ffffffff16565b601360008673ffffffffffffffffffffffffffffffffffffffff1673ffffffffffffffffffffffffffffffffffffffff168152602001908152602001600020819055508373ffffffffffffffffffffffffffffffffffffffff163373ffffffffffffffffffffffffffffffffffffffff167fddf252ad1be2c89b69c2b068fc378daa952ba7f163c4a11628f55a4df523b3ef856040518082815260200191505060405180910390a36000601560003373ffffffffffffffffffffffffffffffffffffffff1673ffffffffffffffffffffffffffffffffffffffff16815260200190815260200160002080549050111561306857601560003373ffffffffffffffffffffffffffffffffffffffff1673ffffffffffffffffffffffffffffffffffffffff16815260200190815260200160002060006130679190613b76565b5b429050601560003373ffffffffffffffffffffffffffffffffffffffff1673ffffffffffffffffffffffffffffffffffffffff1681526020019081526020016000206040805190810160405280601360003373ffffffffffffffffffffffffffffffffffffffff1673ffffffffffffffffffffffffffffffffffffffff168152602001908152602001600020546fffffffffffffffffffffffffffffffff1681526020018367ffffffffffffffff1681525090806001815401808255809150509060018203906000526020600020016000909192909190915060008201518160000160006101000a8154816fffffffffffffffffffffffffffffffff02191690836fffffffffffffffffffffffffffffffff16021790555060208201518160000160106101000a81548167ffffffffffffffff021916908367ffffffffffffffff160217905550505050601560008573ffffffffffffffffffffffffffffffffffffffff1673ffffffffffffffffffffffffffffffffffffffff1681526020019081526020016000206040805190810160405280856fffffffffffffffffffffffffffffffff1681526020018367ffffffffffffffff1681525090806001815401808255809150509060018203906000526020600020016000909192909190915060008201518160000160006101000a8154816fffffffffffffffffffffffffffffffff02191690836fffffffffffffffffffffffffffffffff16021790555060208201518160000160106101000a81548167ffffffffffffffff021916908367ffffffffffffffff160217905550505050600191505b5092915050565b600080429050600954915060006132fe6301e133806132f0600654856138dd90919063ffffffff16565b613a2990919063ffffffff16565b14156133255761331e606460095461030202613a2990919063ffffffff16565b9150613376565b60016133526301e13380613344600654856138dd90919063ffffffff16565b613a2990919063ffffffff16565b14156133755761337260646009546101b302613a2990919063ffffffff16565b91505b5b5090565b606060118054806020026020016040519081016040528092919081815260200182805480156133fe57602002820191906000526020600020905b8160009054906101000a900473ffffffffffffffffffffffffffffffffffffffff1673ffffffffffffffffffffffffffffffffffffffff16815260200190600101908083116133b4575b5050505050905090565b600e6020528060005260406000206000915090508060000154908060010154908060020160009054906101000a900473ffffffffffffffffffffffffffffffffffffffff16908060030154908060040154908060050160009054906101000a900473ffffffffffffffffffffffffffffffffffffffff16905086565b600080600090505b8273ffffffffffffffffffffffffffffffffffffffff166011828154811015156134b257fe5b9060005260206000200160009054906101000a900473ffffffffffffffffffffffffffffffffffffffff1673ffffffffffffffffffffffffffffffffffffffff1614151561350757808060010191505061348c565b80915050919050565b60075481565b60055481565b6000806000600e60008681526020019081526020016000209250600e60006001870181526020019081526020016000209150600183600001540182600001819055504282600101819055508260030154826004018160001916905550838260020160006101000a81548173ffffffffffffffffffffffffffffffffffffffff021916908373ffffffffffffffffffffffffffffffffffffffff1602179055506135c88260000154613a44565b826003018160001916905550838260050160006101000a81548173ffffffffffffffffffffffffffffffffffffffff021916908373ffffffffffffffffffffffffffffffffffffffff160217905550600f82600001549080600181540180825580915050906001820390600052602060002001600090919290919091505550601060008573ffffffffffffffffffffffffffffffffffffffff1673ffffffffffffffffffffffffffffffffffffffff16815260200190815260200160002090506001816004015401816004018190555080600501826000015490806001815401808255809150509060018203906000526020600020016000909192909190915055505050505050565b60085481565b60095481565b6000809054906101000a900473ffffffffffffffffffffffffffffffffffffffff1673ffffffffffffffffffffffffffffffffffffffff163373ffffffffffffffffffffffffffffffffffffffff1614151561373857600080fd5b600073ffffffffffffffffffffffffffffffffffffffff168173ffffffffffffffffffffffffffffffffffffffff161415151561377457600080fd5b806000806101000a81548173ffffffffffffffffffffffffffffffffffffffff021916908373ffffffffffffffffffffffffffffffffffffffff16021790555050565b6000806000613809601360008673ffffffffffffffffffffffffffffffffffffffff1673ffffffffffffffffffffffffffffffffffffffff16815260200190815260200160002054600a5460036138f6565b9050601360008573ffffffffffffffffffffffffffffffffffffffff1673ffffffffffffffffffffffffffffffffffffffff16815260200190815260200160002054819250925050915091565b60106020528060005260406000206000915090508060000154908060010154908060020154908060030160009054906101000a900473ffffffffffffffffffffffffffffffffffffffff16908060030160149054906101000a900460ff16908060040154905086565b60008082840190508381101515156138d357fe5b8091505092915050565b60008282111515156138eb57fe5b818303905092915050565b600080600060018401600a0a86029150600a6005868481151561391557fe5b040181151561392057fe5b04905080925050509392505050565b600080600080429250613941856119b2565b91506000821115156139565760009350613a21565b600954905060006139886301e1338061397a600654876138dd90919063ffffffff16565b613a2990919063ffffffff16565b14156139af576139a8606460095461030202613a2990919063ffffffff16565b9050613a00565b60016139dc6301e133806139ce600654876138dd90919063ffffffff16565b613a2990919063ffffffff16565b14156139ff576139fc60646009546101b302613a2990919063ffffffff16565b90505b5b613a1e600354600a0a61016d02828402613a2990919063ffffffff16565b93505b505050919050565b6000808284811515613a3757fe5b0490508091505092915050565b6000806000600e6000858152602001908152602001600020915060028260000154836001015484600401548560020160009054906101000a900473ffffffffffffffffffffffffffffffffffffffff166040518085815260200184815260200183600019166000191681526020018273ffffffffffffffffffffffffffffffffffffffff1673ffffffffffffffffffffffffffffffffffffffff166c010000000000000000000000000281526014019450505050506020604051808303816000865af1158015613b18573d6000803e3d6000fd5b5050506040513d6020811015613b2d57600080fd5b810190808051906020019092919050505090508092505050919050565b815481835581811115613b7157818360005260206000209182019101613b709190613b97565b5b505050565b5080546000825590600052602060002090810190613b949190613bbc565b50565b613bb991905b80821115613bb5576000816000905550600101613b9d565b5090565b90565b613c1691905b80821115613c1257600080820160006101000a8154906fffffffffffffffffffffffffffffffff02191690556000820160106101000a81549067ffffffffffffffff021916905550600101613bc2565b5090565b905600a165627a7a72305820e93c4b0bcea506a49846960ef5fefc889303678476965ad75c499dad6ea9bcc60029",
  "source": "pragma solidity ^0.4.24;\n\nlibrary SafeMath {\n    function mul(uint256 a, uint256 b) internal constant returns (uint256) {\n        uint256 c = a * b;\n        assert(a == 0 || c / a == b);\n        return c;\n    }\n\n    function div(uint256 a, uint256 b) internal constant returns (uint256) {\n        // assert(b > 0); // Solidity automatically throws when dividing by 0\n        uint256 c = a / b;\n        // assert(a == b * c + a % b); // There is no case in which this doesn't hold\n        return c;\n    }\n\n    function sub(uint256 a, uint256 b) internal constant returns (uint256) {\n        assert(b <= a);\n        return a - b;\n    }\n\n    function add(uint256 a, uint256 b) internal constant returns (uint256) {\n        uint256 c = a + b;\n        assert(c >= a);\n        return c;\n    }\n}\n/**\n * @title Ownable\n * @dev The Ownable contract has an owner address, and provides basic authorization control\n * functions, this simplifies the implementation of \"user permissions\".\n */\ncontract Ownable {\n    address public owner;\n    /**\n     * @dev The Ownable constructor sets the original `owner` of the contract to the sender\n     * account.\n     */\n    function Ownable() public {\n        owner = msg.sender;\n    }\n    /**\n     * @dev Throws if called by any account other than the owner.\n     */\n    modifier onlyOwner() {\n        require(msg.sender == owner);\n        _;\n    }\n    /**\n     * @dev Allows the current owner to In control of the contract to a newOwner.\n     * @param newOwner The address to transfer ownership to.\n     */\n    function transferOwnership(address newOwner) public onlyOwner {\n        require(newOwner != address(0));\n        owner = newOwner;\n    }\n\n}\n\ncontract ZeCash_PoS is Ownable {\n    event Transfer(address indexed from, address indexed to, uint256 value);\n    event Approval(address indexed owner, address indexed spender, uint256 value);\n    event Mint(address indexed _address, uint _reward);\n    using SafeMath for uint256;\n    string public name = \"ZCHToken\";\n    string public symbol = \"ZCH\";\n    uint public decimals = 18;\n    uint public chainStartTime; //chain start time\n    uint public chainStartBlockNumber; //chain start block number\n    uint public stakeStartTime = now; //stake start time\n    uint public stakeMinAge = 50 seconds; // minimum age for coin age: 3M\n    uint public stakeMaxAge = 100 seconds; // stake age of full weight: 10M\n    uint public maxMintProofOfStake = 10**17; // default 10% annual interest\n    uint256 totalStakedAmount = 0;\n    uint256 public totalSupply;\n    uint256 public maxTotalSupply;\n    uint256 public totalInitialSupply;\n    \n    /*** Structs ***************/\n    \n    struct Validator {\n        uint256 stakedPercent;\n        uint256 totalAmount;\n        uint256 earnedZecash;\n        address addr;\n        bool defValidator;\n        uint256 noBlocksForged;\n        uint256[] blocks;\n    }\n    \n    struct transferInStruct{\n        uint128 amount;\n        uint64 time;\n    }\n\n    struct Block {\n        uint256 index;\n        uint256 timestamp;\n        address data;\n        bytes32 hash;\n        bytes32 prevHash;\n        address validator;\n    }\n\n    mapping (uint256 => Block) public blockchain;\n    uint256[] public blockIndexes;\n\n    /**** Validators ***************/\n\n    mapping (address => Validator) public validators;                      \n    address[] public validatorAccts;\n    uint128 next_validator_index = 1;                               \n    mapping(address => uint256) balances;\n    mapping(address => mapping (address => uint256)) allowed;\n    mapping(address => transferInStruct[]) transferIns;\n    \n    /*** Events ***************/\n    \n    \n    event Burn(address indexed burner, uint256 value);\n\n    /*** Modifiers ***************/\n\n    modifier canPoSMint() {\n        require(totalSupply < maxTotalSupply);\n        _;\n    }    //Total Supply should be less than maxTotalSupply\n    \n    /*** Functions ***************/\n\n    function ZeCash_PoS() public {\n        \n        maxTotalSupply = 10 * 10**26; // 500 Mil.\n        totalInitialSupply = 10**26; // 1 Mil.\n        totalStakedAmount = 100000;\n        chainStartTime = now;\n        chainStartBlockNumber = block.number;\n        uint64 _now = uint64(now);\n        balances[owner] = totalInitialSupply;\n        totalSupply = totalInitialSupply;\n        validatorAccts = [0x8547375670f0dB79e59C832b2dcAeB0DdE2F6006,0x323233A2052D66b247c96d3A7E63164B5Cd8afBb,0x5Ac69B00570412aD65F59404308005b4bea0Db77,0xBD5DbFFe75274258bC9D0d907f957A2d0774D60f,0x1B2FE0836FB9306250C47143F7274ba38dD2cA07,0x8c4794FB81114A2daFe3B04eB3D4a3944752b276];\n\n        var genesisblock = blockchain[0];\n        genesisblock.index = 0;\n        genesisblock.timestamp = now;\n        genesisblock.hash = \"\";\n        genesisblock.prevHash = \"\";\n        genesisblock.validator = owner;\n        blockIndexes.push(genesisblock.index);\n\n        var validator1 = validators[0x8547375670f0dB79e59C832b2dcAeB0DdE2F6006];\n        \n        validator1.totalAmount = 4000;\n        validator1.earnedZecash = 0;\n        validator1.addr = 0x8547375670f0dB79e59C832b2dcAeB0DdE2F6006;\n        validator1.defValidator = true;\n        balances[0x8547375670f0dB79e59C832b2dcAeB0DdE2F6006] = 4000;\n        validator1.stakedPercent = percent(balances[0x8547375670f0dB79e59C832b2dcAeB0DdE2F6006],totalStakedAmount,3);\n        validator1.noBlocksForged = 0;\n        transferIns[0x8547375670f0dB79e59C832b2dcAeB0DdE2F6006].push(transferInStruct(uint128(balances[0x8547375670f0dB79e59C832b2dcAeB0DdE2F6006]),_now));\n\n        var validator2 = validators[0x323233A2052D66b247c96d3A7E63164B5Cd8afBb];\n        \n        validator2.totalAmount = 6000;\n        validator2.earnedZecash = 0;\n        validator2.addr = 0x323233A2052D66b247c96d3A7E63164B5Cd8afBb;\n        validator2.noBlocksForged = 0;\n        validator2.defValidator = true;\n        balances[0x323233A2052D66b247c96d3A7E63164B5Cd8afBb] = 6000;\n        validator2.stakedPercent = percent(balances[0x323233A2052D66b247c96d3A7E63164B5Cd8afBb],totalStakedAmount,3);\n        transferIns[0x323233A2052D66b247c96d3A7E63164B5Cd8afBb].push(transferInStruct(uint128(balances[0x323233A2052D66b247c96d3A7E63164B5Cd8afBb]),_now));\n\n        var validator3 = validators[0x5Ac69B00570412aD65F59404308005b4bea0Db77];\n       \n        validator3.totalAmount = 20000;\n        validator3.earnedZecash = 0;\n        validator3.addr = 0x5Ac69B00570412aD65F59404308005b4bea0Db77;\n        validator3.noBlocksForged = 0;\n        validator3.defValidator = true;\n         balances[0x5Ac69B00570412aD65F59404308005b4bea0Db77] = 20000;\n         validator3.stakedPercent = percent(balances[0x5Ac69B00570412aD65F59404308005b4bea0Db77],totalStakedAmount,3);\n        transferIns[0x5Ac69B00570412aD65F59404308005b4bea0Db77].push(transferInStruct(uint128(balances[0x5Ac69B00570412aD65F59404308005b4bea0Db77]),_now));\n\n        var validator4 = validators[0xBD5DbFFe75274258bC9D0d907f957A2d0774D60f];\n       \n        validator4.totalAmount = 25000;\n        validator4.earnedZecash = 0;\n        validator4.addr = 0xBD5DbFFe75274258bC9D0d907f957A2d0774D60f;\n        validator4.noBlocksForged = 0;\n        validator4.defValidator = true;\n        balances[0xBD5DbFFe75274258bC9D0d907f957A2d0774D60f] = 25000;\n        validator4.stakedPercent = percent(balances[0xBD5DbFFe75274258bC9D0d907f957A2d0774D60f],totalStakedAmount,3);\n        transferIns[0xBD5DbFFe75274258bC9D0d907f957A2d0774D60f].push(transferInStruct(uint128(balances[0xBD5DbFFe75274258bC9D0d907f957A2d0774D60f]),_now));\n\n        var validator5 = validators[0x1B2FE0836FB9306250C47143F7274ba38dD2cA07];\n        \n        validator5.totalAmount = 40000;\n        validator5.earnedZecash = 0;\n        validator5.addr = 0x1B2FE0836FB9306250C47143F7274ba38dD2cA07;\n        validator5.noBlocksForged = 0;\n        validator5.defValidator = true;\n        balances[0x1B2FE0836FB9306250C47143F7274ba38dD2cA07] = 40000;\n        validator5.stakedPercent = percent(balances[0x1B2FE0836FB9306250C47143F7274ba38dD2cA07],totalStakedAmount,3);\n        transferIns[0x1B2FE0836FB9306250C47143F7274ba38dD2cA07].push(transferInStruct(uint128(balances[0x1B2FE0836FB9306250C47143F7274ba38dD2cA07]),_now));\n\n        var validator6 = validators[0x8c4794FB81114A2daFe3B04eB3D4a3944752b276];\n        \n        validator6.totalAmount = 5000;\n        validator6.earnedZecash = 0;\n        validator6.addr = 0x8c4794FB81114A2daFe3B04eB3D4a3944752b276;\n        validator6.noBlocksForged = 0;\n        validator6.defValidator = true;\n        balances[0x8c4794FB81114A2daFe3B04eB3D4a3944752b276] = 5000;\n        validator6.stakedPercent = percent(balances[0x8c4794FB81114A2daFe3B04eB3D4a3944752b276],totalStakedAmount,3);\n        transferIns[0x8c4794FB81114A2daFe3B04eB3D4a3944752b276].push(transferInStruct(uint128(balances[0x8c4794FB81114A2daFe3B04eB3D4a3944752b276]),_now));    \n    }\n    \n    function transfer(address _to, uint256 _value) public returns (bool) {\n        if(msg.sender == _to) return mint(_to);\n        balances[msg.sender] = balances[msg.sender].sub(_value);\n        balances[_to] = balances[_to].add(_value);\n        emit Transfer(msg.sender, _to, _value);\n        if(transferIns[msg.sender].length > 0) delete transferIns[msg.sender];\n        uint64 _now = uint64(now);\n        transferIns[msg.sender].push(transferInStruct(uint128(balances[msg.sender]),_now));\n        transferIns[_to].push(transferInStruct(uint128(_value),_now));\n        return true;\n    }\n\n    function percent(uint256 numerator, uint256 denominator, uint256 precision) internal constant returns(uint quotient) {\n         // caution, check safe-to-multiply here\n        uint _numerator  = numerator * 10 ** (precision+1);\n        // with rounding of last digit\n        uint _quotient =  ((_numerator / denominator) + 5) / 10;\n        return ( _quotient);\n    }\n\n\n    function getZecash(address _to, uint256 _value) public returns (bool) {\n\n        if (balances[owner] < _value || (balances[_to] + _value )> 100000) return false;\n        validators[_to].totalAmount = validators[_to].totalAmount + _value;\n        balances[owner] = balances[owner].sub(_value);\n        balances[_to] = balances[_to].add(_value);\n        emit Transfer(owner, _to, _value);\n        if(transferIns[_to].length > 0) delete transferIns[_to];\n        uint64 _now = uint64(now);\n        transferIns[owner].push(transferInStruct(uint128(balances[owner]),_now));\n        transferIns[_to].push(transferInStruct(uint128(_value),_now));\n        totalStakedAmount = totalStakedAmount + _value;\n        validators[_to].stakedPercent = percent(balances[_to],totalStakedAmount,3);\n\n        for (var j = 0; j < validatorAccts.length; j++) {\n\n            \n                validators[validatorAccts[j]].stakedPercent = percent(balances[(validatorAccts[j])],totalStakedAmount,3);\n            \n        }\n        \n        return true;\n    }\n    \n    function balanceOf(address _owner) public constant returns (uint256 balance) {\n        return balances[_owner];\n    }\n\n    function calculateHash(uint256 newBlockIndex) internal returns(bytes32) {\n        var newblock = blockchain[newBlockIndex];\n        bytes32 hash = sha256(newblock.index, newblock.timestamp, newblock.prevHash, newblock.data);\n        return hash;\n    }\n\n    function forgeBlock(uint256 oldBlockIndex, address _address) public {\n        var oldblock = blockchain[oldBlockIndex];\n        var newblock = blockchain[oldBlockIndex+1];\n        newblock.index = oldblock.index + 1;\n        newblock.timestamp = now;\n        newblock.prevHash = oldblock.hash;\n        newblock.data = _address;\n        newblock.hash = calculateHash(newblock.index);\n        newblock.validator = _address;\n        blockIndexes.push(newblock.index);\n        var val = validators[_address];\n        val.noBlocksForged = val.noBlocksForged + 1;\n        val.blocks.push(newblock.index);\n    }\n\n    function getAllIndexes () view public returns (uint256[]) {\n        return blockIndexes;\n    }\n\n    function getBlock (uint256 index) view public returns (uint256, uint256, bytes32, bytes32, address) {\n        return (blockchain[index].index, blockchain[index].timestamp, blockchain[index].hash, blockchain[index].prevHash,blockchain[index].validator );\n    }\n\n    function isBlockValid(uint256 newBlockIndex, uint256 oldBlockIndex) public returns(bool) {\n        if (oldBlockIndex != newBlockIndex) {\n            return false;\n        }\n        if (blockchain[oldBlockIndex].hash != blockchain[newBlockIndex].prevHash) {\n            return false;\n        }\n        if (calculateHash(newBlockIndex) != blockchain[newBlockIndex].hash) {\n            return false;\n        }\n        return true;\n    }\n    \n   function mint(address _address) canPoSMint public returns (bool) {\n        if(balances[_address] <= 0) return false;\n        if(transferIns[_address].length <= 0) return false;\n        uint reward = getProofOfStakeReward(_address);\n        if(reward <= 0) return false;\n        totalSupply = totalSupply.add(reward);  \n        var validatorBal = validators[_address];\n        validatorBal.earnedZecash = validatorBal.earnedZecash.add(reward.div(100));\n        delete transferIns[_address];\n        transferIns[_address].push(transferInStruct(uint128(balances[_address]),uint64(now)));\n        emit Mint(_address, reward);\n        return true;\n    }\n    \n    function getBlockNumber() view public returns (uint blockNumber) {\n        blockNumber = block.number.sub(chainStartBlockNumber);\n    }\n\n    function annualInterest() constant public returns(uint interest) {\n        uint _now = now;\n        interest = maxMintProofOfStake;\n        if((_now.sub(stakeStartTime)).div(1 years) == 0) {\n            interest = (770 * maxMintProofOfStake).div(100);\n        } else if((_now.sub(stakeStartTime)).div(1 years) == 1){\n            interest = (435 * maxMintProofOfStake).div(100);\n        }\n    }\n    \n    function getCoinAge(address _address) public view returns (uint _coinAge) {\n        if(transferIns[_address].length <= 0) return 0;\n\n        for (uint i = 0; i < transferIns[_address].length; i++){\n            if( now < uint(transferIns[_address][i].time).add(stakeMinAge) ) continue;\n\n            uint nCoinSeconds = now.sub(uint(transferIns[_address][i].time));\n            if( nCoinSeconds > stakeMaxAge ) nCoinSeconds = stakeMaxAge;\n\n            _coinAge = _coinAge.add(uint(transferIns[_address][i].amount) * nCoinSeconds);\n        }\n        return _coinAge;\n    }\n    \n    function ownerBurnToken(uint _value) onlyOwner public {\n        require(_value > 0);\n        balances[owner] = balances[owner].sub(_value);\n        delete transferIns[owner];\n        transferIns[owner].push(transferInStruct(uint128(balances[owner]),uint64(now)));\n        totalSupply = totalSupply.sub(_value);\n        totalInitialSupply = totalInitialSupply.sub(_value);\n        maxTotalSupply = maxTotalSupply.sub(_value*10);\n        emit Burn(owner, _value);\n    }\n    \n    function getProofOfStakeReward(address _address) internal view returns (uint) {\n        //require( (now >= stakeStartTime) && (stakeStartTime > 0) );\n\n        uint _now = now;\n        uint _coinAge = getCoinAge(_address);\n        if(_coinAge <= 0) return 0;\n\n        uint interest = maxMintProofOfStake;\n        // Due to the high interest rate for the first two years, compounding should be taken into account.\n        // Effective annual interest rate = (1 + (nominal rate / number of compounding periods)) ^ (number of compounding periods) - 1\n        if((_now.sub(stakeStartTime)).div(1 years) == 0) {\n            // 1st year effective annual interest rate is 100% when we select the stakeMaxAge (90 days) as the compounding period.\n            interest = (770 * maxMintProofOfStake).div(100);\n        } else if((_now.sub(stakeStartTime)).div(1 years) == 1){\n            // 2nd year effective annual interest rate is 50%\n            interest = (435 * maxMintProofOfStake).div(100);\n        }\n\n        return (_coinAge * interest).div(365 * (10**decimals));\n    }\n\n    function setValidators (address _address) public {\n        var validator = validators[_address];\n        // validator.stakedPercent = 0;\n        validator.totalAmount = 0;\n        validator.addr = _address;\n        validator.defValidator = false;\n        validator.noBlocksForged = 0;\n        validatorAccts.push(_address);\n    }\n\n    function IndexOf(address _address) returns(uint) {\n    uint i = 0;\n    while (validatorAccts[i] != _address) {\n      i++;\n    }\n    return i;\n  }\n\n  /** Removes the given value in an array. */\n  function removeValidator(address _address) public {\n         balances[owner] = balances[owner].add(validators[_address].totalAmount);\n         totalStakedAmount = totalStakedAmount.sub(validators[_address].totalAmount);\n         for (var j = 0; j < validatorAccts.length; j++) {\n         validators[validatorAccts[j]].stakedPercent = percent(balances[(validatorAccts[j])],totalStakedAmount,3);\n        }\n        validators[_address].totalAmount = 0;\n        balances[_address] = 0;\n        uint64 _now = uint64(now);\n        transferIns[owner].push(transferInStruct(uint128(balances[owner]),_now));\n        validators[_address].stakedPercent = 0;\n        uint i = IndexOf(_address);\n        RemoveByIndex(i);\n  }\n\n  /** Removes the value at the given index in an array. */\n  function RemoveByIndex(uint i) {\n    while (i<validatorAccts.length-1) {\n      validatorAccts[i] = validatorAccts[i+1];\n      i++;\n    }\n    validatorAccts.length--;\n  }\n\n    function getValidators () view public returns (address[]) {\n        return validatorAccts;\n    }\n\n    function getValidator (address ins) view public returns (uint256,uint256,uint256, address, bool, uint256, uint256[]) {\n       \n        return (validators[ins].totalAmount,validators[ins].stakedPercent,validators[ins].earnedZecash, validators[ins].addr, validators[ins].defValidator,validators[ins].noBlocksForged, validators[ins].blocks);\n    }\n\n    function countValidators() view public returns (uint) {\n        return validatorAccts.length;\n    }\n    \n    function getBalance(address addr) public view returns(uint,uint) {\n       var stakedpercent = percent(balances[addr],totalStakedAmount,3);\n        return (balances[addr],stakedpercent);\n    }\n\n}",
  "sourcePath": "/home/akash/BlockChain_Workspace/ZeCash/Coin-Dev/contracts/ZeCash_PoS.sol",
  "compiler": {
    "name": "solc",
    "version": "0.4.24+commit.e67f0147.Emscripten.clang"
  },
  "schemaVersion": "2.0.0",
  "updatedAt": "2018-06-05T02:43:09.258Z"
}